:100C3E007510037511207B007A0079107F04120461
:100C4E00157510037511C07B007A0079107F0212A2
:100C5E0004157510037511307B007A0079107F0131
:100C6E0012041575100375110F7B007A0079107F31
:040C7E000202041555
:10066900D2AF120C3EC2C5E4750B01F50AF509F5C6
:1006790008E47F09FEFDFCAB0BAA0AA909A808C377
:10068900120A81400302077CE47F01FEFDFCA808F1
:10069900C3120A817003C38001D392A7E47F02FECB
:1006A900FDFCAB0BAA0AA909A808C3120A817003A9
:1006B900C38001D392A6E47F03FEFDFCAB0BAA0A1B
:1006C900A909A808C3120A817003C38001D39295AE
:1006D900E47F04FEFDFCAB0BAA0AA909A808C31212
:1006E9000A817003C38001D39294E47F05FEFDFC67
:1006F900AB0BAA0AA909A808C3120A817003C3800F
:1007090001D392A3E47F06FEFDFCAB0BAA0AA9095B
:10071900A808C3120A817003C38001D392A2E47F9F
:1007290007FEFDFCAB0BAA0AA909A808C3120A8196
:100739007003C38001D392A1E47F08FEFDFCAB0BDB
:10074900AA0AA909A808C3120A817003C38001D3A0
:1007590092A07FFA120F63E4FAF9F8E50B2401F588
:100769000BEA350AF50AE93509F509E83508F50806
:1007790002067AE4750F08F50EF50DF50CE4FFFE97
:10078900FDFCAB0BAA0AA909A808D3120A815003D8
:10079900020670E47F01FEFDFCAB0FAA0EA90DA8AD
:1007A9000C120A817003C38001D392A7E47F02FE71
:1007B900FDFCAB0FAA0EA90DA80CC3120A81700388
:1007C900C38001D392A6E47F03FEFDFCAB0FAA0E02
:1007D900A90DA80CC3120A817003C38001D3929595
:1007E900E47F04FEFDFCAB0FAA0EA90DA80CC312F1
:1007F9000A817003C38001D39294E47F05FEFDFC56
:10080900AB0FAA0EA90DA80CC3120A817003C380ED
:1008190001D392A3E47F06FEFDFCAB0FAA0EA90D3E
:10082900A80CC3120A817003C38001D392A2E47F8A
:1008390007FEFDFCAB0FAA0EA90DA80CC3120A8175
:100849007003C38001D392A1E47F08FEFDFCAB0FC6
:10085900AA0EA90DA80CC3120A817003C38001D383
:1008690092A07FFA120F6374FF250FF50FE50E347E
:10087900FFF50EE50D34FFF50DE50C34FFF50C021F
:020889000786E0
:0C0F73007F7A7EC17D80DDFEDEFCDFFAAF
:010F7F00224F
:10041500EFD3940740037FFF221209D8FED394033C
:1004250040037FFF22EF7041EE700B90000112092F
:10043500F1F4529352941209D8B4010B90000112B1
:1004450009F14293F452941209D8FEB4020A9000BD
:10045500011209F142934294EEB4030D900001128A
:1004650009F1FEF45293EE4294EF640170431209D0
:10047500D8FE700B9000011209F1F452915292EEE0
:10048500B4010B9000011209F14291F45292120944
:10049500D8B4020A9000011209F142914292120960
:1004A500D8B4030D9000011209F1FEF45291EE4209
:1004B50092EF640270431209D8FE700B900001128E
:1004C50009F1F452955296EEB4010B900001120910
:1004D500F14295F452961209D8B4020A900001121D
:1004E50009F1429542961209D8B4030D9000011204
:1004F50009F1FEF45295EE4296EF6403704312093A
:10050500D8FE700B9000011209F1F452B152B2EE0F
:10051500B4010B9000011209F142B1F452B2120973
:10052500D8B4020A9000011209F142B142B212098F
:10053500D8B4030D9000011209F1FEF452B1EE4258
:10054500B2EF640470431209D8FE700B90000112DB
:1005550009F1F452B352B4EEB4010B900001120943
:10056500F142B3F452B41209D8B4020A9000011250
:1005750009F142B342B41209D8B4030D9000011237
:1005850009F1FEF452B3EE42B4EF6405704312096B
:10059500D8FE700B9000011209F1F452C952CAEE4F
:1005A500B4010B9000011209F142C9F452CA1209B3
:1005B500D8B4020A9000011209F142C942CA1209CF
:1005C500D8B4030D9000011209F1FEF452C9EE42B0
:1005D500CAEF640670431209D8FE700B9000011231
:1005E50009F1F452CB52CCEEB4010B900001120983
:1005F500F142CBF452CC1209D8B4020A9000011290
:1006050009F142CB42CC1209D8B4030D9000011276
:1006150009F1FEF452CBEE42CCEF640770431209A8
:10062500D8FF700B9000011209F1F452E152E2EF8C
:10063500B4010B9000011209F142E1F452E21209F2
:10064500D8B4020A9000011209F142E142E212090E
:10065500D8B4030D9000011209F1FFF452E1EF4205
:04066500E27F00220E
:100D0600EFD3940140037FFF22EDD3940340037F8A
:100D1600FF22EF7004C2A98002D2A9ED700553B775
:100D2600FDC2B9BD010553B7FDD2B9BD020543B732
:0E0D360002C2B9BD030543B702D2B97F002245
:100D4400EFD3940140037FFF22EDD3940340037F4C
:100D5400FF22EF7004C2AB8002D2ABED700553B733
:100D6400F7C2BBBD010553B7F7D2BBBD020543B7FC
:0E0D740008C2BBBD030543B708D2BB7F0022F7
:100ED400EFD3940140037FFF22EDD3940340037FBB
:100EE400FF22EF25E025E0FFE5AF54FB4FF5AFE42B
:020EF400FF22DB
:100EF600EFD3940140037FFF22EDD3940340037F99
:100F0600FF22EFC43354E0FFE5AF54DF4FF5AFE403
:020F1600FF22B8
:100EB100EFD3940140037FFF22EDD3940340037FDE
:100EC100FF22EFC4333354C0FFE5AF54BF4FF5AF3A
:030ED100E4FF2219
:100D8200EFD3940140037FFF22EDD3940340037F0E
:100D9200FF22EF7004C2A88002D2A8ED700553B7FB
:100DA200FEC2B8BD010553B7FED2B8BD020543B7B6
:0E0DB20001C2B8BD030543B701D2B87F0022CD
:100DC000EFD3940140037FFF22EDD3940340037FD0
:100DD000FF22EF7004C2AA8002D2AAED700553B7B9
:100DE000FBC2BABD010553B7FBD2BABD020543B77A
:0E0DF00004C2BABD030543B704D2BA7F002285
:100F4B00EFD3940140037FFF22EFC454F0FFE58FF2
:080F5B0054EF4FF58FE4FF2273
:100F3200EFD3940140037FFF22EFC43354E0FFE577
:090F42008F54DF4FF58FE4FF220C
:100F1800EFD3940140037FFF22EFC4333354C0FF63
:0A0F2800E58F54BF4FF58FE4FF2260
:100DFE00EFD3940140037FFF22EDD3940340037F92
:100E0E00FF22EF7004C2AD8002D2ADED700553B774
:100E1E00DFC2BDBD010553B7DFD2BDBD020543B76D
:0E0E2E0020C2BDBD030543B720D2BD7F002208
:100B6A00EDD3940340037FFF22EF30E10543E620F3
:100B7A00800353E6DFEF30E00543E610800353E6D7
:100B8A00EFED700653B6DF53B5DFBD010653B6DF8E
:100B9A0043B520BD020643B62053B5DFBD03064365
:080BAA00B62043B5207F0022B4
:100B1100EFD3940140037FFF22EBD3940340037F83
:100B2100FF22BF0112ED90FE817006E0547FF0803C
:100B310011E04480F0800BEF700890FE83E0548751
:100B41004DF0EB700653B6DF53B5DFBB010653B66C
:100B5100DF43B520BB020643B62053B5DFBB030616
:090B610043B62043B5207F0022B9
:100E3C00EFD3940140037FFF22EDD3940340037F53
:100E4C00FF22EF7004C2AC8002D2ACED700553B738
:100E5C00EFC2BCBD010553B7EFD2BCBD020543B711
:0E0E6C0010C2BCBD030543B710D2BC7F0022EC
:100CC600EFD3940140037FFF22EDD3940340037FCB
:100CD600FF22E5AF54FE4FF5AFED700653B6FE5357
:100CE600B5FEBD010653B6FE43B501BD020643B6C9
:100CF6000153B5FEBD030643B60143B5017F00228D
:100BB200EFD3940140037FFF22EDD3940340037FE0
:100BC200FF22EF33333354F8FFE5AF54F74FF5AF5D
:100BD200ED700653EEFE53DFFEBD010653EEFE43FB
:100BE200DF01BD020643EE0153DFFEBD030643EE05
:070BF2000143DF017F002237
:100BF900EFD3940140037FFF22EDD3940340037F99
:100C0900FF22EFC454F0FFE5AF54EF4FF5AFED709D
:100C19000653EEFD53DFFDBD010653EEFD43DF0232
:100C2900BD020643EE0253DFFDBD030643EE024358
:050C3900DF027F002234
:100C8200EFD3940140037FFF22EDD3940340037F0F
:100C9200FF22EF25E0FFE5AF54FD4FF5AFED700603
:100CA20053B6FD53B5FDBD010653B6FD43B502BDB6
:100CB200020643B60253B5FDBD030643B60243B571
:040CC200027F00228B
:100A9700EFD3948140037FFF22EBD3940340037F7E
:100AA700FF22EF247F603004705890FEC4EDF0EB16
:100AB700700653B6FB53B5FBBB010653B6FB43B5F4
:100AC70004BB020643B60453B5FBEB64037038431B
:100AD700B60443B504803090FEE4EDF0EB700653A6
:100AE700B6F753B5F7BB010653B6F743B508BB02D4
:100AF7000643B60853B5F7BB030D43B60843B5081D
:0A0B0700800590FEE4EDF07F00226F
:100E7A00EDD394035026ED700653EEFB53DFFBBD12
:100E8A00010653EEFB43DF04BD020643EE0453DFC3
:100E9A00FBBD030B43EE0443DF0480037FFF229074
:070EAA00FE62EFF07F002261
:10000300AD07ED6401707A90FECCE054FEF0E0544D
:10001300FBF090FEC8E054FCF01209D8FF90FEC834
:10002300E0548F4FF09000061209F1FF90FECC30A0
:10003300E00DE04401F090FEB1E04401F0800BE0FC
:1000430054FEF090FEB1E054FEF0EF90FECC30E1B0
:100053000DE04404F090FEB1E04402F0800BE05464
:10006300FBF090FEB1E054FDF0900003120A49E565
:10007300F090FED5F0900003120A4990FED60203D9
:10008300BDED6402707A90FECCE054EFF0E054BF13
:10009300F090FEC9E054FCF01209D8FF90FEC9E0CD
:1000A300548F4FF09000061209F1FF90FECC30E21E
:1000B3000DE04410F090FEB1E04404F0800BE054F6
:1000C300EFF090FEB1E054FBF0EF90FECC30E30D87
:1000D300E04440F090FEB1E04408F0800BE054BFF0
:1000E300F090FEB1E054F7F0900003120A49E5F0F6
:1000F30090FED7F0900003120A4990FED80203BD88
:10010300ED6403707A90FECDE054FEF0E054FBF012
:1001130090FECAE054FCF01209D8FF90FECAE054E6
:100123008F4FF09000061209F1FF90FECD30E40DE1
:10013300E04401F090FEB1E04410F0800BE054FE87
:10014300F090FEB1E054EFF0EF90FECD30E50DE01E
:100153004404F090FEB1E04420F0800BE054FBF047
:1001630090FEB1E054DFF0900003120A49E5F090ED
:10017300FED9F0900003120A4990FEDA0203BDEDA6
:100183006404707A90FECDE054EFF0E054BFF09039
:10019300FECBE054FCF01209D8FF90FECBE0548F65
:1001A3004FF09000061209F1FF90FECD30E60DE00E
:1001B3004410F090FEB1E04440F0800BE054EFF0C7
:1001C30090FEB1E054BFF0EF90FECD30E70DE04478
:1001D30040F090FEB1E04480F0800BE054BFF0901B
:1001E300FEB1E0547FF0900003120A49E5F090FE5F
:1001F300DBF0900003120A4990FEDC0203BDED64BC
:1002030080704F9000051209F190FEDEF09000011E
:10021300120A49E5F090FED2F0900001120A4990CB
:10022300FED3F09000081209F190FEDDB40106E060
:100233004480F08004E0547FF09000071209F190AD
:10024300FEC0B40106E04401F08004E054FEF07FF8
:100253000022ED6405705690FEECE054FEF090FE33
:10026300E8E054FCF01209D8FF90FEE8E0548F4F09
:10027300F09000061209F190FEEC30E00DE044012D
:10028300F090FEB5E04401F0800BE054FEF090FEE8
:10029300B5E054FEF0900003120A49E5F090FEF534
:1002A300F0900003120A4990FEF60203BDED6406C6
:1002B300705690FEECE054EFF090FEE9E054FCF051
:1002C3001209D8FF90FEE9E0548F4FF09000061218
:1002D30009F190FEEC30E20DE04410F090FEB5E041
:1002E3004404F0800BE054EFF090FEB5E054FBF0D3
:1002F300900003120A49E5F090FEF7F09000031214
:100303000A4990FEF80203BDED6407705590FEEDB7
:10031300E054FEF090FEEAE054FCF01209D8FF909E
:10032300FEEAE0548F4FF09000061209F190FEEDC3
:1003330030E40DE04401F090FEB5E04410F0800B92
:10034300E054FEF090FEB5E054EFF0900003120A83
:1003530049E5F090FEF9F0900003120A4990FEFA85
:100363008058ED6408705790FEEDE054EFF090FE76
:10037300EBE054FCF01209D8FF90FEEBE0548F4FF2
:10038300F09000061209F190FEED30E60DE0441006
:10039300F090FEB5E04440F0800BE054EFF090FEA7
:1003A300B5E054BFF0900003120A49E5F090FEFB5C
:1003B300F0900003120A4990FEFCF07F0022ED64E6
:1003C30081704C9000051209F190FEFEF09000013F
:1003D300120A49FDACF0EC90FEF2F0AF05A3EFF08A
:1003E3009000081209F190FEFDB40106E04480F08C
:1003F3008004E0547FF09000071209F190FEE0B40E
:100403000106E04401F08004E054FEF07F00227F07
:02041300FF22C6
:10088B00EF2480700302094614700302098B248045
:10089B00B4080040030209D79008B175F003A4C552
:1008AB008325F0C583730208C90208D60208E60245
:1008BB0008F6020906020916020926020936120A6F
:1008CB001EFDACF0EC90FED50209D1900002120A8D
:1008DB0049FDACF0EC90FED70209D1900004120A4E
:1008EB0049FDACF0EC90FED90209D1900006120A3A
:1008FB0049FDACF0EC90FEDB0209D1900008120A26
:10090B0049FDACF0EC90FEF50209D190000A120AF9
:10091B0049FDACF0EC90FEF70209D190000C120AE5
:10092B0049FDACF0EC90FEF90209D190000E120AD1
:10093B0049FDACF0EC90FEFB0209D1120A1EFDAC96
:10094B00F0EC90FED5F0AF05A3EFF0900002120A89
:10095B0049FDACF0EC90FED7F0AF05A3EFF09000A3
:10096B0004120A49FDACF0EC90FED9F0AF05A3EFF1
:10097B00F0900006120A49FDACF0EC90FEDB8046CD
:10098B00900008120A49FDACF0EC90FEF5F0AF05B3
:10099B00A3EFF090000A120A49FDACF0EC90FEF7C1
:1009AB00F0AF05A3EFF090000C120A49FDACF0EC90
:1009BB0090FEF9F0AF05A3EFF090000E120A49FD7F
:0D09CB00ACF0EC90FEFBF0AF05A3EFF022C6
:0F0F63007D607C09ED1D70011C144C70F7DFF1EF
:010F7200225C
:03000000020F806C
:0C0F8000787FE4F6D8FD75811102066947
:1009D800BB010689828A83E0225002E722BBFE021D
:0909E800E32289828A83E4932250
:1009F100BB010CE58229F582E5833AF583E02250BB
:100A010006E92582F8E622BBFE06E92582F8E22204
:0D0A1100E58229F582E5833AF583E493221E
:100A1E00BB010A89828A83E0F5F0A3E022500687A3
:100A2E00F009E71922BBFE07E3F5F009E319228965
:0B0A3E00828A83E493F5F07401932298
:100A4900BB0110E58229F582E5833AF583E0F5F0EB
:100A5900A3E0225009E92582F886F008E622BBFEC8
:100A69000AE92582F8E2F5F008E222E5832AF5830E
:080A7900E993F5F0A3E99322D3
:100A8100EB9FF5F0EA9E42F0E99D42F0EC6480C8EC
:060A910064809845F0228C
:00000001FF
