:102F360054657374696E67204E697869652E2E2E06
:102F46002E0D0A0054657374696E67204D6F746F99
:102F5600722E2E2E2E0D0A0054657374696E67202C
:102F66004C45442E2E2E2E0D0A0054657374696E40
:102F760067205254432E2E2E2E0D0A00546573746C
:102F8600696E6720566F6C746167652E2E2E2E0D46
:102F96000A0054657374696E67204E54432E2E2EB4
:102FA6002E0D0A0054657374696E672044485431C7
:102FB600312E2E2E2E0D0A0054657374696E67200D
:102FC60042757A7A65722E2E2E2E0D0A005465737E
:102FD60074696E67204B6579732E2E2E2E0D0A00AE
:102FE60054657374696E67204D6174726978204BFD
:0A2FF6006579732E2E2E2E0D0A00B1
:0E40500090024FEFF0123E2090024FE0FF2250
:103EE2009002147403F0E4900213F07B017A0279D9
:063EF200137F03021EAF66
:103D21009002137440F0A37401F0A3120A2700015A
:103D3100C20090021A7401F0E4A3F0A304F0E4A31A
:0E3D4100F0A3F07B017A0279137F01022103C7
:103DA8009002157401F0900214F0E4900217F0905C
:103DB8000216F0900213740DF090021E7430F07B1E
:083DC800017A027913022A8539
:103D7D00900213741FF0E4900219F0A304F0E49084
:103D8D000214F0A304F0A3F0E4A3F0A3F07B017AF6
:0B3D9D000279131232E57F0102000ED4
:10323C00123EE2123D21123DA8123D7DD2AF123F4B
:10324C00737BFF7A2F7936123F6012391B123E477F
:10325C007BFF7A2F794A123F60123B18123E477B54
:10326C00FF7A2F795E123F60123608123E477BFFC1
:10327C007A2F7970123F6012140C123E477BFF7A42
:10328C002F7982123F60123000123E477BFF7A2F5B
:10329C007998123F60122B85123E477BFF7A2F796B
:1032AC00AA123F60122E61123E477BFF7A2F79BE25
:1032BC00123F60123E6B123E477BFF7A2F79D3127E
:1032CC003F60124110123E477BFF7A2F79E6123F86
:0932DC00601240F2123E4780FE30
:080003000000000000000000F5
:10391B0078157C027D017BFF7A0079037E007F089E
:10392B001206A5123F73E4900215F0A304F0A30452
:10393B00F0A304F0A304F0A304F0A304F0A304F099
:10394B00E4900213F0E4900214F0900214E0FF24D0
:10395B0015F582E43402F583E0FD123CEF7FC812CB
:10396B004002900214E004F0E0C3940840DC9002A3
:0A397B0013E004F0E0C3940240CB17
:01398500221F
:103EF8009002157402F090021404F07B017A0279A2
:063F080014E4FF021EAFED
:103B1800123EF8E4900213F0D2817FFA1240027F3D
:103B2800FA1240027FFA1240027FFA124002C28162
:103B38007FFA1240027FFA1240027FFA1240027F97
:103B4800FA124002900213E004F0E0C3940240C865
:013B5800224A
:103A8F0090021474CFF09002137403F07B017A024A
:103A9F0079137F02121EAF9002147430F09002134C
:103AAF007403F07B017A0279137F01121EAF90022B
:103ABF00147420F09002137403F07B017A027913CF
:053ACF007F04021EAFA0
:10360800123A8FC2C5C2A77FC8124002C2A67FC89D
:10361800124002C2957FC8124002C2947FC812406D
:1036280002C2A37FC8124002C2A27FC8124002C2CF
:10363800A17FC8124002C2A07FC8124002D2A7D2FE
:10364800A6D295D294D2A3D2A2D2A1D2A07FC812D8
:103658004002C2A7C2A6C295C294C2A3C2A2C2A176
:10366800C2A07FC8124002D2A7D2A6D295D294D2C5
:10367800A3D2A2D2A1D2A07FC8124002C2A7C2A6DA
:0D368800C295C294C2A3C2A2C2A1C2A022D8
:103FCF0025642D002564200025643A0025640D0A20
:013FDF0000E1
:10140C0090021D7427F0A37410F0123F8690021BFB
:10141C007407F0A374E7F090021A7403F0900218AA
:10142C007414F0A37401F0900215740AF0A37414F0
:10143C00F0A3741EF0781F7C027D017B017A027987
:10144C00157E007F081206A512263E7FC8124002A8
:10145C007B017A027915122D737BFF7A3F79CF903D
:10146C00021BE0FFA3E0900222CFF0A3EFF0120FDB
:10147C00F47BFF7A3F79CF90021AE0FF900222E4CE
:10148C00F0A3EFF0120FF47BFF7A3F79D3900218A0
:10149C00E0FF900222E4F0A3EFF0120FF47BFF7A4E
:1014AC003F79D3900219E0FF900222E4F0A3EFF011
:1014BC00120FF47BFF7A3F79D7900215E0FF900270
:1014CC0022E4F0A3EFF0120FF47BFF7A3F79D79070
:1014DC000216E0FF900222E4F0A3EFF0120FF47B6F
:1014EC00FF7A3F79DB900217E0FF900222E4F0A331
:1014FC00EFF0120FF4E4900213F0A3F090021DE051
:10150C00FEA3E0FFC3900214E09F900213E09E4004
:10151C00030215DB90021BE0FEA3E0FF7C037DE8D9
:10152C00120757AD07E4FF123CEF90021BE0FEA33D
:10153C00E0FF7C037DE81207577E007F64CFCDCFA0
:10154C00CECCCE120757AD077F01123CEF90021B99
:10155C00E0FEA3E0FF7C007D641207577E007F0A4B
:10156C00CFCDCFCECCCE120757AD077F02123CEFBA
:10157C0090021BE0FEA3E0FF7C007D0A1207577F60
:10158C0003123CEF90021AE075F00A84FD7F0412FE
:10159C003CEF90021AE075F00A84ADF07F05123C26
:1015AC00EF900218E075F00A84FD7F06123CEF9074
:1015BC000218E075F00A84ADF07F07123CEF900240
:1015CC0014E004F07006900213E004F00215087F9A
:1015DC00C8124002E4900213F0A3F090021DE0FE4A
:1015EC00A3E0FFC3900214E09F900213E09E50769C
:1015FC00900215E075F00A84FDE4FF123CEF9002B6
:10160C0015E075F00A84ADF07F01123CEF7D0B7F85
:10161C0002123CEF900216E075F00A84FD7F031273
:10162C003CEF900216E075F00A84ADF07F04123C9A
:10163C00EF7D0B7F05123CEF900217E075F00A84EA
:10164C00FD7F06123CEF900217E075F00A84ADF0B6
:10165C007F07123CEF900214E004F0700690021326
:10166C00E004F00215E77FC8124002E4900213F088
:10167C00A3F090021DE0FEA3E0FFC3900214E09FD4
:10168C00900213E09E400302175190021BE0FEA350
:10169C00E0FF7C037DE8120757AD07E4FF123CEF37
:1016AC0090021BE0FEA3E0FF7C037DE81207577E4F
:1016BC00007F64CFCDCFCECCCE120757AD077F01C4
:1016CC00123CEF90021BE0FEA3E0FF7C007D641255
:1016DC0007577E007F0ACFCDCFCECCCE120757ADA9
:1016EC00077F02123CEF90021BE0FEA3E0FF7C00A0
:1016FC007D0A1207577F03123CEF90021AE075F037
:10170C000A84FD7F04123CEF90021AE075F00A8403
:10171C00ADF07F05123CEF900218E075F00A84FDE5
:10172C007F06123CEF900218E075F00A84ADF07F52
:10173C0007123CEF900214E004F07006900213E0E4
:10174C0004F002167E7FC8124002E4900213F0A34C
:10175C00F090021DE0FEA3E0FFC3900214E09F9006
:10176C000213E09E5076900215E075F00A84FDE4B9
:10177C00FF123CEF900215E075F00A84ADF07F018A
:10178C00123CEF7D0B7F02123CEF900216E075F0DD
:10179C000A84FD7F03123CEF900216E075F00A8478
:1017AC00ADF07F04123CEF7D0B7F05123CEF9002F5
:1017BC0017E075F00A84FD7F06123CEF900217E0EB
:1017CC0075F00A84ADF07F07123CEF900214E00430
:0C17DC00F07006900213E004F002175DAC
:0117E80022DE
:0E405E00766F6C746167653A2025660D0A0066
:103F0E009002187420F09002177401F0FB7A027977
:063F1E0017E4FF021EAFD4
:10300000123F0E7F0D1238A3AD07AC06E412036920
:10301000E4FBFA797A78431201BEE4FBFA7980780E
:10302000451202C71203A2900213EEF0A3EFF09034
:103030000213E0FCA3E0FDE4120369E4FBFA79C8A3
:1030400078421202C7900222120A1B7BFF7A407953
:103050005E120FF4E4900215F0A3F0900213E0FE6C
:10306000A3E0FF7C007D64120757AD07E4FF123C2C
:10307000EF900213E0FEA3E0FF7C007D641207578F
:103080007E007F0ACFCDCFCECCCE120757AD077FC3
:1030900001123CEF900213E0FEA3E0FF7C007D0AEA
:1030A0001207577F02123CEF900216E004F0700600
:1030B000900215E004F0C3900216E094A890021567
:0530C000E09461409660
:0130C50022E8
:103FE00074656D707261747572653A2025640D0A8E
:013FF00000D0
:102B8500124109123825900213EEF0A3EFF07BFFF6
:102B95007A3F79E0900222EEF0A3EFF0120FF4E411
:102BA500900215F0A3F0C3900214E094F79002137D
:102BB500E06480947F50157D0B7F05123CEF9002F9
:102BC50013E0FEA3E0FF7C007D0A806AC390021338
:102BD500E06480948050047D0B8060900213E0FED9
:102BE500A3E0FFC3940AEE6480948050028059905C
:102BF5000213E0FEA3E0FFC39464EE64809480506A
:102C0500067C007D0A802F900213E0FEA3E0FF7C86
:102C1500007D641207ACAD077F05123CEF900213EF
:102C2500E0FEA3E0FF7C007D641207AC7E007F0A16
:102C3500CFCDCFCECCCE1207ACAD077F06123CEF81
:102C4500900213E0FEA3E0FF7C007D0A1207AC7F33
:102C550007123CEF900216E004F07006900215E0B2
:102C650004F0C3900216E09420900215E0944E50B3
:092C750003022BAB7FC8024002F0
:103E8C0068756D69646974793A2025640D0A00744B
:103E9C00656D707261747572653A2025640D0A0047
:102E6100E4900215F0A3F01240A47B017A02797D6F
:102E71001234D5EF70F490027DE0FF900215F090CE
:102E8100027FE0900216F07BFF7A3E798C9002225D
:102E9100E4F0A3EFF0120FF47BFF7A3E799B9002EE
:102EA10016E0FF900222E4F0A3EFF0120FF4E49099
:102EB1000213F0A3F0900215E075F06484FDE4FFC5
:102EC100123CEF900215E075F06484E5F075F00AAC
:102ED10084FD7F01123CEF900215E075F00A84AD8C
:102EE100F07F02123CEF900216E075F06484FD7FE2
:102EF10004123CEF900216E075F06484E5F075F081
:102F01000A84FD7F05123CEF900216E075F00A84F9
:102F1100ADF07F06123CEF900214E004F0700690D1
:102F21000213E004F0C3900214E09430900213E025
:042F310094754081D2
:012F35002279
:103B5900010203010102030103040503040505062B
:103B69000504030105060504030101050101050119
:103B790004040404040404040404080404080301F8
:103B890003010404030103010404040408040408F0
:103E6B0012410290021674FFF0A3743BF0A3747915
:103E7B00F0A3E4F0A37420F07BFF7A3B795902396D
:013E8B00E650
:103986004B65792D3120446F776E0D0A004B6579B2
:103996002D312055700D0A004B65792D3220446F6C
:1039A600776E0D0A004B65792D322055700D0A0091
:1039B6004B65792D3320446F776E0D0A004B657980
:1039C6002D332055700D0A004B65792D3420446F38
:1039D600776E0D0A004B65792D342055700D0A005F
:04406C004102880F76
:103F2400900214741EF0E4900213F07B017A02797B
:063F3400137F05021EAF21
:103DD000E4900213F0A37403F0A37401F0E4A3F0E1
:103DE000A3F0A37444F0A37480F0A37401F0FB7AF1
:083DF000027913E4FF021BB786
:10318300900288E0FF30E00F20C90C54FEF07BFF73
:103193007A397986123F60900288E0FF20E00F3091
:1031A300C90C4401F07BFF7A397993123F60900296
:1031B30088E0FF30E10F20CA0C54FDF07BFF7A3921
:1031C300799E123F60900288E0FF20E10F30CA0C25
:1031D3004402F07BFF7A3979AB123F60900288E0BA
:1031E300FF30E20F20CB0C54FBF07BFF7A3979B62A
:1031F300123F60900288E0FF20E20F30CB0C4404C2
:10320300F07BFF7A3979C3123F60900288E0FF3088
:10321300E30F20CC0C54F7F07BFF7A3979CE123FC1
:1032230060900288E0FF20E30F30CC0C4408F07B71
:09323300FF7A3979DB123F6022B9
:06411000123F24023DD025
:1027AD004D4B2D3120446F776E0D0A004D4B2D3161
:1027BD002055700D0A004D4B2D3220446F776E0D54
:1027CD000A004D4B2D322055700D0A004D4B2D3307
:1027DD0020446F776E0D0A004D4B2D332055700D33
:1027ED000A004D4B2D3420446F776E0D0A004D4B72
:1027FD002D342055700D0A004D4B2D3520446F772B
:10280D006E0D0A004D4B2D352055700D0A004D4BA8
:10281D002D3620446F776E0D0A004D4B2D36205509
:10282D00700D0A004D4B2D3720446F776E0D0A0049
:10283D004D4B2D372055700D0A004D4B2D38204432
:10284D006F776E0D0A004D4B2D382055700D0A0017
:10285D004D4B2D3920446F776E0D0A004D4B2D39A0
:10286D002055700D0A004D4B2D313020446F776E81
:10287D000D0A004D4B2D31302055700D0A004D4B7A
:10288D002D313120446F776E0D0A004D4B2D3131B6
:10289D002055700D0A004D4B2D313220446F776E4F
:1028AD000D0A004D4B2D31322055700D0A004D4B48
:1028BD002D313320446F776E0D0A004D4B2D313382
:1028CD002055700D0A004D4B2D313420446F776E1D
:1028DD000D0A004D4B2D31342055700D0A004D4B16
:1028ED002D313520446F776E0D0A004D4B2D31354E
:1028FD002055700D0A004D4B2D313620446F776EEB
:0E290D000D0A004D4B2D31362055700D0A007D
:09407000420286000041028500B5
:103DF800E4900213F0A37403F0A37401F0E4A3F0B9
:103E0800A3F0A37444F0A37480F0A37401F0FB7AC8
:083E18000279137F02021BB7BF
:10338E00EF900214704C74C8F09002137401F0FBAD
:10339E007A027913E4FF121EAF9002147480F0903B
:1033AE0002137401F0FB7A027913FF121EAF900222
:1033BE00147430F09002137403F07B017A027913C7
:1033CE00FF121EAF9002147403F0900213F07B01F3
:1033DE00804B74C8F0E4900213F07B017A027913EB
:1033EE00FF121EAF9002147480F0E4900213F07B73
:1033FE00017A0279137F01121EAF9002147430F01D
:10340E009002137401F0FB7A0279137F03121EAF40
:10341E009002147403F09002137401F0FB7A027997
:06342E00137F04121EAF23
:013434002275
:10249E00E490020FF0A3F0FF12338E0000D2B4C20C
:1024AE00B5C2C0C2C1C283C286C287C297000090A5
:1024BE00020FE0308308F0A3E04401F08006F0A3A1
:1024CE00E054FEF090020FE0308608F0A3E04402E4
:1024DE00F08006F0A3E054FDF090020FE030870884
:1024EE00F0A3E04404F08006F0A3E054FBF0900269
:1024FE000FE0309708F0A3E04408F08006F0A3E068
:10250E0054F7F0C2B4D2B5C2C0C2C1C283C286C231
:10251E0087C297000090020FE0308308F0A3E044DA
:10252E0010F08006F0A3E054EFF090020FE030863A
:10253E0008F0A3E04420F08006F0A3E054DFF09012
:10254E00020FE0308708F0A3E04440F08006F0A3CD
:10255E00E054BFF090020FE0309708F0A3E0448003
:10256E00F08006F0A3E0547FF0C2B4C2B5D2C0C270
:10257E00C1C283C286C287C297000090020FE030AC
:10258E0083044401800254FEF0A3E0F090020FE0B9
:10259E003086044402800254FDF0A3E0F090020F56
:1025AE00E03087044404800254FBF0A3E0F0900274
:1025BE000FE03097044408800254F7F0A3E0F0C215
:1025CE00B4C2B5C2C0D2C1C283C286C287C297008E
:1025DE000090020FE03083044410800254EFF0A309
:1025EE00E0F090020FE03086044420800254DFF0C9
:1025FE00A3E0F090020FE03087044440800254BF05
:10260E00F0A3E0F090020FE0309704448080025473
:10261E007FF0A3E0F0C2B4C2B5C2C0C2C1C283C2D1
:0F262E0086C287C297000090020FE0FEA3E0FF74
:01263D00227A
:1022FD00E490020FF0A3F07F0112338E0000C2B400
:10230D00C2B5C2C0C2C1D283C286C287C297000005
:10231D0090020FE030B408F0A3E04401F08006F025
:10232D00A3E054FEF090020FE030B508F0A3E044B6
:10233D0010F08006F0A3E054EFF090020FE030C0F3
:10234D00044401800254FEF0A3E0F090020FE0304F
:10235D00C1044410800254EFF0A3E0F0C2B4C2B542
:10236D00C2C0C2C1C283D286C287C297000090028A
:10237D000FE030B408F0A3E04402F08006F0A3E0D3
:10238D0054FDF090020FE030B508F0A3E04420F0CA
:10239D008006F0A3E054DFF090020FE030C004445B
:1023AD0002800254FDF0A3E0F090020FE030C10472
:1023BD004420800254DFF0A3E0F0C2B4C2B5C2C025
:1023CD00C2C1C283C286D287C297000090020FE0BD
:1023DD0030B408F0A3E04404F08006F0A3E054FB11
:1023ED00F090020FE030B508F0A3E04440F0800615
:1023FD00F0A3E054BFF090020FE030C0044404801D
:10240D000254FBF0A3E0F090020FE030C104444011
:10241D00800254BFF0A3E0F0C2B4C2B5C2C0C2C1C5
:10242D00C283C286C287D297000090020FE030B4FB
:10243D0008F0A3E04408F08006F0A3E054F7F09014
:10244D00020FE030B508F0A3E04480F08006F0A361
:10245D00E0547FF090020FE030C004440880025435
:10246D00F7F0A3E0F090020FE030C1044480800249
:10247D00547FF0A3E0F0C2B4C2B5C2C0C2C1C283E2
:10248D00C286C287C297000090020FE0FEA3E0FF54
:01249D00221C
:1017E90012249E90020BEEF0A3EFF01222FD90025C
:1017F9000BE04EFEA3E04FFFA3EEF0A3EFF0900243
:1018090086E0FEA3E0F4FFEEF4EF30E01090020E64
:10181900E030E0097BFF7A2779AD123F60900287BB
:10182900E030E01890020DE0FEA3E0F4FFEEF4EFE3
:1018390030E0097BFF7A2779B9123F60900286E090
:10184900FEA3E0F4FFEEF4EF30E11090020EE03079
:10185900E1097BFF7A2779C3123F60900287E03064
:10186900E11890020DE0FEA3E0F4FFEEF4EF30E1A1
:10187900097BFF7A2779CF123F60900286E0FEA3A9
:10188900E0F4FFEEF4EF30E21090020EE030E209EE
:101899007BFF7A2779D9123F60900287E030E218FE
:1018A90090020DE0FEA3E0F4FFEEF4EF30E2097BD5
:1018B900FF7A2779E5123F60900286E0FEA3E0F403
:1018C900FFEEF4EF30E31090020EE030E3097BFF06
:1018D9007A2779EF123F60900287E030E31890028F
:1018E9000DE0FEA3E0F4FFEEF4EF30E3097BFF7AAD
:1018F9002779FB123F60900286E0FEA3E0F4FFEE39
:10190900F4EF30E41090020EE030E4097BFF7A280E
:101919007905123F60900287E030E41890020DE0EB
:10192900FEA3E0F4FFEEF4EF30E4097BFF7A2879B7
:1019390011123F60900286E0FEA3E0F4FFEEF4EF9F
:1019490030E51090020EE030E5097BFF7A28791B1B
:10195900123F60900287E030E51890020DE0FEA387
:10196900E0F4FFEEF4EF30E5097BFF7A28792712DE
:101979003F60900286E0FEA3E0F4FFEEF4EF30E66C
:101989001090020EE030E6097BFF7A287931123F88
:1019990060900287E030E61890020DE0FEA3E0F4C3
:1019A900FFEEF4EF30E6097BFF7A28793D123F60BC
:1019B900900286E0FEA3E0F4FFEEF4EF30E710902A
:1019C900020EE030E7097BFF7A287947123F6090E1
:1019D9000287E030E71890020DE0FEA3E0F4FFEE85
:1019E900F4EF30E7097BFF7A287953123F609002C0
:1019F90086E0FEEEF430E01190020DE0A330E0093C
:101A09007BFF7A28795D123F60900286E030E0140E
:101A190090020DE0FEA3EEF430E0097BFF7A28790D
:101A290069123F60900286E0FEEEF430E111900207
:101A39000DE0A330E1097BFF7A287973123F6090AA
:101A49000286E030E11490020DE0FEA3EEF430E1ED
:101A5900097BFF7A287980123F60900286E0FEEECA
:101A6900F430E21190020DE0A330E2097BFF7A28FD
:101A7900798B123F60900286E030E21490020DE00B
:101A8900FEA3EEF430E2097BFF7A287998123F60D1
:101A9900900286E0FEEEF430E31190020DE0A330EF
:101AA900E3097BFF7A2879A3123F60900286E03030
:101AB900E31490020DE0FEA3EEF430E3097BFF7A14
:101AC9002879B0123F60900286E0FEEEF430E4110E
:101AD90090020DE0A330E4097BFF7A2879BB123F1D
:101AE90060900286E030E41490020DE0FEA3EEF46B
:101AF90030E4097BFF7A2879C8123F60900286E0BA
:101B0900FEEEF430E51190020DE0A330E5097BFF0C
:101B19007A2879D3123F60900286E030E51490026A
:101B29000DE0FEA3EEF430E5097BFF7A2879E01297
:101B39003F60900286E0FEEEF430E61190020DE07F
:101B4900A330E6097BFF7A2879EB123F6090028681
:101B5900E030E61490020DE0FEA3EEF430E6097BD6
:101B6900FF7A2879F8123F60900286E0FEEEF430A1
:101B7900E71190020DE0A330E7097BFF7A29790389
:101B8900123F60900286E030E71490020DE0FEA358
:101B9900EEF430E7097BFF7A297910123F60900251
:0D1BA9000DE0FFA3E0900286CFF0A3EFF067
:011BB600220C
:103F9900900285E004F0E0C394144005E4F01217A0
:023FA900E9220B
:0840F200E4FF12338E023DF8D9
:1032E5009000011206E4FFE5DE54F04FF5DE900094
:1032F500021206E4B4010543BC80800353BC7F90F1
:1033050000031206E4B4010543DE20800353DEDF2B
:103315009000051206E4B40104D2AD8002C2AD905E
:1033250000041206E4FFD39403505DEF700553B714
:10333500DFC2BDEFB4010553B7DFD2BDEFB402055F
:1033450043B720C2BDEFB4030543B720D2BD120673
:10335500CBFFD3941F50319000061206E4FED394A0
:103365000150259000071206E4FDD394035019433C
:10337500BA80EDC43354E0FDEEC433333354804D8D
:093385004F90FEA8F053BA7F221C
:0C000E00EFB4010443BC802253BC7F22ED
:1038A300EFD3940F4002806BE4F5BDF5BEE5BC5445
:1038B300F044404FF5BC0000000000000000000091
:1038C300E4FDE5BC30E54753BCDFE5DEAFBD30E5E5
:1038D3000DEFFEACBEECFBEBFF90021980229002D1
:1038E30019E4F0A3EFF0E5BEC4540FFBE0C4F854B1
:1038F3000FC868FF900219E0C454F048FEEF4BFF75
:10390300EEF0A3EFF0900219E0FEA3E0FF220DED2D
:07391300B4FAAF7E107F0043
:01391A00228A
:03002B00020026AA
:0400260053BCDF32B6
:0F4002007D607C09ED1D70011C144C70F7DFF11F
:01401100228C
:0E407A00E4F5C7F5C5F5C675C3FF75C4FF2292
:0700A600ECF5C3AF058FC4A8
:1000AD00A2AF92D5C2AF75C65A75C6A50000A2D52E
:0300BD0092AF22DD
:10006600AD07AC0675C78075F51875C5011200A6F3
:10007600E5C21207110DBD00010C740129F9E43A1D
:10008600FA90027474FFF5F01207E245F070DE0292
:02009600407AAE
:103F3A00AD07AC0675C78075F51875C5031200A6DE
:033F4A0002407AB8
:103C0F00AD07AC0675C78075F51875C502ECF5C321
:103C1F00AF058FC41206CBF5C21200AD0DBD00016A
:103C2F000C740129F9E43AFA90027B74FFF5F01253
:093C3F0007E245F070D702407A5B
:101EAF00EFD3940740037F01221206CBFED3940396
:101EBF0040037F0222EF7041EE700B90000112067B
:101ECF00E4F4529352941206CBB4010B900001121A
:101EDF0006E44293F452941206CBFEB4020A900029
:101EEF00011206E442934294EEB4030D90000112E6
:101EFF0006E4FEF45293EE4294EF6401704312062F
:101F0F00CBFE700B9000011206E4F452915292EE48
:101F1F00B4010B9000011206E44291F452921206A2
:101F2F00CBB4020A9000011206E4429142921206CB
:101F3F00CBB4030D9000011206E4FEF45291EE4271
:101F4F0092EF640270431206CBFE700B90000112E9
:101F5F0006E4F452955296EEB4010B90000112066E
:101F6F00E44295F452961206CBB4020A9000011285
:101F7F0006E4429542961206CBB4030D900001126F
:101F8F0006E4FEF45295EE4296EF64037043120698
:101F9F00CBFE700B9000011206E4F452B152B2EE78
:101FAF00B4010B9000011206E442B1F452B21206D2
:101FBF00CBB4020A9000011206E442B142B21206FB
:101FCF00CBB4030D9000011206E4FEF452B1EE42C1
:101FDF00B2EF640470431206CBFE700B9000011237
:101FEF0006E4F452B352B4EEB4010B9000011206A2
:101FFF00E442B3F452B41206CBB4020A90000112B9
:10200F0006E442B342B41206CBB4030D90000112A2
:10201F0006E4FEF452B3EE42B4EF640570431206C9
:10202F00CBFE700B9000011206E4F452C952CAEEB7
:10203F00B4010B9000011206E442C9F452CA120611
:10204F00CBB4020A9000011206E442C942CA12063A
:10205F00CBB4030D9000011206E4FEF452C9EE4218
:10206F00CAEF640670431206CBFE700B900001128C
:10207F0006E4F452CB52CCEEB4010B9000011206E1
:10208F00E442CBF452CC1206CBB4020A90000112F8
:10209F0006E442CB42CC1206CBB4030D90000112E2
:1020AF0006E4FEF452CBEE42CCEF64077043120607
:1020BF00CBFF700B9000011206E4F452E152E2EFF5
:1020CF00B4010B9000011206E442E1F452E2120651
:1020DF00CBB4020A9000011206E442E142E212067A
:1020EF00CBB4030D9000011206E4FFF452E1EF426E
:0420FF00E27F00225A
:102A850043BA809000021206E46401704190FE8012
:102A9500E04440F090FE82E4F09000031206E490DA
:102AA500FE817006E0547FF08004E04480F0120659
:102AB500CB543FFF90FE80E054C04FF090000412CD
:102AC50006E490FE88B40103022B5A022B5490FEB3
:102AD50080E054BFF090FE84E4F09000051206E417
:102AE50090FE83B40106E04440F08004E054BFF05A
:102AF5009000061206E490FE83B40106E04420F03F
:102B05008004E054DFF09000071206E490FE83B4E1
:102B15000106E04410F08004E054EFF09000081244
:102B250006E490FE83B40106E04408F08004E05416
:102B3500F7F09000091206E425E0FF90FE85E054C9
:102B4500014FF090000A1206E490FE85B40106E0FC
:102B550054FEF08004E04401F090000B1206E4FFFF
:102B6500E5BA54CF4FF5BA9000011206E490FE8005
:102B75007006E0547FF08004E04480F053BA7F2271
:0C40B20090FE82E030E6F9E054BFF022FE
:0940E00090FE817401F00240B26F
:0E40880090FE86EFF090FE817402F00240B2CE
:103EAC00AE0743BA801240E07FA2124088123EC196
:053EBC00AF0612408872
:093EC10090FE817403F00240B28E
:0F40320090FE817404F01240B290FE87E0FF22EE
:0E40960090FE82E4F090FE817405F00240B2CC
:0F40410090FE827401F090FE817405F00240B28F
:0940E90090FE817406F00240B261
:103C810090022AEBF0A3EAF0A3E9F0123EAC900215
:103C91002AE0FBA3E475F0011207F8A9F0FA120675
:103CA100CBFF124088123EC190022DE014F070DE6D
:073CB1001240E953BA7F2223
:103C4800123EAC1240E07FA3124088123EC11240DF
:103C580032EF120711740129F9E43AFA90022DE0C3
:103C68006401600312409690022DE014F070DF1298
:093C780040411240E953BA7F22D9
:0300C300023F4DAC
:073F4D00C0D075D000C007D1
:073F5400AFBA43BA808FBA37
:053F5B00D007D0D032B8
:100AD400EF64016003020DA043BA8090002912065E
:100AE400E4FED394035027EE700653B6FB53B5FBD4
:100AF400EEB4010653B6FB43B504EEB4020643B6A6
:100B04000453B5FBEEB4030643B60443B5049000A6
:100B14002A1206E4FED394035027EE700653B6F768
:100B240053B5F7EEB4010653B6F743B508EEB40275
:100B34000643B60853B5F7EEB4030643B60843B507
:100B44000890002B1206E4FED394035027EE70069F
:100B540053EEEF53DFEFEEB4010653EEEF43DF1035
:100B6400EEB4020643EE1053DFEFEEB4030643EE99
:100B74001043DF1090002C1206E4FED39403502798
:100B8400EE700653EEDF53DFDFEEB4010653EEDF03
:100B940043DF20EEB4020643EE2053DFDFEEB4035E
:100BA4000643EE2043DF2090FECCE4F0A3F01206CF
:100BB400CBFE90FEC8E0548F4EF09000011206E484
:100BC400FE90FEC9E0548F4EF09000021206E4FE3F
:100BD40090FECAE0548F4EF09000031206E4FE909B
:100BE400FECBE0548F4EF09000271206E490FEC82E
:100BF400B40106E04408F08004E054F7F0900028C3
:100C04001206E490FEC8B40106E04404F08004E057
:100C140054FBF090001B1206E490FECCB40106E0F5
:100C24004401F08004E054FEF090001C1206E490AD
:100C3400FECCB40106E04404F08004E054FBF090E0
:100C4400001D1206E490FECCB40106E04410F080CE
:100C540004E054EFF090001E1206E490FECCB401C0
:100C640006E04440F08004E054BFF090001F1206F8
:100C7400E490FECDB40106E04401F08004E054FEAB
:100C8400F09000201206E490FECDB40106E0440486
:100C9400F08004E054FBF09000211206E490FECDB5
:100CA400B40106E04410F08004E054EFF090002218
:100CB4001206E490FECDB40106E04440F08004E066
:100CC40054BFF0900008120839FD90FED2E5F0F010
:100CD400A3EDF090000A120839FD90FED5E5F0F07E
:100CE400A3EDF090000C120839FD90FED7E5F0F06A
:100CF400A3EDF090000E120839FD90FED9E5F0F056
:100D0400A3EDF0900010120839FD90FEDBE5F0F041
:100D1400A3EDF090002F1206E490FEC17007E0549A
:100D2400FEFEF08005E04401FEF090FEC1EEF0907E
:100D340000301206E490FEB2F090002E1206E49009
:100D4400FEB1F090001A1206E490FEDEF09000323C
:100D54001206E490FEDDB40106E04410F08004E0E5
:100D640054EFF09000331206E490FEDDB40106E087
:100D74004480F08004E0547FF09000311206E49047
:100D8400FEC0B40106E04401F08004E054FEF0909B
:100D940000341206E4FF90FED0020F7BEF64026081
:100DA40003020F8643BA8090002D1206E4FFD39409
:100DB400035027EF700653EEBF53DFBFEFB40106B5
:100DC40053EEBF43DF40EFB4020643EE4053DFBFB0
:100DD400EFB4030643EE4043DF4090FEECE4F0A39F
:100DE400F09000041206E4FF90FEE8E0548F4FF008
:100DF4009000051206E4FF90FEE9E0548F4FF09056
:100E040000061206E4FF90FEEAE0548F4FF09000D3
:100E1400071206E4FF90FEEBE0548F4FF09000279A
:100E24001206E490FEE8B40106E04408F08004E011
:100E340054F7F09000281206E490FEE8B40106E0AE
:100E44004404F08004E054FBF09000231206E49084
:100E5400FEECB40106E04401F08004E054FEF0909E
:100E640000241206E490FEECB40106E04410F08085
:100E740004E054EFF09000251206E490FEEDB40176
:100E840006E04401F08004E054FEF09000261206CF
:100E9400E490FEEDB40106E04410F08004E054EF69
:100EA400F0900008120839FF90FEF2E5F0F0A3EF8D
:100EB400F0900012120839FF90FEF5E5F0F0A3EF70
:100EC400F0900014120839FF90FEF7E5F0F0A3EF5C
:100ED400F0900016120839FF90FEF9E5F0F0A3EF48
:100EE400F0900018120839FF90FEFBE5F0F0A3EF34
:100EF400F090002F1206E490FEC17007E054FEFF4C
:100F0400F08005E04401FFF090FEC1EFF090003066
:100F14001206E490FEB6F090002E1206E490FEB5A0
:100F2400F090001A1206E490FEFEF09000321206D1
:100F3400E490FEFDB40106E04410F08004E054EFB8
:100F4400F09000331206E490FEFDB40106E0448004
:100F5400F08004E0547FF09000311206E490FEE04B
:100F6400B40106E04401F08004E054FEF090003443
:100F74001206E4FF90FEF0E4F0A3EFF053BA7F7F93
:050F840000227F0222A3
:1037210043BA80EF6401703912080EFF90FED5E5AF
:10373100F0F0A3EFF0900002120839FF90FED7E5F8
:10374100F0F0A3EFF0900004120839FF90FED9E5E4
:10375100F0F0A3EFF0900006120839FF90FEDB8035
:103761003A900008120839FF90FEF5E5F0F0A3EF5A
:10377100F090000A120839FF90FEF7E5F0F0A3EF90
:10378100F090000C120839FF90FEF9E5F0F0A3EF7C
:10379100F090000E120839FF90FEFBE5F0F0A3EF68
:0537A100F053BA7F2285
:103570009000011206E4B4010553CE7F800343CED0
:10358000801206CBB4010543CE40800353CEBF90DA
:1035900000021206E4B4010543CE20800353CEDFBF
:1035A0009000031206E4700553CEEF800343CE1063
:1035B0009000041206E4B4010543CE08800353CE04
:1035C000F79000051206E4700543CE04800353CE45
:1035D000FB9000061206E4B4010543AF02800353DA
:1035E000AFFD9000071206E45403FFE5CE54FC4FF4
:1035F000F5CE9000081206E4FFE5A254F34FF5A2C1
:08360000E4900108F0C2092268
:103FF100EF700753CEEF53CE7F2243CE1043CE80D6
:01400100229C
:0840FA008FCFD2092009FD223D
:03004B00023A4630
:103A4600C0E0C083C082C0D075D000C007E5CE30CC
:103A5600E404C2098025900107E0C394804002E493
:103A6600F0900107E0FF04F074092FF582E43401B9
:103A7600F583E5CFF09001087405F075CDC0D00749
:093A8600D0D0D082D083D0E03210
:03000B00023B991C
:103B9900C0E0C0F0C083C082C0D075D000C000C0F2
:103BA90001C002C003C004C005C006C007123183AA
:103BB900D007D006D005D004D003D002D001D00060
:0B3BC900D0D0D082D083D0F0D0E0320A
:03001B0002001AC6
:01001A0032B3
:03006300023BD489
:103BD400C0E0C0F0C083C082C0D075D000C000C0B7
:103BE40001C002C003C004C005C006C007123F994B
:103BF400D007D006D005D004D003D002D001D00025
:0B3C0400D0D0D082D083D0F0D0E032CE
:03009B0002002A36
:01002A0032A3
:0300A300020098C0
:010098003235
:101BB700AD07EDD3940440037F0122ED6003021CBF
:101BC70079C28C9000021206E4B40104D2A9800203
:101BD700C2A99000011206E4FED3940340037F02DA
:101BE70022EE700553B7FDC2B99000011206E4B4A6
:101BF700010553B7FDD2B99000011206E4FFB40204
:101C07000543B702C2B9EFB4030543B702D2B9120D
:101C170006CBFEC3940340037F0222E58954FC4EA2
:101C2700F5899000031206E4FFB40103538E7FEF9A
:101C37007003438E80EFB402054389048003538900
:101C4700FB9000041206E4B40105438F018003539F
:101C57008FFE900005120839E5F0F58C900005120B
:101C67000839F58A9000071206E4B40102D28C7F86
:101C77000022ED64016003021D37C28E900002123C
:101C870006E4B40104D2AB8002C2AB900001120695
:101C9700E4FED3940340037F0222EE700553B7F7A7
:101CA700C2BB9000011206E4B4010553B7F7D2BBDB
:101CB7009000011206E4FFB4020543B708C2BBEF68
:101CC700B4030543B708D2BB1206CBFEC394034047
:101CD700037F0222EEC454F0FFE58954CF4FF58904
:101CE7009000031206E4FFB40103538EBFEF7003A5
:101CF700438E40EFB4020543894080035389BF9068
:101D070000041206E4B40105438F028003538FFDDC
:101D1700900005120839E5F0F58D90000512083995
:101D2700F58B9000071206E4B40102D28E7F0022E1
:101D3700ED64027078538EEF9000021206E4B4014E
:101D47000543AF04800353AFFB9000031206E4FE84
:101D5700D3940240037F0222EEB40103538EFB901B
:101D670000031206E47003438E049000031206E496
:101D7700B40205438E088003538EF79000041206C1
:101D8700E4B40105438F048003538FFB90000512D1
:101D97000839E5F0F5D6900005120839F5D7900017
:101DA700071206E4B40103438E107F0022ED64039B
:101DB700707853D1F79000021206E4B4010543AFDF
:101DC70020800353AFDF9000031206E4FED3940292
:101DD70040037F0222EEB4010353D1FD90000312AA
:101DE70006E4700343D1029000031206E4B402052F
:101DF70043D104800353D1FB9000041206E4B401DD
:101E07000543D101800353D1FE900005120839E53F
:101E1700F0F5D4900005120839F5D59000071206A1
:101E2700E4B4010343D1087F0022ED6404707653C4
:101E3700D17F9000021206E4B4010543AF4080034E
:101E470053AFBF9000031206E4FED3940240037F12
:101E57000222EEB4010353D1DF9000031206E470AF
:101E67000343D1209000031206E4B4020543D14096
:101E7700800353D1BF9000041206E4B4010543D197
:101E870010800353D1EF900005120839FDACF0EC38
:101E9700F5D2AF058FD39000071206E4B4010343D0
:081EA700D1807F00227F02229E
:0B21030090021FEBF0A3EAF0A3E9F04C
:10210E00EF640160030222FA90000004F0E4A3F0F1
:10211E00A3F0A3F0A3F0A3F0A3F07F80900087E4D8
:10212E00F0A3DFFC7F80900007E4F0A3DFFC9002B9
:10213E001FE0FBA3E0FAA3E0F990000A1206E4FE0A
:10214E00D3940340037F0222EE700553B7EFC2BC57
:10215E0090000A1206E4B4010553B7EFD2BC90000A
:10216E000A1206E4FFB4020543B710C2BCEFB40373
:10217E000543B710D2BC1206CBD394C040037F02E6
:10218E00221206CBFFE598543F4FF598EF64C060DE
:10219E0008EF644060030222859000021209EB7F73
:1021AE00807E8D7D5B7C00120927900222120A1B15
:1021BE00E4FFFE7D01FC900222E0F8A3E0F9A3E02B
:1021CE00FAA3E0FBC31209C740037F02229002224A
:1021DE00E0F8A3E0F9A3E0FAA3E0FBC3E49BFFE47D
:1021EE009AFE740199FDE498FC900222120A1B904B
:1021FE00021FE0FBA3E0FAA3E0F99000011206E44F
:10220E00FB64017038C28E538EFE5389BF5389CF43
:10221E00438E40900222E0FCA3E0FDA3E0FEA3E08B
:10222E00FF78081209D88F8D900222A3A3A3E0F5A0
:10223E008BC2AB5389BF538FFDD28E8073EB64027A
:10224E007032538EEF438E01538EF7438E049002FD
:10225E0022E0FCA3E0FDA3E0FEA3E0FF7808120954
:10226E00D88FD6900222A3A3A3E0F5D753AFFB439A
:10227E008E10803C7F022290021FE0FBA3E0FAA3A7
:10228E00E0F91206CBFF70139000081206E4B401B9
:10229E0005438E20801A538EDF8015EFB480119087
:1022AE0000081206E4B40105438780800353877F3C
:1022BE0090021FE0FBA3E0FAA3E0F99000091206DA
:1022CE00E4B40104D2AC8002C2AC9000071206E462
:1022DE00B40104D29C8002C29C90000B1206E454FE
:0E22EE00C0FFE5A2543F4FF5A27F00227F0201
:0122FC0022BF
:103E2000900002E02487F582E43400F583EFF090FF
:103E30000002E004F0C394804002E4F0900003E04C
:073E4000700404F0D2992286
:103F60001206CBFF600C123E20740129F9E43AFAE4
:033F700080EE22BE
:030023000237A6FB
:1037A600C0E0C083C082C0D075D000C006C007305C
:1037B600982DC298900006E07025900004E0C3940E
:1037C600804002E4F0900004E0FF04F074072FF557
:1037D60082E43400F583E599F09000057405F03035
:1037E6009930C299900002E0FF900001E0FE6F6000
:1037F6001C74872EF582E43400F583E0F599900079
:1038060001E004F0C394804009E4F08005900003D1
:0F381600E4F0D007D006D0D0D082D083D0E032FB
:103FAB0000000417049705270575062006E007B8DF
:023FBB000310F1
:074102005393FE43940122D8
:0F4012007D067C00ED1D70011C144C70F7DFF172
:01402100227C
:052C7E0090021DEDF0C5
:102C8300EF25E024ABF582E4343FF583E493FE744F
:102C93000193FF900255EEF0A3EFF09002247460CD
:102CA300F0E4900254F0AB07AA06F9F8FF7E367DF4
:102CB3006E7C01123AD4EF24FFFFEE34FF9002281A
:102CC300F0A3EFF0E490023AF090024E04F0900289
:102CD3005004F090024314F0900253F0900251F02C
:102CE300FB7A0279207F02120AD4900255E0FEA3F8
:102CF300E0FBAA06E4F9F8FF7E367D6E7C01123A0A
:102D0300D4EF24FFFFEE34FFFEED34FFFDEC34FF80
:102D1300FC120364E4FBFAF9783F1201BE1203A22A
:102D230090025FEEF0A3EFF07B017A0279577F0206
:102D330012372190021DE0FF7E007C007D7D12078B
:102D430045A3EEF0A3EFF090021E74FFF5F0120717
:102D5300F845F060077F0112400280EBE4900253D4
:102D6300F0900251F07B017A0279207F02020AD4AB
:0B39E600900213EBF0A3EAF0A3E9F05D
:1039F100E490021BF0A3F0900219E0FEA3E0FFA304
:103A0100E0FCA3E0FDC39FEC9E5039900213E0FB64
:103A1100A3E0FAA3E0F98D828C831206E4FF900201
:103A210016E0FBA3E0FAA3E0F98D828C831206E491
:103A3100FD122C7E90021CE004F070BB90021BE092
:043A410004F080B35A
:013A4500225E
:103ECA00C0F9A4B0999282F880907FBF8883C6A176
:083EDA00868E89F1C78C98C1A6
:103F730053B3EF43B41053B3F743B40853B3FB4302
:033F8300B4042261
:053CEF0090021FEFF040
:103CF40074CA2DF9E4343EFA7BFF1206CBFF12009E
:103D04002E90021FE0FFF87401088002C333D8FC30
:0C3D1400FF12002EC2C30000D2C300004A
:013D20002280
:10002E007E08EF30E704D2C48002C2C40000EF2580
:0C003E00E0FFC2C20000D2C20000DEE6FB
:01004A002293
:103E4700E4FD7FFF12002EA8057401088002C3332A
:103E5700D8FCFF12002EC2C30000D2C300000DED34
:033E6700B408DFBD
:013E6A002235
:103F860053B1FB53B20453B1F753B20853B1EF53D5
:033F9600B2102244
:0B2D730090021FEBF0A3EAF0A3E9F0D0
:102D7E007B017A02792290022D7407F07F02123CB9
:102D8E0048900222E0FFC4540775F00AA4FEEF54E7
:102D9E000F2EFF90021FE0FBA3E0FAA3E0F99000D4
:102DAE0002EF120723900223E0FFC4540775F00AC6
:102DBE00A4FEEF540F2E900001120723900224E080
:102DCE00FFC4540375F00AA4FEEF540F2E12071120
:102DDE00900225E0FFC4540375F00AA4FEEF540FD1
:102DEE002EFF90021FE0FBA3E0FAA3E0F990000390
:102DFE00EF120723900226E05407900004120723D7
:102E0E00900227E0FFC4540175F00AA4FEEF540FA0
:102E1E002E900005120723900228E0C4540F75F07F
:102E2E000AA4FFE0540F7C002FFFEC35F090000653
:102E3E008FF01208BE900227E0C41313135401241E
:102E4E0013FFE433FE7D64120745900006EE8FF00B
:032E5E00020871F6
:10263E00E4900228F0900225E0FEA3E0FF7C037DEB
:10264E00E81207577E007F0ACFCDCFCECCCE120731
:10265E0057EFC4F8540FC868FFAB07900225E0FE91
:10266E00A3E0FF7C037DE81207577E007F0ACFCDE3
:10267E00CFCECCCE120757EB2DA3F0C3900226E09F
:10268E0094D0900225E0940740069002287401F041
:10269E007B017A02792790022D7401F07F08123C9B
:1026AE0081900224E0FF75F00A84C454F0FE90027B
:1026BE0028E0FDC433333354802EFEEF75F00A84C8
:1026CE00E5F02E900227F07B017A02792790022DF9
:1026DE007401F07F07123C81900223E075F00784AD
:1026EE00900227E5F0F07B017A02792790022D7493
:1026FE0001F07F06123C81900222E0FF75F00A8401
:10270E00C454F0FEEF75F00A84E5F02E900227F027
:10271E007B017A02792790022D7401F07F05123C1D
:10272E008190021FE0FF75F00A84C454F0FEEF752D
:10273E00F00A84E5F02E900227F07B017A027927C9
:10274E0090022D7401F07F04123C81900220E0FF74
:10275E0075F00A84C454F0FEEF75F00A84E5F02E8D
:10276E00900227F07B017A02792790022D7401F0F6
:10277E007F03123C81900221E0FF75F00A84C4545D
:10278E00F0FEEF75F00A84E5F02E900227F07B0143
:0F279E007A02792790022D7401F07F02023C81AC
:10291B00E3F2D8A8CDDAC380B99BB029A7259E8D49
:10292B00965C8E9087258017796373046CF8673BF0
:10293B0061CA5CA157BC53194EB44A8B469B42E00B
:10294B003F583C0138D735D9330530582DD02B6A39
:10295B002927270224FC231121411F8B1DEC1C630B
:10296B001AF019911844170A15E114C713BD12C1B7
:10297B0011D210F0101A0F500E900DDA0D2E0C8B89
:10298B000BF10B5E0AD30A4F09D3095C08EC0881E3
:10299B00081C07BA0761070A06B8066A062005D99C
:1029AB0005960556051A04E004A90475044404149D
:1029BB0003E803BD0394036D03480325030302E3FC
:1029CB0002C502A7028C02710258024002280212B1
:1029DB0001FD01E901D601C401B201A101910182FE
:1029EB00017301660158014B013E01320127011CA5
:1029FB000112010800FE00F500EC00E400DC00D43D
:102A0B0000CD00C600BF00B800B200AC00A600A00D
:102A1B00009B00960091008C00870083007E007A5B
:102A2B0000760073006F006B006800650061005E4C
:102A3B00005B0059005600530051004E004C004AF9
:102A4B000047004500430041003F003D003C003A79
:102A5B00003800370035003400320031002F002ED3
:102A6B00002D002B002A0029002800270026002516
:0A2A7B0000240023002200210020A7
:074109004393105394EF22D1
:10343500900219EBF0A3EAF0A3E9F0A3ECF0A3EDF9
:01344500F096
:1034460012080EC39DFFE5F09CFE1240CA900220B2
:10345600EEF0A3EFF0E4A3F090021F04F090021E3A
:09346600E0FFA3E0FEC39F5060EB
:10346F00900219E0FBA3E0FAA3E0F975F002EEA4D5
:10347F00F58285F083120839FF90021CE0FCA3E06F
:10348F00FDC3EF9DFFE5F09CFE1240CA900223EEB4
:10349F00F0A3EFF0D3900221E09F900220E09E4036
:1034AF0017900223E0FFA3E0900220CFF0A3EFF0EC
:0834BF0090021FE0900222F0D0
:0D34C70090021FE004F08094900222E0FFCC
:0134D40022D5
:103825007F0C1238A3900217EEF0A3EFF07C007D19
:103835000A120745AC06AD07E4120369E4FBFA7901
:10384500C878421201BEC004C005C006C007900278
:1038550017E0FCA3E0FDE4120369A804A905AA0684
:10386500AB07E4FFFE7D807C451200C9A804A905CD
:10387500AA06AB07D007D006D005D0041202C7129E
:1038850003A27BFF7A29791BAD07AC0690021E7453
:0D389500B5F0123435EF24C9FFE434FFFE16
:0138A2002203
:0F4022007D067C00ED1D70011C144C70F7DFF162
:01403100226C
:05001E007F01024022F9
:0940D600007F027E3CDEFEDFFCEF
:0140DF0022BE
:0C40BE00C2C67F14124002D2C60240D6D7
:103CB800E4FE30C60CEEC3946450060E12001E805B
:103CC800F1EEC3946440037F0122E4FE20C60CEEAB
:103CD800C3946450060E12001E80F1EEC394644033
:063CE800037F01227F00B2
:013CEE0022B3
:103D4F00E4FE30C60CEEC3946450060E12001E80C3
:103D5F00F1E4FE20C60CEEC3946450060E12001E52
:0D3D6F0080F11240D630C6037F01227F0094
:013D7C002224
:10004E00E4F9FBE925E0F9123D4FE94FF90BEBB46A
:04005E0008F1AF01F5
:01006200227B
:0B34D500900217EBF0A3EAF0A3E9F06F
:1034E0001240BE123CB8EF600302356AFA12004E79
:1034F000741A2AF582E43402F583EFF00AEAB4057F
:10350000EC90021BE0FF90021AE02FFFE433FE90E4
:10351000021CE07C002FFFEC3EFEA3E02FFFEC3E00
:10352000FEA3E06F7001EE704490021AE0FF90027B
:1035300017E0FBA3E0FAA3E0F9EF12071190021BDA
:10354000E0FF900217E0FBA3E0FAA3E0F99000018E
:10355000EF12072390021CE0900002120723900252
:0F3560001DE090000312072380037F01227F00EC
:01356F002239
:0E40A40053B3BF53B4BFD2C61240BE023CB8E5
:103FBD007B017A0279811234D5EF70F4900281E0A1
:013FCD00FFF4
:013FCE0022D0
:1030C6007B017A0279671234D5EF70F4900269E0D9
:1030D600547FFCE412036E90026B120A1B90026B83
:1030E600E0FCA3E0FDA3E0FEA3E0FFE4FBFA792009
:1030F60078411201BE90026B120A1B90026BE0F837
:10310600A3E0F9A3E0FAA3E0FBC000C001C002C03F
:103116000390026AE0FCE412036ED003D002D001F1
:10312600D0001200CD90026B120A1B90026BE0FCDD
:10313600A3E0FDA3E0FEA3E0FFE4FBFA79207841DB
:103146001202C790026B120A1B900269E030E71E5A
:1031560090026BE0FCA3E0FDA3E0FEA3E0FFE4FB2E
:10316600FA798078BF1201BE90026B120A1B900298
:0C3176006BE0FCA3E0FDA3E0FEA3E0FF83
:01318200222A
:1000C60002040EE86480F8E933E83360110460F056
:1000D600ED33EC337009E8FCE9FDEAFEEBFF2204A0
:1000E60060DED3EB9FEA9EE99DE8C2E78CF0C2F79B
:1000F60095F0400CE8CCF8E9CDF9EACEFAEBCFFB67
:100106001203D985D0F05804700320D5B3E80470E3
:10011600075002B2D502041892D5EC0460F7E4CC7D
:10012600C0E0C398F8603B94186008400DD0E0FB2F
:100136000203F0E4FBFAC9FC8028E830E406E4C9CF
:10014600FBE4CAFCE830E305E4C9CACBFCE8540783
:100156006010F8C3E913F9EA13FAEB13FBEC13FC8E
:10016600D8F130F52FC3E49CFCEF9BFFEE9AFEED31
:1001760099FDD0E0FBEF4E4D4C701222DB030204DA
:1001860015EC2CFCEF33FFEE33FEED33FDED30E7DF
:10019600EB0203F0EF2BFFEE3AFEED39FDD0E0FB6C
:1001A60050130BBB0003020418ED13FDEE13FEEF14
:0801B60013FFEC13FC0203F03F
:1001BE00EC4D6011E8497017ED33EC3304600DE43B
:1001CE00FCFFFEFD22E933E8330470F802040E1240
:1001DE0003D958046009E4CC248150062850090242
:1001EE000418284003020415C0E0EB4A7044B9809D
:1001FE0006D0E0FB020404EF4E701CBD8008EBFF3E
:10020E00EAFEE9FD80EBE98DF0A4FEE5F00202A71F
:10021E00E9CDF9EAFEEBFFEF89F0A4FCE5F0CE891B
:10022E00F0A42EFFE435F0CD89F0A42DFEE435F0D8
:10023E008067EF4E7005BD80D780C3EF8BF0A4AC06
:10024E00F0EE8BF0A42CFCE435F0F8EF8AF0A42C41
:10025E00E5F038FCE433CB8DF0A42CFCE5F03BF854
:10026E00EE8AF0A42CFCE5F038F8E433CF89F0A444
:10027E002CFCE5F038CF3400CE89F0A42FFFE5F04A
:10028E003EFEE433C98DF0A42EFEE5F039CD8AF0A2
:10029E00A42FFFE5F03EFEE43DFD33D0E0FB50071A
:1002AE000BBB000F020418EC2CFCEF33FFEE33FEF9
:0602BE00ED33FD0203F028
:1002C400020418EC5D046005E85904700302040E8E
:1002D4001203D9580460F6EC4860F2EC7004FDFE99
:1002E400FF22C860DB2481C85009C398600250060D
:1002F4000204159850CAF582E9294B4A7005AB826D
:1003040002040475F0007C1A7880C3EF9BEE9AED2A
:1003140099400DC3EF9BFFEE9AFEED99FDE842F084
:10032400DC23ACF0D0E0FFD0E0FED0E0FDAB8220D7
:10033400E7101BEB60BAEC2CFCEF33FFEE33FEED61
:1003440033FD0203F0E803F830E705C0F075F00070
:10035400EF2FFFEE33FEED33FD40B830E7C280AA45
:1003640075F020800E75F010800575F0087D007E14
:10037400007F003392D530D5031209B9EC33401015
:10038400EF33FFEE33FEED33FDEC33FCD5F0ED221D
:0E039400E5F0247EA2D513CC92E7CDCEFF2259
:1003A200EDD2E7CD33EC3392D524814006E4FFFE53
:1003B200FDFC22FCE4CFCECDCC24E0501174FF80B2
:1003C200EDC3CC13CCCD13CDCE13CECF13CF04704F
:0703D200F030D5DE0209B98D
:100F8900E5082422F582E43402F583E0050822907D
:100F9900021F300703900222E475F001120A580279
:100FA90006CB2000E97F2ED2008018EF540F249041
:100FB900D43440D4FF30040BEF24BFB41A005003DB
:100FC9002461FFE50960021509050CE50C700205AD
:100FD9000B30070E90021FE475F001120A58EF0258
:100FE90007110240507403D2078003E4C207F508D1
:100FF90090021F120A6FE4F509F50BF50CE509607B
:10100900077F20120FCC80F5750AFFC201C200C20A
:1010190002C203C205C206C208120F98FF700D3042
:1010290007057F00120FDDAF0CAE0B22B4255FC29E
:10103900D5C204120F98FF24D0B40A00501A75F0D3
:101049000A780930D50508B6FF0106C6A426F62098
:10105900D5047002D20380D924CFB41A00EF50040A
:10106900C2E5D2040212CFD20180C6D20080C0D21A
:101079000280BCD2D580BAD20580B47F20120FCCB1
:101089002002077401B5090040F1120F89FF120F00
:10109900CC021006D208D2068095120F89FB120FD6
:1010A90089FA120F89F94A4B700679CD7A137BFFB9
:1010B90020022EE509602A7E008E827583001206C1
:1010C900E460060EEE650A70F0C2D5EBC0E0EAC036
:1010D900E0E9C0E0EE121330D0E0F9D0E0FAD0E058
:1010E900FB1206CBFF60AAEBC0E0EAC0E0E9C0E072
:1010F900120FCCD0E02401F9D0E03400FAD0E0FBA3
:10110900E50A0460DCD50AD98087D20280A21213CD
:101119001260F7E50A700104120423A90A600DE5BB
:101129000A600914F50A1213BAEF60F3EA30E7020C
:10113900F404C3995079EAF4250A0430E701E40478
:10114900F50A800D12131260C1EA050A250A120474
:1011590023EA90024EF030E701E4250A04D50A0497
:1011690020050114121330E4C0E01213BA90024EA4
:10117900E0601320E70714F0120FB4802204F0D0C6
:10118900E014C0E07F00120FB4E50A6007120FAB4C
:10119900150A800B300503120FABD0E0021006D000
:1011A900E00480C4121312609EE50A04120423901D
:1011B900024EEAF0E50A2005026001042404121334
:0111C90030F5
:1011CA0074FF04C0E01213BA120FB4E50A20050234
:1011DA006003120FABD0E0B50AE87F45120FBE904C
:1011EA00024EE07F2B30E7047F2DF404C0E0120F9B
:1011FA00CCD0E075F00A84C0F0120FB5D0E0120F1F
:10120A00B5021006791080027908C206C208800861
:10121A00D2D5790A8004790AC2D5E50A047002F5A2
:10122A000AE4FAFDFEFF120F89FC7B082001131263
:10123A000F89FD7B1030000A120F89FE120F89FFF9
:10124A007B20EC3382D592D55013C3E43000069F3D
:10125A00FFE49EFEE42001039DFDE49CFCE4CBF840
:10126A00C201EC700CCFCECDCCE824F8F870F38034
:10127A0017C3EF33FFEE33FEED33FDEC33FCEB33F4
:10128A00FB994002FB0FD8E9EB300105F8D0E0C426
:10129A0048B201C0E00AEC4D4E4F78207B0070C284
:1012AA00EAB50A0040BCC0E0121332D0F0D0E02008
:1012BA000104C4C0E0C4B201C0F0120FB5D0F0D529
:1012CA00F0EB021006120A7810A353120E5810748B
:1012DA004C10704212124F121A44121A49108943C2
:1012EA00122055114D4611AD4511174713ED5010F7
:1012FA00782D107C2E109F2B108023109D2013D642
:10130A002A10384800001097E50AB4FF03750A0648
:10131A00120F89FC120F89FD120F89FE120F89FF25
:10132A00900247020460790AA2D520031430050905
:10133A00B910020404B9080104A2D520060250011A
:10134A00042002689202B509005034C0E07F2030C0
:10135A0003197F30A20272067205500F121389C256
:10136A0002C206C205C2087F30800F300503E9C0F9
:10137A00E0120FCC300503D0E0F9D0E0B509CC304B
:10138A0005177F30B9100C120FCC7F583004077F35
:10139A00788003B90803120FCC3002057F2D020FA3
:1013AA00CC7F202008F87F2B2006F322920280CFE0
:1013BA007F00B40700500B2447F582E43402F5831A
:1013CA00E0FF22286E756C6C2900D201120F893059
:1013DA0001F8C201780930D50108F60210382D50FB
:1013EA00434958120F892403B405004001E49013BD
:1013FA00E893120FBD743A120FBDD20375090402A5
:02140A00120EC0
:1003D900E9D2E7C933E833F892D5EDD2E7CD33EC6A
:0703E90033FC5002B2D522E3
:1003F000EC30E7100FBF000C0EBE00080DBD00046E
:100400000BEB6014A2D5EB13FCED92E7FD2274FF19
:10041000FCFDFEFF22E480F8A2D574FF13FC7D8072
:03042000E480EF86
:10042300F920E73624F950037907E4F42402FBE5C5
:1004330082158270021583DBF6E024FB501BE96012
:1004430014E4F0E582158270021583E004F0B40A27
:0D04530008E4F0D9EE7401F00A22C2D522AF
:10046000ED33EC3392D5FA602AB4FF33EDC2E77B6B
:10047000FF60067A047985E4227A04798E20D50417
:100480007A047989224E614E002B494E46002D494F
:100490004E4600E47A08F0A3DAFC7B00740722C021
:1004A00083C082ECC0E0EDC0E0EEC0E0EFC0E0EA67
:1004B00075F010A4CAABF075F04DA42BFBE435F039
:1004C000FCEA2410FAEB34C5FBEC34D9FCEDC2E7AE
:1004D000FF75F056A4F42411C5F0F434C58FF0A4D0
:1004E0002AE5F03BE43CF020E714120595D0E0FF4C
:1004F000D0E0FED0E0FDD0E0FC1202C78014F4048E
:10050000120595D0E0FFD0E0FED0E0FDD0E0FC1277
:1005100001BED082D083E0FAEDD2E7CD33EC3324B4
:1005200082FBE4C3CF33CFCE33CECD33CD33DBF339
:100530007B0775F00A846004F0A31B0AE5F0F0A3C2
:100540008FF0740AA4FFACF08EF0740AA42CFEACF9
:10055000F050010C8DF0740AA42CFDE435F0F0A3EA
:05056000DBDE74072240
:100565003F8000004120000042C80000447A00009E
:10057500461C400047C35000497424004B18968020
:100585004CBEBC205A0E1BCA6753C21C749DC5AE17
:10059500FB60065407601C23231205C3EB54386027
:1005A500091205AF1205BE1201BEECF8EDF9EEFA1F
:1005B500EFCB22EB1205BE80F1543803241C9005C5
:1005C50065FE93FC0EEE93FD0EEE930ECE93FF2289
:0300000002369530
:0C369500787FE4F6D8FD7581210236DC58
:1005D500E709F608DFFA8046E709F208DFFA803E08
:1005E50088828C83E709F0A3DFFA8032E309F608F5
:1005F500DFFA8078E309F208DFFA807088828C835D
:10060500E309F0A3DFFA806489828A83E0A3F60810
:10061500DFFA805889828A83E0A3F208DFFA804CEA
:1006250080D280FA80C680D4806980F280338010C1
:1006350080A680EA809A80A880DA80E280CA80332A
:1006450089828A83ECFAE493A3C8C582C8CCC583A2
:10065500CCF0A3C8C582C8CCC583CCDFE9DEE78072
:100665000D89828A83E493A3F608DFF9ECFAA9F0F1
:10067500EDFB2289828A83ECFAE0A3C8C582C8CC47
:10068500C583CCF0A3C8C582C8CCC583CCDFEADE60
:10069500E880DB89828A83E493A3F208DFF980CCC2
:1006A50088F0EF60010E4E60C388F0ED2402B404BB
:1006B5000050B9F582EB2402B4040050AF23234562
:0606C5008223900625735C
:1006CB00BB010689828A83E0225002E722BBFE022D
:0906DB00E32289828A83E4932260
:1006E400BB010CE58229F582E5833AF583E02250CB
:1006F40006E92582F8E622BBFE06E92582F8E22215
:0D070400E58229F582E5833AF583E493222E
:10071100BB010689828A83F0225002F722BBFE01C7
:02072100F322C1
:10072300F8BB010DE58229F582E5833AF583E8F00C
:10073300225006E92582C8F622BBFE05E92582C8B8
:02074300F222A0
:10074500EF8DF0A4A8F0CF8CF0A428CE8DF0A42EC8
:02075500FE2282
:10075700BC000BBE0029EF8DF084FFADF022E4CC86
:10076700F875F008EF2FFFEE33FEEC33FCEE9DEC4F
:10077700984005FCEE9DFE0FD5F0E9E4CEFD22ED95
:10078700F8F5F0EE8420D21CFEADF075F008EF2FDF
:10079700FFED33FD4007985006D5F0F222C398FDD0
:0507A7000FD5F0EA226D
:1007AC00C2D5EC30E709B2D5E4C39DFDE49CFCEE68
:1007BC0030E715B2D5E4C39FFFE49EFE120757C382
:1007CC00E49DFDE49CFC800312075730D507C3E47D
:0607DC009FFFE49EFE22D7
:1007E200C5F0F8A3E028F0C5F0F8E58215827002A2
:0607F2001583E038F0223F
:1007F800A3F8E0C5F025F0F0E582158270021583B4
:06080800E0C838F0E82210
:10080E00BB010A89828A83E0F5F0A3E022500687B5
:10081E00F009E71922BBFE07E3F5F009E319228977
:0B082E00828A83E493F5F074019322AA
:10083900BB0110E58229F582E5833AF583E0F5F0FD
:10084900A3E0225009E92582F886F008E622BBFEDA
:100859000AE92582F8E2F5F008E222E5832AF58320
:08086900E993F5F0A3E99322E5
:10087100BB010DC58229C582C5833AC5830207E242
:100881005011C58229F808E5F026F618F5F0E58241
:1008910036F622BBFE11C58229F808E225F0F5F0F3
:1008A100F218E23582F222F8E58229F582E5832AFF
:0D08B100F58374019325F0F5F0E4933822EF
:1008BE00F8BB0111E58229F582E5833AF583E8F06C
:1008CE00E5F0A3F0225009E92582C8F608A6F02229
:0D08DE00BBFE09E92582C8F2E5F008F22210
:1008EB0075F008758200EF2FFFEE33FECD33CDCCC4
:1008FB0033CCC58233C5829BED9AEC99E582984047
:10090B000CF582EE9BFEED9AFDEC99FC0FD5F0D623
:10091B00E4CEFBE4CDFAE4CCF9A88222B800C1B94D
:10092B000059BA002DEC8BF084CFCECDFCE5F0CB8B
:10093B00F97818EF2FFFEE33FEED33FDEC33FCEBC4
:10094B0033FB10D703994004EB99FB0FD8E5E4F97F
:10095B00FA227818EF2FFFEE33FEED33FDEC33FC6C
:10096B00C933C910D7059BE99A4007EC9BFCE99A60
:10097B00F90FD8E0E4C9FAE4CCFB2275F010EF2FA5
:10098B00FFEE33FEED33FDCC33CCC833C810D707A5
:10099B009BEC9AE899400AED9BFDEC9AFCE899F8E0
:0E09AB000FD5F0DAE4CDFBE4CCFAE4C8F92273
:103AD400C2D5E830E70FB2D5E4C39BFBE49AFAE41D
:103AE40099F9E498F8EC30E717B2D5123B0A1209B9
:103AF40027E4C39BFBE49AFAE499F9E498F8800379
:103B040012092730D50DE4C39FFFE49EFEE49DFD1A
:043B1400E49CFC220F
:0E09B900C3E49FFFE49EFEE49DFDE49CFC224F
:1009C700EB9FF5F0EA9E42F0E99D42F0E89C45F086
:0109D70022FD
:1009D800E8600FECC313FCED13FDEE13FEEF13FFFD
:0309E800D8F12221
:1009EB00BB010DE58229F582E5833AF583020AAB5B
:1009FB005007E92582F8020A9EBBFE07E92582F81B
:100A0B00020AB7E58229F582E5833AF583020AC427
:0C0A1B00ECF0A3EDF0A3EEF0A3EFF0224E
:100A2700A8828583F0D083D082120A3E120A3E1232
:100A37000A3E120A3EE473E493A3C583C5F0C58357
:100A4700C8C582C8F0A3C583C5F0C583C8C582C819
:010A5700227C
:100A5800F8E0FBA3A3E0F925F0F0E5821582700227
:070A68001583E0FA38F022CB
:090A6F00EBF0A3EAF0A3E9F02288
:100A7800D083D082F8E4937012740193700DA3A30D
:100A880093F8740193F5828883E473740293686021
:060A9800EFA3A3A380DF21
:0C40CA00EE30E707C3E49FFFE49EFE22F7
:1036A10002323CE493A3F8E493A34003F68001F2D1
:1036B10008DFF48029E493A3F85407240CC8C3332A
:1036C100C4540F4420C8834004F456800146F6DFF9
:1036D100E4800B010204081020408090406CE47EDD
:1036E100019360BCA3FF543F30E509541FFEE493EE
:1036F100A360010ECF54C025E060A840B8E493A3B5
:10370100FAE493A3F8E493A3C8C582C8CAC583CADF
:10371100F0A3C8C582C8CAC583CADFE9DEE780BE97
:014079000046
:0D0A9E00E6FB08E6F908E6FA08E6CBF822C8
:0C0AAB00E0F8A3E0F9A3E0FAA3E0FB22CE
:0D0AB700E2FB08E2F908E2FA08E2CBF822BF
:100AC400E493F8740193F9740293FA740393FB2288
:00000001FF
