:10097C00E4F518F519F51A751B01D2AF120F0143E6
:10098C00BA80120C65E51B2519F519E51A3518F511
:10099C0018E51964644518700D7F64120F1274FF0A
:1009AC00F51AF51B8011E5194518700B7F64120FB1
:1009BC0012751A00751B01AE18AF19EE3395E0FDD8
:1009CC00FCE47BBF7A5DF9F8120712E47B64FAF958
:1009DC00F8120BE18E128F137B007A0079087F06D8
:0A09EC0012082F7F0A120F12809BE1
:100F0100751C03751D027B007A00791CE4FF020445
:010F110015CA
:100C6500751C60E4F51FF520752204FB7A00791CDC
:100C75007F06120003751D5D751EBFE4F521752302
:100C850001752401FB7A00791C7F8112000390FE17
:0F0C9500B6E054F34408F0E4FBFD7F800209F65B
:0F0F12007D607C09ED1D70011C144C70F7DFF140
:010F210022AD
:10041500EFD3940740037FFF22120669FED39403AE
:1004250040037FFF22EF7041EE700B900001120632
:1004350082F452935294120669B4010B9000011292
:1004450006824293F45294120669FEB4020A9000A1
:100455000112068242934294EEB4030D90000112FC
:100465000682FEF45293EE4294EF64017043120645
:1004750069FE700B900001120682F452915292EEC1
:10048500B4010B9000011206824291F452921206B9
:1004950069B4020A90000112068242914292120644
:1004A50069B4030D900001120682FEF45291EE42EA
:1004B50092EF64027043120669FE700B9000011200
:1004C5000682F452955296EEB4010B900001120685
:1004D500824295F45296120669B4020A90000112FE
:1004E500068242954296120669B4030D90000112E8
:1004F5000682FEF45295EE4296EF640370431206AF
:1005050069FE700B900001120682F452B152B2EEF0
:10051500B4010B90000112068242B1F452B21206E8
:1005250069B4020A90000112068242B142B2120673
:1005350069B4030D900001120682FEF452B1EE4239
:10054500B2EF64047043120669FE700B900001124D
:100555000682F452B352B4EEB4010B9000011206B8
:100565008242B3F452B4120669B4020A9000011231
:10057500068242B342B4120669B4030D900001121B
:100585000682FEF452B3EE42B4EF640570431206E0
:1005950069FE700B900001120682F452C952CAEE30
:1005A500B4010B90000112068242C9F452CA120628
:1005B50069B4020A90000112068242C942CA1206B3
:1005C50069B4030D900001120682FEF452C9EE4291
:1005D500CAEF64067043120669FE700B90000112A3
:1005E5000682F452CB52CCEEB4010B9000011206F8
:1005F5008242CBF452CC120669B4020A9000011271
:10060500068242CB42CC120669B4030D900001125A
:100615000682FEF452CBEE42CCEF6407704312061D
:1006250069FF700B900001120682F452E152E2EF6D
:10063500B4010B90000112068242E1F452E2120667
:1006450069B4020A90000112068242E142E21206F2
:1006550069B4030D900001120682FFF452E1EF42E6
:04066500E27F00220E
:10000300AD07ED6401707A90FECCE054FEF0E0544D
:10001300FBF090FEC8E054FCF0120669FF90FEC8A6
:10002300E0548F4FF0900006120682FF90FECC3012
:10003300E00DE04401F090FEB1E04401F0800BE0FC
:1000430054FEF090FEB1E054FEF0EF90FECC30E1B0
:100053000DE04404F090FEB1E04402F0800BE05464
:10006300FBF090FEB1E054FDF09000031206DAE5D8
:10007300F090FED5F09000031206DA90FED602034C
:10008300BDED6402707A90FECCE054EFF0E054BF13
:10009300F090FEC9E054FCF0120669FF90FEC9E03F
:1000A300548F4FF0900006120682FF90FECC30E290
:1000B3000DE04410F090FEB1E04404F0800BE054F6
:1000C300EFF090FEB1E054FBF0EF90FECC30E30D87
:1000D300E04440F090FEB1E04408F0800BE054BFF0
:1000E300F090FEB1E054F7F09000031206DAE5F069
:1000F30090FED7F09000031206DA90FED80203BDFB
:10010300ED6403707A90FECDE054FEF0E054FBF012
:1001130090FECAE054FCF0120669FF90FECAE05458
:100123008F4FF0900006120682FF90FECD30E40D53
:10013300E04401F090FEB1E04410F0800BE054FE87
:10014300F090FEB1E054EFF0EF90FECD30E50DE01E
:100153004404F090FEB1E04420F0800BE054FBF047
:1001630090FEB1E054DFF09000031206DAE5F09060
:10017300FED9F09000031206DA90FEDA0203BDED19
:100183006404707A90FECDE054EFF0E054BFF09039
:10019300FECBE054FCF0120669FF90FECBE0548FD7
:1001A3004FF0900006120682FF90FECD30E60DE080
:1001B3004410F090FEB1E04440F0800BE054EFF0C7
:1001C30090FEB1E054BFF0EF90FECD30E70DE04478
:1001D30040F090FEB1E04480F0800BE054BFF0901B
:1001E300FEB1E0547FF09000031206DAE5F090FED2
:1001F300DBF09000031206DA90FEDC0203BDED642F
:1002030080704F90000512068290FEDEF090000190
:100213001206DAE5F090FED2F09000011206DA90B1
:10022300FED3F090000812068290FEDDB40106E0D2
:100233004480F08004E0547FF0900007120682901F
:10024300FEC0B40106E04401F08004E054FEF07FF8
:100253000022ED6405705690FEECE054FEF090FE33
:10026300E8E054FCF0120669FF90FEE8E0548F4F7B
:10027300F090000612068290FEEC30E00DE044019F
:10028300F090FEB5E04401F0800BE054FEF090FEE8
:10029300B5E054FEF09000031206DAE5F090FEF5A7
:1002A300F09000031206DA90FEF60203BDED640639
:1002B300705690FEECE054EFF090FEE9E054FCF051
:1002C300120669FF90FEE9E0548F4FF0900006128A
:1002D300068290FEEC30E20DE04410F090FEB5E0B3
:1002E3004404F0800BE054EFF090FEB5E054FBF0D3
:1002F3009000031206DAE5F090FEF7F09000031287
:1003030006DA90FEF80203BDED6407705590FEED2A
:10031300E054FEF090FEEAE054FCF0120669FF9010
:10032300FEEAE0548F4FF090000612068290FEED35
:1003330030E40DE04401F090FEB5E04410F0800B92
:10034300E054FEF090FEB5E054EFF0900003120687
:10035300DAE5F090FEF9F09000031206DA90FEFA67
:100363008058ED6408705790FEEDE054EFF090FE76
:10037300EBE054FCF0120669FF90FEEBE0548F4F64
:10038300F090000612068290FEED30E60DE0441078
:10039300F090FEB5E04440F0800BE054EFF090FEA7
:1003A300B5E054BFF09000031206DAE5F090FEFBCF
:1003B300F09000031206DA90FEFCF07F0022ED6459
:1003C30081704C90000512068290FEFEF0900001B1
:1003D3001206DAFDACF0EC90FEF2F0AF05A3EFF0FD
:1003E30090000812068290FEFDB40106E04480F0FE
:1003F3008004E0547FF090000712068290FEE0B480
:100403000106E04401F08004E054FEF07F00227F07
:02041300FF22C6
:10082F00EF248070030208EA14700302092F24805A
:10083F00B40800400302097B90085575F003A4C566
:10084F008325F0C5837302086D02087A02088A02B5
:10085F00089A0208AA0208BA0208CA0208DA12069F
:10086F00AFFDACF0EC90FED50209759000021206B8
:10087F00DAFDACF0EC90FED7020975900004120679
:10088F00DAFDACF0EC90FED9020975900006120665
:10089F00DAFDACF0EC90FEDB020975900008120651
:1008AF00DAFDACF0EC90FEF502097590000A120625
:1008BF00DAFDACF0EC90FEF702097590000C120611
:1008CF00DAFDACF0EC90FEF902097590000E1206FD
:1008DF00DAFDACF0EC90FEFB0209751206AFFDAC31
:1008EF00F0EC90FED5F0AF05A3EFF09000021206EA
:1008FF00DAFDACF0EC90FED7F0AF05A3EFF090006F
:10090F00041206DAFDACF0EC90FED9F0AF05A3EFC0
:10091F00F09000061206DAFDACF0EC90FEDB80469C
:10092F009000081206DAFDACF0EC90FEF5F0AF0582
:10093F00A3EFF090000A1206DAFDACF0EC90FEF790
:10094F00F0AF05A3EFF090000C1206DAFDACF0EC5F
:10095F0090FEF9F0AF05A3EFF090000E1206DAFD4E
:0D096F00ACF0EC90FEFBF0AF05A3EFF02222
:100CA400EFD3940140037FFF22EDD3940340037FED
:100CB400FF22EF7004C2A98002D2A9ED700553B7D8
:100CC400FDC2B9BD010553B7FDD2B9BD020543B795
:0E0CD40002C2B9BD030543B702D2B97F0022A8
:100CE200EFD3940140037FFF22EDD3940340037FAF
:100CF200FF22EF7004C2AB8002D2ABED700553B796
:100D0200F7C2BBBD010553B7F7D2BBBD020543B75E
:0E0D120008C2BBBD030543B708D2BB7F002259
:100E7200EFD3940140037FFF22EDD3940340037F1D
:100E8200FF22EF25E025E0FFE5AF54FB4FF5AFE48D
:020E9200FF223D
:100E9400EFD3940140037FFF22EDD3940340037FFB
:100EA400FF22EFC43354E0FFE5AF54DF4FF5AFE466
:020EB400FF221B
:100E4F00EFD3940140037FFF22EDD3940340037F40
:100E5F00FF22EFC4333354C0FFE5AF54BF4FF5AF9C
:030E6F00E4FF227B
:100D2000EFD3940140037FFF22EDD3940340037F70
:100D3000FF22EF7004C2A88002D2A8ED700553B75D
:100D4000FEC2B8BD010553B7FED2B8BD020543B718
:0E0D500001C2B8BD030543B701D2B87F00222F
:100D5E00EFD3940140037FFF22EDD3940340037F32
:100D6E00FF22EF7004C2AA8002D2AAED700553B71B
:100D7E00FBC2BABD010553B7FBD2BABD020543B7DC
:0E0D8E0004C2BABD030543B704D2BA7F0022E7
:100EE900EFD3940140037FFF22EFC454F0FFE58F55
:080EF90054EF4FF58FE4FF22D6
:100ED000EFD3940140037FFF22EFC43354E0FFE5DA
:090EE0008F54DF4FF58FE4FF226F
:100EB600EFD3940140037FFF22EFC4333354C0FFC6
:0A0EC600E58F54BF4FF58FE4FF22C3
:100D9C00EFD3940140037FFF22EDD3940340037FF4
:100DAC00FF22EF7004C2AD8002D2ADED700553B7D7
:100DBC00DFC2BDBD010553B7DFD2BDBD020543B7D0
:0E0DCC0020C2BDBD030543B720D2BD7F00226B
:100AC900EDD3940340037FFF22EF30E10543E62095
:100AD900800353E6DFEF30E00543E610800353E679
:100AE900EFED700653B6DF53B5DFBD010653B6DF30
:100AF90043B520BD020643B62053B5DFBD03064307
:080B0900B62043B5207F002255
:100A7000EFD3940140037FFF22EBD3940340037F25
:100A8000FF22BF0112ED90FE817006E0547FF080DE
:100A900011E04480F0800BEF700890FE83E05487F3
:100AA0004DF0EB700653B6DF53B5DFBB010653B60E
:100AB000DF43B520BB020643B62053B5DFBB0306B8
:090AC00043B62043B5207F00225B
:100DDA00EFD3940140037FFF22EDD3940340037FB6
:100DEA00FF22EF7004C2AC8002D2ACED700553B79B
:100DFA00EFC2BCBD010553B7EFD2BCBD020543B774
:0E0E0A0010C2BCBD030543B710D2BC7F00224E
:100C2500EFD3940140037FFF22EDD3940340037F6C
:100C3500FF22E5AF54FE4FF5AFED700653B6FE53F8
:100C4500B5FEBD010653B6FE43B501BD020643B66A
:100C55000153B5FEBD030643B60143B5017F00222E
:100B1100EFD3940140037FFF22EDD3940340037F81
:100B2100FF22EF33333354F8FFE5AF54F74FF5AFFE
:100B3100ED700653EEFE53DFFEBD010653EEFE439C
:100B4100DF01BD020643EE0153DFFEBD030643EEA6
:070B51000143DF017F0022D8
:100B5800EFD3940140037FFF22EDD3940340037F3A
:100B6800FF22EFC454F0FFE5AF54EF4FF5AFED703F
:100B78000653EEFD53DFFDBD010653EEFD43DF02D4
:100B8800BD020643EE0253DFFDBD030643EE0243FA
:050B9800DF027F0022D6
:100B9D00EFD3940140037FFF22EDD3940340037FF5
:100BAD00FF22EF25E0FFE5AF54FD4FF5AFED7006E9
:100BBD0053B6FD53B5FDBD010653B6FD43B502BD9C
:100BCD00020643B60253B5FDBD030643B60243B557
:040BDD00027F002271
:1009F600EFD3948140037FFF22EBD3940340037F20
:100A0600FF22EF247F603004705890FEC4EDF0EBB7
:100A1600700653B6FB53B5FBBB010653B6FB43B595
:100A260004BB020643B60453B5FBEB6403703843BC
:100A3600B60443B504803090FEE4EDF0EB70065347
:100A4600B6F753B5F7BB010653B6F743B508BB0275
:100A56000643B60853B5F7BB030D43B60843B508BE
:0A0A6600800590FEE4EDF07F002211
:100E1800EDD394035026ED700653EEFB53DFFBBD74
:100E2800010653EEFB43DF04BD020643EE0453DF25
:100E3800FBBD030B43EE0443DF0480037FFF2290D6
:070E4800FE62EFF07F0022C3
:03000000020F22CA
:0C0F2200787FE4F6D8FD75812402097C7C
:10066900BB010689828A83E0225002E722BBFE028F
:09067900E32289828A83E49322C2
:10068200BB010CE58229F582E5833AF583E022502D
:1006920006E92582F8E622BBFE06E92582F8E22277
:0D06A200E58229F582E5833AF583E4932291
:1006AF00BB010A89828A83E0F5F0A3E02250068716
:1006BF00F009E71922BBFE07E3F5F009E3192289D8
:0B06CF00828A83E493F5F0740193220B
:1006DA00BB0110E58229F582E5833AF583E0F5F05E
:1006EA00A3E0225009E92582F886F008E622BBFE3B
:1006FA000AE92582F8E2F5F008E222E5832AF58381
:08070A00E993F5F0A3E9932245
:10071200E88FF0A4CC8BF0A42CFCE98EF0A42CFC86
:100722008AF0EDA42CFCEA8EF0A4CDA8F08BF0A404
:100732002DCC3825F0FDE98FF0A42CCD35F0FCEB63
:100742008EF0A4FEA9F0EB8FF0A4CFC5F02ECD3928
:0F075200FEE43CFCEAA42DCE35F0FDE43CFC2295
:100BE100C2D5E830E70FB2D5E4C39BFBE49AFAE43F
:100BF10099F9E498F8EC30E717B2D5120C171207FF
:100C01009DE4C39BFBE49AFAE499F9E498F8800324
:100C110012079D30D50DE4C39FFFE49EFEE49DFDC8
:040C2100E49CFC2231
:1007610075F008758200EF2FFFEE33FECD33CDCC4F
:1007710033CCC58233C5829BED9AEC99E5829840D2
:100781000CF582EE9BFEED9AFDEC99FC0FD5F0D6AF
:10079100E4CEFBE4CDFAE4CCF9A88222B800C1B9D9
:1007A1000059BA002DEC8BF084CFCECDFCE5F0CB17
:1007B100F97818EF2FFFEE33FEED33FDEC33FCEB50
:1007C10033FB10D703994004EB99FB0FD8E5E4F90B
:1007D100FA227818EF2FFFEE33FEED33FDEC33FCF8
:1007E100C933C910D7059BE99A4007EC9BFCE99AEC
:1007F100F90FD8E0E4C9FAE4CCFB2275F010EF2F31
:10080100FFEE33FEED33FDCC33CCC833C810D70730
:100811009BEC9AE899400AED9BFDEC9AFCE899F86B
:0E0821000FD5F0DAE4CDFBE4CCFAE4C8F922FE
:00000001FF
