:10053C00120577C2B47FFA1205877FFA120587D2AB
:10054C00B47FFA1205877FFA1205877FFA120587A6
:10055C007FFA1205877FFA1205877FFA1205877FCB
:0B056C00FA1205877FFA12058780C88D
:10057700E4F508750910FB7A0079087F0302026A1F
:10026A00EFD3940740037FFF221204BEFED3940308
:10027A0040037FFF22EF7041EE700B9000011204E1
:10028A00D7F4529352941204BEB4010B9000011297
:10029A0004D74293F452941204BEFEB4020A9000A8
:1002AA00011204D742934294EEB4030D9000011256
:1002BA0004D7FEF45293EE4294EF640170431204A1
:1002CA00BEFE700B9000011204D7F452915292EEC6
:1002DA00B4010B9000011204D74291F45292120415
:1002EA00BEB4020A9000011204D74291429212044B
:1002FA00BEB4030D9000011204D7FEF45291EE42EF
:10030A0092EF640270431204BEFE700B9000011259
:10031A0004D7F452955296EEB4010B9000011204E0
:10032A00D74295F452961204BEB4020A9000011202
:10033A0004D7429542961204BEB4030D90000112EE
:10034A0004D7FEF45295EE4296EF6403704312040A
:10035A00BEFE700B9000011204D7F452B152B2EEF5
:10036A00B4010B9000011204D742B1F452B2120444
:10037A00BEB4020A9000011204D742B142B212047A
:10038A00BEB4030D9000011204D7FEF452B1EE423E
:10039A00B2EF640470431204BEFE700B90000112A7
:1003AA0004D7F452B352B4EEB4010B900001120414
:1003BA00D742B3F452B41204BEB4020A9000011236
:1003CA0004D742B342B41204BEB4030D9000011222
:1003DA0004D7FEF452B3EE42B4EF6405704312043C
:1003EA00BEFE700B9000011204D7F452C952CAEE35
:1003FA00B4010B9000011204D742C9F452CA120484
:10040A00BEB4020A9000011204D742C942CA1204B9
:10041A00BEB4030D9000011204D7FEF452C9EE4295
:10042A00CAEF640670431204BEFE700B90000112FC
:10043A0004D7F452CB52CCEEB4010B900001120453
:10044A00D742CBF452CC1204BEB4020A9000011275
:10045A0004D742CB42CC1204BEB4030D9000011261
:10046A0004D7FEF452CBEE42CCEF64077043120479
:10047A00BEFF700B9000011204D7F452E152E2EF72
:10048A00B4010B9000011204D742E1F452E21204C3
:10049A00BEB4020A9000011204D742E142E21204F9
:1004AA00BEB4030D9000011204D7FFF452E1EF42EB
:0404BA00E27F0022BB
:0F0587007D607C09ED1D70011C144C70F7DFF1D5
:010596002242
:10000300AD07ED7079C28C1204BEFED39403400396
:100013007FFF22E58954FC4EF5899000011204D735
:10002300FED3940240037FFF22EE7006538E7F536C
:1000330089FB9000011204D7B40106438E805389D3
:10004300FB9000011204D7B4020343890490000219
:100053001204D7FFE58F54FE4FF58F90000312056E
:1000630004E5F0F58C900003120504F58A90000670
:100073001204D77004C28C8002D28C7F0022ED64FC
:10008300016003020109C28E1204BEFED394034031
:10009300037FFF22EEC454F0FFE58954CF4FF58967
:1000A3009000011204D7FED3940240037FFF22EE97
:1000B3007006538EBF5389BF9000011204D7B40159
:1000C30006438E405389BF9000011204D7B4020344
:1000D3004389409000021204D725E0FFE58F54FDC9
:1000E3004FF58F900003120504E5F0F58D900003A2
:1000F300120504F58B9000061204D77004C28E809B
:1001030002D28E7F0022ED64027065538EEF900061
:10011300011204D7FF7006538EFB538EF7EFB40121
:1001230006438E04538EF7EFB40203438E08900008
:10013300021204D725E025E0FFE58F54FB4FF58F2E
:10014300900003120504E5F0F5D6900003120504B0
:10015300F5D79000051204D790FEA2F09000061286
:1001630004D7C454F0FFE58E54EF4FF58E7F002281
:10017300ED6403707253D1F79000011204D7FED3DC
:10018300940240037FFF22EE700653D1FD53D1FB4F
:100193009000011204D7B4010643D10253D1FB905E
:1001A30000011204D7B4020343D1049000021204E5
:1001B300D7FFE5D154FE4FF5D1900003120504E5B6
:1001C300F0F5D4900003120504F5D5900005120450
:1001D300D790FEA3F09000061204D733333354F8BC
:1001E300FFE5D154F78077ED6404707853D17F90A5
:1001F30000011204D7FED3940240037FFF22EE7066
:100203000653D1DF53D1BF9000011204D7B40106C6
:1002130043D12053D1BF9000011204D7B40203434A
:10022300D1409000021204D7C454F0FFE5D154EF3B
:100233004FF5D1900003120504FDACF0ECF5D2AFFD
:10024300058FD39000051204D790FEA4F09000060A
:100253001204D7C43333335480FFE5D1547F4FF5B1
:07026300D17F00227FFF2282
:030000000205975F
:0C059700787FE4F6D8FD75810902053C70
:1004BE00BB010689828A83E0225002E722BBFE023C
:0904CE00E32289828A83E493226F
:1004D700BB010CE58229F582E5833AF583E02250DA
:1004E70006E92582F8E622BBFE06E92582F8E22224
:0D04F700E58229F582E5833AF583E493223E
:10050400BB0110E58229F582E5833AF583E0F5F035
:10051400A3E0225009E92582F886F008E622BBFE12
:100524000AE92582F8E2F5F008E222E5832AF58358
:08053400E993F5F0A3E993221D
:00000001FF
