:1014720073746172742E2E2E0A006164635F76614A
:101482006C75653D25640A007265733D252E3266D2
:03149200760A00D7
:100F6D00D2AF1215621214451214B87BFF7A1479A0
:100F7D00721207447F0D120FE48E228F237BFF7AAE
:100F8D0014797C85222B85232C120744AC22AD23AA
:100F9D00E41201D1E4FBFA79207840120026E4FB3B
:100FAD00FA7980784512012F8F278E268D258C2476
:100FBD007BFF7A14798A8F2E8E2D8D2C8C2B120718
:100FCD00447FFA1215737FFA1215737FFA12157397
:070FDD007FFA121573809DDD
:101562007528017529207B007A007928E4FF020B97
:011572005127
:10144500752840752901752D00752CC2752B017500
:101455002A00752F01E4F530FB7A0079287F011207
:0C1465000DA57D017F011213D053A23FA2
:011471002258
:1014B80075281FE4F529752A01F52B752C01FB7A8F
:1014C8000079281210AA7F0112158F7D01E4FF020E
:0214D80013926D
:100B5100EFD3940740037FFF221204EEFED39403E8
:100B610040037FFF22EF7041EE700B9000011205F0
:100B710007F4529352941204EEB4010B9000011247
:100B810005074293F452941204EEFEB4020A900057
:100B91000112050742934294EEB4030D9000011235
:100BA1000507FEF45293EE4294EF64017043120480
:100BB100EEFE700B900001120507F452915292EE75
:100BC100B4010B9000011205074291F452921204F4
:100BD100EEB4020A900001120507429142921204FA
:100BE100EEB4030D900001120507FEF45291EE429E
:100BF10092EF640270431204EEFE700B900001123A
:100C01000507F452955296EEB4010B9000011205BE
:100C1100074295F452961204EEB4020A90000112B2
:100C21000507429542961204EEB4030D900001129D
:100C31000507FEF45295EE4296EF640370431204E9
:100C4100EEFE700B900001120507F452B152B2EEA4
:100C5100B4010B90000112050742B1F452B2120423
:100C6100EEB4020A90000112050742B142B2120429
:100C7100EEB4030D900001120507FEF452B1EE42ED
:100C8100B2EF640470431204EEFE700B9000011287
:100C91000507F452B352B4EEB4010B9000011205F2
:100CA1000742B3F452B41204EEB4020A90000112E6
:100CB100050742B342B41204EEB4030D90000112D1
:100CC1000507FEF452B3EE42B4EF6405704312041B
:100CD100EEFE700B900001120507F452C952CAEEE4
:100CE100B4010B90000112050742C9F452CA120463
:100CF100EEB4020A90000112050742C942CA120469
:100D0100EEB4030D900001120507FEF452C9EE4244
:100D1100CAEF640670431204EEFE700B90000112DC
:100D21000507F452CB52CCEEB4010B900001120531
:100D31000742CBF452CC1204EEB4020A9000011225
:100D4100050742CB42CC1204EEB4030D9000011210
:100D51000507FEF452CBEE42CCEF64077043120458
:100D6100EEFF700B900001120507F452E152E2EF21
:100D7100B4010B90000112050742E1F452E21204A2
:100D8100EEB4020A90000112050742E142E21204A8
:100D9100EEB4030D900001120507FFF452E1EF429A
:040DA100E27F0022CB
:10129A00EFD3940140037FFF22EDD3940340037FF1
:1012AA00FF22EF7004C2A98002D2A9ED700553B7DC
:1012BA00FDC2B9BD010553B7FDD2B9BD020543B799
:0E12CA0002C2B9BD030543B702D2B97F0022AC
:1012D800EFD3940140037FFF22EDD3940340037FB3
:1012E800FF22EF7004C2AB8002D2ABED700553B79A
:1012F800F7C2BBBD010553B7F7D2BBBD020543B763
:0E13080008C2BBBD030543B708D2BB7F00225D
:1014DA00EFD3940140037FFF22EDD3940340037FAF
:1014EA00FF22EF25E025E0FFE5AF54FB4FF5AFE41F
:0214FA00FF22CF
:1014FC00EFD3940140037FFF22EDD3940340037F8D
:10150C00FF22EFC43354E0FFE5AF54DF4FF5AFE4F7
:02151C00FF22AC
:10149500EFD3940140037FFF22EDD3940340037FF4
:1014A500FF22EFC4333354C0FFE5AF54BF4FF5AF50
:0314B500E4FF222F
:10131600EFD3940140037FFF22EDD3940340037F74
:10132600FF22EF7004C2A88002D2A8ED700553B761
:10133600FEC2B8BD010553B7FED2B8BD020543B71C
:0E13460001C2B8BD030543B701D2B87F002233
:10135400EFD3940140037FFF22EDD3940340037F36
:10136400FF22EF7004C2AA8002D2AAED700553B71F
:10137400FBC2BABD010553B7FBD2BABD020543B7E0
:0E13840004C2BABD030543B704D2BA7F0022EB
:10153700EFD3940140037FFF22EFC454F0FFE58F00
:0815470054EF4FF58FE4FF2281
:10151E00EFD3940140037FFF22EFC43354E0FFE585
:09152E008F54DF4FF58FE4FF221A
:10000300EFD3940140037FFF22EFC4333354C0FF87
:0A001300E58F54BF4FF58FE4FF2284
:10139200EFD3940140037FFF22EDD3940340037FF8
:1013A200FF22EF7004C2AD8002D2ADED700553B7DB
:1013B200DFC2BDBD010553B7DFD2BDBD020543B7D4
:0E13C20020C2BDBD030543B720D2BD7F00226F
:1010FF00EDD3940340037FFF22EF30E10543E62059
:10110F00800353E6DFEF30E00543E610800353E63C
:10111F00EFED700653B6DF53B5DFBD010653B6DFF3
:10112F0043B520BD020643B62053B5DFBD030643CA
:08113F00B62043B5207F002219
:10105100EFD3940140037FFF22EBD3940340037F3E
:10106100FF22BF0112ED90FE817006E0547FF080F7
:1010710011E04480F0800BEF700890FE83E054870C
:101081004DF0EB700653B6DF53B5DFBB010653B627
:10109100DF43B520BB020643B62053B5DFBB0306D1
:0910A10043B62043B5207F002274
:1013D000EFD3940140037FFF22EDD3940340037FBA
:1013E000FF22EF7004C2AC8002D2ACED700553B79F
:1013F000EFC2BCBD010553B7EFD2BCBD020543B778
:0E14000010C2BCBD030543B710D2BC7F002252
:10125A00EFD3940140037FFF22EDD3940340037F31
:10126A00FF22E5AF54FE4FF5AFED700653B6FE53BD
:10127A00B5FEBD010653B6FE43B501BD020643B62F
:10128A000153B5FEBD030643B60143B5017F0022F3
:10114700EFD3940140037FFF22EDD3940340037F45
:10115700FF22EF33333354F8FFE5AF54F74FF5AFC2
:10116700ED700653EEFE53DFFEBD010653EEFE4360
:10117700DF01BD020643EE0153DFFEBD030643EE6A
:071187000143DF017F00229C
:10118E00EFD3940140037FFF22EDD3940340037FFE
:10119E00FF22EFC454F0FFE5AF54EF4FF5AFED7003
:1011AE000653EEFD53DFFDBD010653EEFD43DF0298
:1011BE00BD020643EE0253DFFDBD030643EE0243BE
:0511CE00DF027F00229A
:1011D300EFD3940140037FFF22EDD3940340037FB9
:1011E300FF22EF25E0FFE5AF54FD4FF5AFED7006AD
:1011F30053B6FD53B5FDBD010653B6FD43B502BD60
:10120300020643B60253B5FDBD030643B60243B51A
:04121300027F002234
:100EF300EFD3948140037FFF22EBD3940340037F1E
:100F0300FF22EF247F603004705890FEC4EDF0EBB5
:100F1300700653B6FB53B5FBBB010653B6FB43B593
:100F230004BB020643B60453B5FBEB6403703843BA
:100F3300B60443B504803090FEE4EDF0EB70065345
:100F4300B6F753B5F7BB010653B6F743B508BB0273
:100F53000643B60853B5F7BB030D43B60843B508BC
:0A0F6300800590FEE4EDF07F00220F
:10140E00EDD394035026ED700653EEFB53DFFBBD78
:10141E00010653EEFB43DF04BD020643EE0453DF29
:10142E00FBBD030B43EE0443DF0480037FFF2290DA
:07143E00FE62EFF07F0022C7
:060DA5008B318A32893314
:100DAB00EF64016003020EF0F508F509F50AF50B87
:100DBB00F50CFF7E80900080E4F0A3DEFCE4FF7E68
:100DCB0080900000E4F0A3DEFC7E00AB31AA32A9D8
:100DDB00331204EEFFE598543F4FF598EF64C06073
:100DEB0008EF64406003020EA59000021206467FD6
:100DFB00807E8D7D5B7C001205828F378E368D3524
:100E0B008C34E4FFFE7D01FCAB37AA36A935A83440
:100E1B00C312062240037FFF22C3E49537F537E464
:100E2B009536F53674019535F535E49534F534ABD7
:100E3B0031AA32A933900001120507FB6401702C13
:100E4B00C28E538EFE5389BF5389CF438E40AF372B
:100E5B00AE36AD35AC3478081206338F8D85378BB3
:100E6B00C2AB5389BF538FFDD28E8062EB6402708D
:100E7B0026538EEF438E01538EF7438E04AF37AE5E
:100E8B0036AD35AC3478081206338FD68537D75349
:100E9B00AFFB438E1080377FFF22AB31AA32A933D1
:100EAB001204EEFF7013900008120507B4010543FE
:100EBB008E20801A538EDF8015EFB48011900008BE
:100ECB00120507B40105438780800353877FAB313D
:100EDB00AA32A9339000071205077004C29C800246
:070EEB00D29C7F00227FFF73
:010EF20022DD
:0A159A008F99750A01E50A70FC2222
:10154F001204EEFF600C12159A740129F9E43AFAAD
:03155F0080EE22F9
:05001D00AE0702159A78
:03002300021217AF
:10121700C0E0C083C082C0D075D000C0073098201E
:10122700C298E50BC394804003750B00AF0B050B09
:1012370074002FF582E43400F583E599F0750C0509
:10124700309905C299750A00D007D0D0D082D083D3
:03125700D0E032B2
:1010AA00900001120507FFE5DE54F04FF5DE9000CF
:1010BA0002120507C43354E0FFE5DE54DF4FF5DEC4
:1010CA001204EEFFD3941F502B900003120507FE63
:1010DA00D39401501F900004120507FDD3940350C6
:1010EA0013EDC43354E0FDEEC433333354804D4F13
:0510FA0090FEA8F022A9
:0B158F00BF010443BC802253BC7F223C
:100FE400EFD3940F40028060E4F5BDF5BEE5BC5438
:100FF400F044404FF5BC0000000000000000000079
:10100400E4FDE5BC30E53D53BCDFE5DEAFBD30E5D6
:101014000EEFFEACBEECFBEEF528EBF52980207557
:1010240028008F29E5BEC4540FFBE529C4F8540FEA
:10103400C868FFE528C454F048F528EF4BF529AEFD
:0C10440028AF29220DBDFABA7E107F00F3
:01105000227D
:0F1573007D607C09ED1D70011C144C70F7DFF1D9
:011582002246
:10002600EC4D6011E8497017ED33EC3304600DE4D4
:10003600FCFFFEFD22E933E8330470F802023F12AA
:10004600020A58046009E4CC2481500628500902AB
:100056000249284003020246C0E0EB4A7044B980D8
:1000660006D0E0FB020235EF4E701CBD8008EBFFA8
:10007600EAFEE9FD80EBE98DF0A4FEE5F002010F52
:10008600E9CDF9EAFEEBFFEF89F0A4FCE5F0CE89B5
:10009600F0A42EFFE435F0CD89F0A42DFEE435F072
:1000A6008067EF4E7005BD80D780C3EF8BF0A4ACA0
:1000B600F0EE8BF0A42CFCE435F0F8EF8AF0A42CDB
:1000C600E5F038FCE433CB8DF0A42CFCE5F03BF8EE
:1000D600EE8AF0A42CFCE5F038F8E433CF89F0A4DE
:1000E6002CFCE5F038CF3400CE89F0A42FFFE5F0E4
:1000F6003EFEE433C98DF0A42EFEE5F039CD8AF03C
:10010600A42FFFE5F03EFEE43DFD33D0E0FB5007B3
:100116000BBB000F020249EC2CFCEF33FFEE33FE63
:06012600ED33FD02022191
:10012C00020249EC5D046005E85904700302023FC9
:10013C0012020A580460F6EC4860F2EC7004FDFE02
:10014C00FF22C860DB2481C85009C39860025006A6
:10015C000202469850CAF582E9294B4A7005AB82D7
:10016C0002023575F0007C1A7880C3EF9BEE9AED95
:10017C0099400DC3EF9BFFEE9AFEED99FDE842F01E
:10018C00DC23ACF0D0E0FFD0E0FED0E0FDAB822071
:10019C00E7101BEB60BAEC2CFCEF33FFEE33FEEDFB
:1001AC0033FD020221E803F830E705C0F075F000DA
:1001BC00EF2FFFEE33FEED33FD40B830E7C280AADF
:1001CC0075F020800E75F010800575F0087D007EAE
:1001DC00007F003392D530D503120614EC33401057
:1001EC00EF33FFEE33FEED33FDEC33FCD5F0ED22B7
:0E01FC00E5F0247EA2D513CC92E7CDCEFF22F3
:1006E200E53F242BF8E6053F227828300702782BD5
:1006F200E475F0011206760204EE2000EB7F2ED2A2
:10070200008018EF540F2490D43440D4FF30040BEF
:10071200EF24BFB41A0050032461FFE540600215C4
:10072200400543E5437002054230070D7828E47521
:10073200F001120676EF02053402001D7403D2079F
:100742008003E4C207F53F8B288A29892AE4F54011
:10075200F542F543E54060077F2012071D80F575DD
:1007620041FFC201C200C202C203C205C206C208E0
:100772001206EBFF700D3007057F0012072EAF4304
:10078200AE4222B4255FC2D5C2041206EBFF24D0CA
:10079200B40A00501A75F00A784030D50508B6FF41
:1007A2000106C6A426F620D5047002D20380D924FD
:1007B200CFB41A00EF5004C2E5D204020A1BD201E0
:1007C20080C6D20080C0D20280BCD2D580BAD20507
:1007D20080B47F2012071D2002077401B54000403B
:1007E200F11206E2FF12071D020756D208D2068056
:1007F200951206E2FB1206E2FA1206E2F94A4B7081
:100802000679127A0B7BFF20022EE540602A7E00D9
:100812008E8275830012050760060EEE654170F048
:10082200C2D5EBC0E0EAC0E0E9C0E0EE120A7BD03C
:10083200E0F9D0E0FAD0E0FB1204EEFF60AAEBC0D0
:10084200E0EAC0E0E9C0E012071DD0E02401F9D0DF
:10085200E03400FAD0E0FBE5410460DCD541D98008
:1008620087D20280A2120A5E60F7E541700104128B
:100872000254A941600DE541600914F541120B05CE
:10088200EF60F3EA30E702F404C3995077EAF42503
:10089200410430E701E404F541800D120A5E60C1B3
:1008A200EA05412541120254EA783EF630E701E4B6
:1008B200254104D5410420050114120A7BE4C0E05D
:1008C200120B05783EE6601320E70714F6120705BF
:1008D200802204F6D0E014C0E07F00120705E54153
:1008E20060071206FC1541800B3005031206FCD08E
:1008F200E0020756D0E00480C5120A5E60A0E5411E
:1009020004120254783EEAF6E54120050260010431
:050912002404120A7B21
:1009170074FF04C0E0120B05120705E5412005022C
:1009270060031206FCD0E0B541E87F4512070F7857
:100937003EE67F2B30E7047F2DF404C0E012071D4D
:10094700D0E075F00A84C0F0120706D0E01207065F
:10095700020756791080027908C206C2088008D2B9
:10096700D5790A8004790AC2D5E541047002F541B8
:10097700E4FAFDFEFF1206E2FC7B082001131206D3
:10098700E2FD7B1030000A1206E2FE1206E2FF7B50
:1009970020EC3382D592D55013C3E43000069FFF75
:1009A700E49EFEE42001039DFDE49CFCE4CBF8C239
:1009B70001EC700CCFCECDCCE824F8F870F380179B
:1009C700C3EF33FFEE33FEED33FDEC33FCEB33FBCC
:1009D700994002FB0FD8E9EB300105F8D0E0C44895
:1009E700B201C0E00AEC4D4E4F78207B0070C2EA9E
:1009F700B5410040BCC0E0120A7DD0F0D0E0200134
:100A070004C4C0E0C4B201C0F0120706D0F0D5F0AC
:100A1700EB02075612068607F353095A5807C44CC8
:100A270007C042095E4F09664409664907D9430969
:100A37006C55089D4608FB450867470B325007C8A9
:100A47002D07CC2E07EF2B07D02307ED200B1B2AF2
:100A5700078848000007E7E541B4FF037541061220
:100A670006E2FC1206E2FD1206E2FE1206E2FF783B
:100A770037020283790AA2D5200314300509B91079
:100A8700020404B9080104A2D5200602500104207B
:100A970002689202B540005034C0E07F203003194D
:100AA7007F30A20272067205500F120AD4C202C228
:100AB70006C205C2087F30800F300503E9C0E01287
:100AC700071D300503D0E0F9D0E0B540CC3005175D
:100AD7007F30B9100C12071D7F583004077F7880CC
:100AE70003B9080312071D3002057F2D02071D7F7A
:100AF700202008F87F2B2006F322920280CF7F0068
:100B0700B4070050052437F8E6FF22286E756C6C91
:100B17002900D2011206E23001F8C201784030D52F
:100B27000108F60207882D504349581206E22403AC
:100B3700B405004001E4900B2D9312070E743A128E
:0A0B4700070ED20375400402095A9C
:10020A00E9D2E7C933E833F892D5EDD2E7CD33EC3A
:07021A0033FC5002B2D522B3
:10022100EC30E7100FBF000C0EBE00080DBD00043E
:100231000BEB6014A2D5EB13FCED92E7FD2274FFEA
:10024100FCFDFEFF22E480F8A2D574FF13FC7D8043
:03025100E480EF57
:10025400F920E72824F950037907E4F42402FB1871
:10026400DBFDE624FB5014E9600DE4F618E604F621
:0F027400B40A08E4F6D9F57401F60A22C2D522BD
:10028300ED33EC3392D5FA602AB4FF33EDC2E77B4A
:10029300FF60067A0279A8E4227A0279B120D504B4
:1002A3007A0279AC224E614E002B494E46002D490D
:1002B3004E4600E47A08F608DAFC7B00740722E86D
:1002C300C0E0ECC0E0EDC0E0EEC0E0EFC0E0EA75F6
:1002D300F010A4CAABF075F04DA42BFBE435F0FC91
:1002E300EA2410FAEB34C5FBEC34D9FCEDC2E7FF8A
:1002F30075F056A4F42411C5F0F434C58FF0A42A84
:10030300E5F03BE43CF620E7141204AED0E0FFD066
:10031300E0FED0E0FDD0E0FC12012F8014F40412C3
:1003230004AED0E0FFD0E0FED0E0FDD0E0FC120050
:1003330026D0E0F8E6FAEDD2E7CD33EC332482FBA6
:10034300E4C3CF33CFCE33CECD33CD33DBF37B0713
:1003530075F00A846004F6081B0AE5F0F6088FF0CE
:10036300740AA4FFACF08EF0740AA42CFEACF05017
:10037300010C8DF0740AA42CFDE435F0F608DBDEE5
:03038300740722DA
:1003860002023FE86480F8E933E83360110460F064
:10039600ED33EC337009E8FCE9FDEAFEEBFF2204DD
:1003A60060DED3EB9FEA9EE99DE8C2E78CF0C2F7D8
:1003B60095F0400CE8CCF8E9CDF9EACEFAEBCFFBA4
:1003C60012020A85D0F05804700320D5B3E80470F1
:1003D600075002B2D502024992D5EC0460F7E4CC8C
:1003E600C0E0C398F8603B94186008400DD0E0FB6D
:1003F600020221E4FBFAC9FC8028E830E406E4C9DD
:10040600FBE4CAFCE830E305E4C9CACBFCE85407C0
:100416006010F8C3E913F9EA13FAEB13FBEC13FCCB
:10042600D8F130F52FC3E49CFCEF9BFFEE9AFEED6E
:1004360099FDD0E0FBEF4E4D4C701222DB03020219
:1004460046EC2CFCEF33FFEE33FEED33FDED30E7EB
:10045600EB020221EF2BFFEE3AFEED39FDD0E0FB79
:1004660050130BBB0003020249ED13FDEE13FEEF22
:0804760013FFEC13FC0202214C
:10047E003F8000004120000042C80000447A000086
:10048E00461C400047C35000497424004B18968008
:10049E004CBEBC205A0E1BCA6753C21C749DC5AEFF
:1004AE00FB60065407601C23231204DCEB543860F7
:1004BE00091204C81204D7120026ECF8EDF9EEFA70
:1004CE00EFCB22EB1204D780F1543803241C900496
:1004DE007EFE93FC0EEE93FD0EEE930ECE93FF2258
:0300000002158363
:0C158300787FE4F6D8FD758143020F6DFF
:1004EE00BB010689828A83E0225002E722BBFE020C
:0904FE00E32289828A83E493223F
:10050700BB010CE58229F582E5833AF583E02250A9
:1005170006E92582F8E622BBFE06E92582F8E222F3
:0D052700E58229F582E5833AF583E493220D
:10053400BB010689828A83F0225002F722BBFE01A6
:02054400F322A0
:1005460075F008758200EF2FFFEE33FECD33CDCC6C
:1005560033CCC58233C5829BED9AEC99E5829840EF
:100566000CF582EE9BFEED9AFDEC99FC0FD5F0D6CC
:10057600E4CEFBE4CDFAE4CCF9A88222B800C1B9F6
:100586000059BA002DEC8BF084CFCECDFCE5F0CB34
:10059600F97818EF2FFFEE33FEED33FDEC33FCEB6D
:1005A60033FB10D703994004EB99FB0FD8E5E4F928
:1005B600FA227818EF2FFFEE33FEED33FDEC33FC15
:1005C600C933C910D7059BE99A4007EC9BFCE99A09
:1005D600F90FD8E0E4C9FAE4CCFB2275F010EF2F4E
:1005E600FFEE33FEED33FDCC33CCC833C810D7074E
:1005F6009BEC9AE899400AED9BFDEC9AFCE899F889
:0E0606000FD5F0DAE4CDFBE4CCFAE4C8F9221B
:0E061400C3E49FFFE49EFEE49DFDE49CFC22F7
:10062200EB9FF5F0EA9E42F0E99D42F0E89C45F02E
:0106320022A5
:10063300E8600FECC313FCED13FDEE13FEEF13FFA5
:03064300D8F122C9
:10064600BB010DE58229F582E5833AF5830206B9F9
:100656005007E92582F80206ACBBFE07E92582F8B9
:100666000206C5E58229F582E5833AF5830206D2BC
:10067600FAE6FB0808E6F925F0F618E6CA3AF62285
:10068600D083D082F8E4937012740193700DA3A303
:1006960093F8740193F5828883E473740293686017
:0606A600EFA3A3A380DF17
:0D06AC00E6FB08E6F908E6FA08E6CBF822BE
:0C06B900E0F8A3E0F9A3E0FAA3E0FB22C4
:0D06C500E2FB08E2F908E2FA08E2CBF822B5
:1006D200E493F8740193F9740293FA740393FB227E
:00000001FF
