:100B0D007374617274696E672E2E2E0D0A006B65FB
:100B1D0079312075700D0A006B65793120646F771E
:100B2D006E0D0A006B6579322075700D0A006B65CC
:100B3D00793220646F776E0D0A006B6579332075FD
:100B4D00700D0A006B65793320646F776E0D0A00A6
:100B5D006B6579342075700D0A006B6579342064EE
:060B6D006F776E0D0A0017
:0610340004270101010187
:10090A0043BA80120F12120F42D2AF7BFF7A0B79D1
:10091A000D12008830C912E527700E7BFF7A0B7919
:10092A001B120088752701801D20C91AE527B4010A
:10093A00047F0180027F00BF010C7BFF7A0B7925BF
:10094A00120088E4F52730CA1BE52870047F01806D
:10095A00027F00EF700E7BFF7A0B793112008875E7
:10096A002801801D20CA1AE528B401047F018002EB
:10097A007F00BF010C7BFF7A0B793B120088E4F5FC
:10098A002830CB1BE52970047F0180027F00EF70BD
:10099A000E7BFF7A0B7947120088752901801C208B
:1009AA00CB19E52970047F0180027F00BF010C7B0F
:1009BA00FF7A0B7951120088E4F52930CC1BE52A1D
:1009CA0070047F0180027F00EF700E7BFF7A0B7943
:1009DA005D120088752A01801C20CC19E52A700452
:1009EA007F0180027F00BF010C7BFF7A0B796712BF
:0D09FA000088E4F52A7FFA12101A02091E87
:100F1200E4F50A750B02FB7A00790A7F0512038257
:100F2200E4F50A750B20FB7A00790A7F041203822A
:100F3200E4F50A750B80FB7A00790A7F02020382CC
:100F4200750A40750B01750F00750EC2750D01759E
:100F52000C00751101E4F512FB7A00790A7F011287
:0C0F620007BC7D017F01120E9D53A23FD1
:010F6E002260
:0F101A007D607C09ED1D70011C144C70F7DFF137
:0110290022A4
:10038200EFD3940740037FFF221205D6FED39403D6
:1003920040037FFF22EF7041EE700B9000011205C7
:1003A200EFF4529352941205D6B4010B900001124D
:1003B20005EF4293F452941205D6FEB4020A90005D
:1003C200011205EF42934294EEB4030D9000011224
:1003D20005EFFEF45293EE4294EF6401704312056E
:1003E200D6FE700B9000011205EFF452915292EE7C
:1003F200B4010B9000011205EF4291F452921205E2
:10040200D6B4020A9000011205EF429142921205FF
:10041200D6B4030D9000011205EFFEF45291EE42A4
:1004220092EF640270431205D6FE700B9000011227
:1004320005EFF452955296EEB4010B9000011205AD
:10044200EF4295F452961205D6B4020A90000112B8
:1004520005EF429542961205D6B4030D90000112A3
:1004620005EFFEF45295EE4296EF640370431205D7
:10047200D6FE700B9000011205EFF452B152B2EEAB
:10048200B4010B9000011205EF42B1F452B2120511
:10049200D6B4020A9000011205EF42B142B212052F
:1004A200D6B4030D9000011205EFFEF452B1EE42F4
:1004B200B2EF640470431205D6FE700B9000011275
:1004C20005EFF452B352B4EEB4010B9000011205E1
:1004D200EF42B3F452B41205D6B4020A90000112EC
:1004E20005EF42B342B41205D6B4030D90000112D7
:1004F20005EFFEF452B3EE42B4EF64057043120509
:10050200D6FE700B9000011205EFF452C952CAEEEA
:10051200B4010B9000011205EF42C9F452CA120550
:10052200D6B4020A9000011205EF42C942CA12056E
:10053200D6B4030D9000011205EFFEF452C9EE424B
:10054200CAEF640670431205D6FE700B90000112CA
:1005520005EFF452CB52CCEEB4010B900001120520
:10056200EF42CBF452CC1205D6B4020A900001122B
:1005720005EF42CB42CC1205D6B4030D9000011216
:1005820005EFFEF452CBEE42CCEF64077043120546
:10059200D6FF700B9000011205EFF452E152E2EF28
:1005A200B4010B9000011205EF42E1F452E2120590
:1005B200D6B4020A9000011205EF42E142E21205AE
:1005C200D6B4030D9000011205EFFFF452E1EF42A1
:0405D200E27F0022A2
:100D6700EFD3940140037FFF22EDD3940340037F29
:100D7700FF22EF7004C2A98002D2A9ED700553B714
:100D8700FDC2B9BD010553B7FDD2B9BD020543B7D1
:0E0D970002C2B9BD030543B702D2B97F0022E4
:100DA500EFD3940140037FFF22EDD3940340037FEB
:100DB500FF22EF7004C2AB8002D2ABED700553B7D2
:100DC500F7C2BBBD010553B7F7D2BBBD020543B79B
:0E0DD50008C2BBBD030543B708D2BB7F002296
:100F9200EFD3940140037FFF22EDD3940340037FFC
:100FA200FF22EF25E025E0FFE5AF54FB4FF5AFE46C
:020FB200FF221C
:100FB400EFD3940140037FFF22EDD3940340037FDA
:100FC400FF22EFC43354E0FFE5AF54DF4FF5AFE445
:020FD400FF22FA
:100F6F00EFD3940140037FFF22EDD3940340037F1F
:100F7F00FF22EFC4333354C0FFE5AF54BF4FF5AF7B
:030F8F00E4FF225A
:100DE300EFD3940140037FFF22EDD3940340037FAD
:100DF300FF22EF7004C2A88002D2A8ED700553B79A
:100E0300FEC2B8BD010553B7FED2B8BD020543B754
:0E0E130001C2B8BD030543B701D2B87F00226B
:100E2100EFD3940140037FFF22EDD3940340037F6E
:100E3100FF22EF7004C2AA8002D2AAED700553B757
:100E4100FBC2BABD010553B7FBD2BABD020543B718
:0E0E510004C2BABD030543B704D2BA7F002223
:100FEF00EFD3940140037FFF22EFC454F0FFE58F4E
:080FFF0054EF4FF58FE4FF22CF
:100FD600EFD3940140037FFF22EFC43354E0FFE5D3
:090FE6008F54DF4FF58FE4FF2268
:10000300EFD3940140037FFF22EFC4333354C0FF87
:0A001300E58F54BF4FF58FE4FF2284
:100E5F00EFD3940140037FFF22EDD3940340037F30
:100E6F00FF22EF7004C2AD8002D2ADED700553B713
:100E7F00DFC2BDBD010553B7DFD2BDBD020543B70C
:0E0E8F0020C2BDBD030543B720D2BD7F0022A7
:100BCC00EDD3940340037FFF22EF30E10543E62091
:100BDC00800353E6DFEF30E00543E610800353E675
:100BEC00EFED700653B6DF53B5DFBD010653B6DF2C
:100BFC0043B520BD020643B62053B5DFBD03064303
:080C0C00B62043B5207F002251
:100B7300EFD3940140037FFF22EBD3940340037F21
:100B8300FF22BF0112ED90FE817006E0547FF080DA
:100B930011E04480F0800BEF700890FE83E05487EF
:100BA3004DF0EB700653B6DF53B5DFBB010653B60A
:100BB300DF43B520BB020643B62053B5DFBB0306B4
:090BC30043B62043B5207F002257
:100E9D00EFD3940140037FFF22EDD3940340037FF2
:100EAD00FF22EF7004C2AC8002D2ACED700553B7D7
:100EBD00EFC2BCBD010553B7EFD2BCBD020543B7B0
:0E0ECD0010C2BCBD030543B710D2BC7F00228B
:100D2700EFD3940140037FFF22EDD3940340037F69
:100D3700FF22E5AF54FE4FF5AFED700653B6FE53F5
:100D4700B5FEBD010653B6FE43B501BD020643B667
:100D57000153B5FEBD030643B60143B5017F00222B
:100C1400EFD3940140037FFF22EDD3940340037F7D
:100C2400FF22EF33333354F8FFE5AF54F74FF5AFFA
:100C3400ED700653EEFE53DFFEBD010653EEFE4398
:100C4400DF01BD020643EE0153DFFEBD030643EEA2
:070C54000143DF017F0022D4
:100C5B00EFD3940140037FFF22EDD3940340037F36
:100C6B00FF22EFC454F0FFE5AF54EF4FF5AFED703B
:100C7B000653EEFD53DFFDBD010653EEFD43DF02D0
:100C8B00BD020643EE0253DFFDBD030643EE0243F6
:050C9B00DF027F0022D2
:100CA000EFD3940140037FFF22EDD3940340037FF1
:100CB000FF22EF25E0FFE5AF54FD4FF5AFED7006E5
:100CC00053B6FD53B5FDBD010653B6FD43B502BD98
:100CD000020643B60253B5FDBD030643B60243B553
:040CE000027F00226D
:100A9300EFD3948140037FFF22EBD3940340037F82
:100AA300FF22EF247F603004705890FEC4EDF0EB1A
:100AB300700653B6FB53B5FBBB010653B6FB43B5F8
:100AC30004BB020643B60453B5FBEB64037038431F
:100AD300B60443B504803090FEE4EDF0EB700653AA
:100AE300B6F753B5F7BB010653B6F743B508BB02D8
:100AF3000643B60853B5F7BB030D43B60843B50821
:0A0B0300800590FEE4EDF07F002273
:100EDB00EDD394035026ED700653EEFB53DFFBBDB1
:100EEB00010653EEFB43DF04BD020643EE0453DF62
:100EFB00FBBD030B43EE0443DF0480037FFF229013
:070F0B00FE62EFF07F0022FF
:0607BC008B138A1489155D
:1007C200EF64016003020907F522F523F524F525FC
:1007D200F526FF7E80900080E4F0A3DEFCE4FF7E3D
:1007E20080900000E4F0A3DEFC7E00AB13AA14A903
:1007F200151205D6FFE598543F4FF598EF64C06097
:1008020008EF644060030208BC90000212070E7FEA
:10081200807E8D7D5B7C001206588F198E188D1795
:100822008C16E4FFFE7D01FCAB19AA18A917A816C5
:10083200C31206EA40037FFF22C3E49519F519E4C7
:100842009518F51874019517F517E49516F516AB7A
:1008520013AA14A9159000011205EFFB6401702C74
:10086200C28E538EFE5389BF5389CF438E40AF1938
:10087200AE18AD17AC1678081206FB8F8D85198B52
:10088200C2AB5389BF538FFDD28E8062EB6402707C
:1008920026538EEF438E01538EF7438E04AF19AE6B
:1008A20018AD17AC1678081206FB8FD68519D753E8
:1008B200AFFB438E1080377FFF22AB13AA14A9151A
:1008C2001205D6FF70139000081205EFB40105431C
:1008D2008E20801A538EDF8015EFB48011900008AD
:1008E2001205EFB40105438780800353877FAB1362
:1008F200AA14A9159000071205EF7004C29C800289
:07090200D29C7F00227FFF61
:0109090022CB
:0A102A008F99752401E52470FC2263
:101007001205D6FF600C12102A740129F9E43AFA86
:0310170080EE2246
:05001D00AE0702102AED
:03002300020CE4E8
:100CE400C0E0C083C082C0D075D000C00730982057
:100CF400C298E525C394804003752500AF250525DA
:100D040074002FF582E43400F583E599F075260527
:100D1400309905C299752400D007D0D0D082D083F1
:030D2400D0E032EA
:03000000020A07EA
:0C0A0700787FE4F6D8FD75812A020A4EC3
:1005D600BB010689828A83E0225002E722BBFE0223
:0905E600E32289828A83E4932256
:1005EF00BB010CE58229F582E5833AF583E02250C1
:1005FF0006E92582F8E622BBFE06E92582F8E2220B
:0D060F00E58229F582E5833AF583E4932224
:10061C0075F008758200EF2FFFEE33FECD33CDCC95
:10062C0033CCC58233C5829BED9AEC99E582984018
:10063C000CF582EE9BFEED9AFDEC99FC0FD5F0D6F5
:10064C00E4CEFBE4CDFAE4CCF9A88222B800C1B91F
:10065C000059BA002DEC8BF084CFCECDFCE5F0CB5D
:10066C00F97818EF2FFFEE33FEED33FDEC33FCEB96
:10067C0033FB10D703994004EB99FB0FD8E5E4F951
:10068C00FA227818EF2FFFEE33FEED33FDEC33FC3E
:10069C00C933C910D7059BE99A4007EC9BFCE99A32
:1006AC00F90FD8E0E4C9FAE4CCFB2275F010EF2F77
:1006BC00FFEE33FEED33FDCC33CCC833C810D70777
:1006CC009BEC9AE899400AED9BFDEC9AFCE899F8B2
:0E06DC000FD5F0DAE4CDFBE4CCFAE4C8F92245
:1006EA00EB9FF5F0EA9E42F0E99D42F0E89C45F066
:0106FA0022DD
:1006FB00E8600FECC313FCED13FDEE13FEEF13FFDD
:03070B00D8F12200
:10070E00BB010DE58229F582E5833AF58302075D8B
:10071E005007E92582F8020750BBFE07E92582F84B
:10072E00020769E58229F582E5833AF583020776A9
:10002600E519240DF8E6051922780A300702780D3D
:10003600E475F0011207860205D62000EB7F2ED26A
:10004600008018EF540F2490D43440D4FF30040BB2
:10005600EF24BFB41A0050032461FFE51A600215AD
:100066001A051DE51D7002051C30070D780AE4759A
:10007600F001120786EF02073E02001D7403D20745
:100086008003E4C207F5198B0A8A0B890CE4F51A7A
:10009600F51CF51DE51A60077F2012006180F575D5
:1000A6001BFFC201C200C202C203C205C206C208C9
:1000B60012002FFF700D3007057F00120072AF1D72
:1000C600AE1C22B4255FC2D5C20412002FFF24D075
:1000D600B40A00501A75F00A781A30D50508B6FF2A
:1000E6000106C6A426F620D5047002D20380D924C0
:1000F600CFB41A00EF5004C2E5D204020272D20154
:1001060080C6D20080C0D20280BCD2D580BAD205C9
:1001160080B47F201200612002077401B51A0040E6
:10012600F1120026FF12006102009AD208D2068060
:1001360095120026FB120026FA120026F94A4B7089
:100146000679437A037BFF20022EE51A602A7E0099
:100156008E827583001205EF60060EEE651B70F049
:10016600C2D5EBC0E0EAC0E0E9C0E0EE1202B9D0C9
:10017600E0F9D0E0FAD0E0FB1205D6FF60AAEBC0AA
:10018600E0EAC0E0E9C0E0120061D0E02401F9D065
:10019600E03400FAD0E0FBE51B0460DCD51BD98017
:1001A600877BFF7A0279B5D202809C79108002792A
:1001B60008C206C2088008D2D5790A8004790AC224
:1001C600D5E51B047002F51BE4FAFDFEFF120026BE
:1001D600FC7B08200113120026FD7B1030000A125A
:1001E6000026FE120026FF7B20EC3382D592D550E6
:1001F60013C3E43000069FFFE49EFEE42001039D46
:10020600FDE49CFCE4CBF8C201EC700CCFCECDCC67
:10021600E824F8F870F38017C3EF33FFEE33FEEDF2
:1002260033FDEC33FCEB33FB994002FB0FD8E9EBD3
:10023600300105F8D0E0C448B201C0E00AEC4D4EEA
:100246004F78207B0070C2EAB51B0040BCC0E012AC
:1002560002BBD0F0D0E0200104C4C0E0C4B201C0AB
:10026600F012004AD0F0D5F0EB02009A1207960180
:10027600375301B15801084C01044201B54F01BD85
:0F0286004401BD49011D4301C35501A74601A70E
:100295004501A747036350010C2D01102E01332B97
:1002A500011423013120034C2A00CC480000012B06
:1002B5003F3F3F00790AA2D5200314300509B91044
:1002C500020404B9080104A2D52006025001042045
:1002D50002689202B51A005034C0E07F203003193D
:1002E5007F30A20272067205500F120312C202C2BB
:1002F50006C205C2087F30800F300503E9C0E01251
:100305000061300503D0E0F9D0E0B51ACC3005170F
:100315007F30B9100C1200617F583004077F788058
:1003250003B908031200613002057F2D0200617FC9
:10033500202008F87F2B2006F322920280CF286E1A
:10034500756C6C2900D2011200263001F8C20178C3
:100355001A30D50108F60200CC2D50434958120039
:10036500262403B405004001E490035E9312005275
:0D037500743A120052D203751A040201B14D
:100A130002090AE493A3F8E493A34003F68001F2E6
:100A230008DFF48029E493A3F85407240CC8C333E4
:100A3300C4540F4420C8834004F456800146F6DFB3
:100A4300E4800B0102040810204080901034E47EFF
:100A5300019360BCA3FF543F30E509541FFEE493A8
:100A6300A360010ECF54C025E060A840B8E493A36F
:100A7300FAE493A3F8E493A3C8C582C8CAC583CA9A
:100A8300F0A3C8C582C8CAC583CADFE9DEE780BE52
:01103A0000B5
:10073E00BB010689828A83F0225002F722BBFE019A
:02074E00F32294
:0D075000E6FB08E6F908E6FA08E6CBF82219
:0C075D00E0F8A3E0F9A3E0FAA3E0FB221F
:0D076900E2FB08E2F908E2FA08E2CBF82210
:10077600E493F8740193F9740293FA740393FB22D9
:10078600FAE6FB0808E6F925F0F618E6CA3AF62274
:10079600D083D082F8E4937012740193700DA3A3F2
:1007A60093F8740193F5828883E473740293686006
:0607B600EFA3A3A380DF06
:00000001FF
