:10063900120AA47F07C3EF648094835004C2C48064
:1006490002D2C4C2C20000D2C200001FC3EF64803C
:10065900948050E17F07EF64026004D2C48002C233
:10066900C4C2C20000D2C200001FC3EF64809480DC
:0D06790050E4C2C3120000D2C3000080FE96
:100AA400751D03751E1C7B007A00791D7F040200EE
:010AB400261B
:1009CC00750840750901750D00750CC2750B017524
:1009DC000A00750F01E4F510FB7A0079087F01120B
:0C09EC0004187D017F0112095753A23F3F
:0109F80022DC
:0F0AB5007D607C09ED1D70011C144C70F7DFF1A2
:010AC400220F
:10002600EFD3940740037FFF2212027AFED3940394
:1000360040037FFF22EF7041EE700B900001120229
:1000460093F45293529412027AB4010B9000011267
:1000560002934293F4529412027AFEB4020A90007A
:100066000112029342934294EEB4030D90000112E2
:100076000293FEF45293EE4294EF6401704312022F
:100086007AFE700B900001120293F452915292EE96
:10009600B4010B9000011202934291F452921202A3
:1000A6007AB4020A9000011202934291429212021D
:1000B6007AB4030D900001120293FEF45291EE42BF
:1000C60092EF6402704312027AFE700B90000112E6
:1000D6000293F452955296EEB4010B90000112026F
:1000E600934295F4529612027AB4020A90000112D3
:1000F60002934295429612027AB4030D90000112C1
:100106000293FEF45295EE4296EF64037043120298
:100116007AFE700B900001120293F452B152B2EEC5
:10012600B4010B90000112029342B1F452B21202D2
:100136007AB4020A90000112029342B142B212024C
:100146007AB4030D900001120293FEF452B1EE420E
:10015600B2EF6404704312027AFE700B9000011233
:100166000293F452B352B4EEB4010B9000011202A2
:100176009342B3F452B412027AB4020A9000011206
:10018600029342B342B412027AB4030D90000112F4
:100196000293FEF452B3EE42B4EF640570431202CA
:1001A6007AFE700B900001120293F452C952CAEE05
:1001B600B4010B90000112029342C9F452CA120212
:1001C6007AB4020A90000112029342C942CA12028C
:1001D6007AB4030D900001120293FEF452C9EE4266
:1001E600CAEF6406704312027AFE700B9000011289
:1001F6000293F452CB52CCEEB4010B9000011202E2
:100206009342CBF452CC12027AB4020A9000011245
:10021600029342CB42CC12027AB4030D9000011233
:100226000293FEF452CBEE42CCEF64077043120207
:100236007AFF700B900001120293F452E152E2EF42
:10024600B4010B90000112029342E1F452E2120251
:100256007AB4020A90000112029342E142E21202CB
:100266007AB4030D900001120293FFF452E1EF42BB
:04027600E27F002201
:10082100EFD3940140037FFF22EDD3940340037F74
:10083100FF22EF7004C2A98002D2A9ED700553B75F
:10084100FDC2B9BD010553B7FDD2B9BD020543B71C
:0E08510002C2B9BD030543B702D2B97F00222F
:10085F00EFD3940140037FFF22EDD3940340037F36
:10086F00FF22EF7004C2AB8002D2ABED700553B71D
:10087F00F7C2BBBD010553B7F7D2BBBD020543B7E6
:0E088F0008C2BBBD030543B708D2BB7F0022E1
:100A1C00EFD3940140037FFF22EDD3940340037F77
:100A2C00FF22EF25E025E0FFE5AF54FB4FF5AFE4E7
:020A3C00FF2297
:100A3E00EFD3940140037FFF22EDD3940340037F55
:100A4E00FF22EFC43354E0FFE5AF54DF4FF5AFE4C0
:020A5E00FF2275
:1009F900EFD3940140037FFF22EDD3940340037F9B
:100A0900FF22EFC4333354C0FFE5AF54BF4FF5AFF6
:030A1900E4FF22D5
:10089D00EFD3940140037FFF22EDD3940340037FF8
:1008AD00FF22EF7004C2A88002D2A8ED700553B7E5
:1008BD00FEC2B8BD010553B7FED2B8BD020543B7A0
:0E08CD0001C2B8BD030543B701D2B87F0022B7
:1008DB00EFD3940140037FFF22EDD3940340037FBA
:1008EB00FF22EF7004C2AA8002D2AAED700553B7A3
:1008FB00FBC2BABD010553B7FBD2BABD020543B764
:0E090B0004C2BABD030543B704D2BA7F00226E
:100A7900EFD3940140037FFF22EFC454F0FFE58FC9
:080A890054EF4FF58FE4FF224A
:100A6000EFD3940140037FFF22EFC43354E0FFE54E
:090A70008F54DF4FF58FE4FF22E3
:10000300EFD3940140037FFF22EFC4333354C0FF87
:0A001300E58F54BF4FF58FE4FF2284
:10091900EFD3940140037FFF22EDD3940340037F7B
:10092900FF22EF7004C2AD8002D2ADED700553B75E
:10093900DFC2BDBD010553B7DFD2BDBD020543B757
:0E09490020C2BDBD030543B720D2BD7F0022F2
:10068600EDD3940340037FFF22EF30E10543E620DC
:10069600800353E6DFEF30E00543E610800353E6C0
:1006A600EFED700653B6DF53B5DFBD010653B6DF77
:1006B60043B520BD020643B62053B5DFBD0306434E
:0806C600B62043B5207F00229D
:1005E000EFD3940140037FFF22EBD3940340037FBA
:1005F000FF22BF0112ED90FE817006E0547FF08073
:1006000011E04480F0800BEF700890FE83E0548787
:100610004DF0EB700653B6DF53B5DFBB010653B6A2
:10062000DF43B520BB020643B62053B5DFBB03064C
:0906300043B62043B5207F0022EF
:10095700EFD3940140037FFF22EDD3940340037F3D
:10096700FF22EF7004C2AC8002D2ACED700553B722
:10097700EFC2BCBD010553B7EFD2BCBD020543B7FB
:0E09870010C2BCBD030543B710D2BC7F0022D6
:1007E100EFD3940140037FFF22EDD3940340037FB5
:1007F100FF22E5AF54FE4FF5AFED700653B6FE5341
:10080100B5FEBD010653B6FE43B501BD020643B6B2
:100811000153B5FEBD030643B60143B5017F002276
:1006CE00EFD3940140037FFF22EDD3940340037FC9
:1006DE00FF22EF33333354F8FFE5AF54F74FF5AF46
:1006EE00ED700653EEFE53DFFEBD010653EEFE43E4
:1006FE00DF01BD020643EE0153DFFEBD030643EEEE
:07070E000143DF017F00221F
:10071500EFD3940140037FFF22EDD3940340037F81
:10072500FF22EFC454F0FFE5AF54EF4FF5AFED7086
:100735000653EEFD53DFFDBD010653EEFD43DF021B
:10074500BD020643EE0253DFFDBD030643EE024341
:05075500DF027F00221D
:10075A00EFD3940140037FFF22EDD3940340037F3C
:10076A00FF22EF25E0FFE5AF54FD4FF5AFED700630
:10077A0053B6FD53B5FDBD010653B6FD43B502BDE3
:10078A00020643B60253B5FDBD030643B60243B59E
:04079A00027F0022B8
:10056600EFD3948140037FFF22EBD3940340037FB4
:10057600FF22EF247F603004705890FEC4EDF0EB4C
:10058600700653B6FB53B5FBBB010653B6FB43B52A
:1005960004BB020643B60453B5FBEB640370384351
:1005A600B60443B504803090FEE4EDF0EB700653DC
:1005B600B6F753B5F7BB010653B6F743B508BB020A
:1005C6000643B60853B5F7BB030D43B60843B50853
:0A05D600800590FEE4EDF07F0022A6
:10099500EDD394035026ED700653EEFB53DFFBBDFC
:1009A500010653EEFB43DF04BD020643EE0453DFAD
:1009B500FBBD030B43EE0443DF0480037FFF22905E
:0709C500FE62EFF07F00224B
:060418008B118A1289130A
:10041E00EF64016003020563F518F519F51AF51B73
:10042E00F51CFF7E80900080E4F0A3DEFCE4FF7EEE
:10043E0080900000E4F0A3DEFC7E00AB11AA12A9AE
:10044E001312027AFFE598543F4FF598EF64C0609F
:10045E0008EF644060030205189000021203B27F99
:10046E00807E8D7D5B7C001202FC8F178E168D15A3
:10047E008C14E4FFFE7D01FCAB17AA16A915A81477
:10048E00C312038E40037FFF22C3E49517F517E4D2
:10049E009516F51674019515F515E49514F514AB2E
:1004AE0011AA12A913900001120293FB6401702C81
:1004BE00C28E538EFE5389BF5389CF438E40AF17E2
:1004CE00AE16AD15AC14780812039F8F8D85178B61
:1004DE00C2AB5389BF538FFDD28E8062EB64027024
:1004EE0026538EEF438E01538EF7438E04AF17AE15
:1004FE0016AD15AC14780812039F8FD68517D753F7
:10050E00AFFB438E1080377FFF22AB11AA12A913C7
:10051E0012027AFF7013900008120293B401054381
:10052E008E20801A538EDF8015EFB4801190000854
:10053E00120293B40105438780800353877FAB116A
:10054E00AA12A9139000071202937004C29C800293
:07055E00D29C7F00227FFF09
:010565002273
:0A0AD1008F99751A01E51A70FC22D6
:100A910012027AFF600C120AD1740129F9E43AFAC0
:030AA10080EE22C2
:05001D00AE07020AD14C
:0300230002079E33
:10079E00C0E0C083C082C0D075D000C007309820A2
:1007AE00C298E51BC394804003751B00AF1B051B4D
:1007BE0074002FF582E43400F583E599F0751C057D
:1007CE00309905C299751A00D007D0D0D082D08347
:0307DE00D0E03236
:03000000020AC52C
:0C0AC500787FE4F6D8FD75811E0206392A
:10027A00BB010689828A83E0225002E722BBFE0282
:09028A00E32289828A83E49322B5
:10029300BB010CE58229F582E5833AF583E0225020
:1002A30006E92582F8E622BBFE06E92582F8E2226A
:0D02B300E58229F582E5833AF583E4932284
:1002C00075F008758200EF2FFFEE33FECD33CDCCF5
:1002D00033CCC58233C5829BED9AEC99E582984078
:1002E0000CF582EE9BFEED9AFDEC99FC0FD5F0D655
:1002F000E4CEFBE4CDFAE4CCF9A88222B800C1B97F
:100300000059BA002DEC8BF084CFCECDFCE5F0CBBC
:10031000F97818EF2FFFEE33FEED33FDEC33FCEBF5
:1003200033FB10D703994004EB99FB0FD8E5E4F9B0
:10033000FA227818EF2FFFEE33FEED33FDEC33FC9D
:10034000C933C910D7059BE99A4007EC9BFCE99A91
:10035000F90FD8E0E4C9FAE4CCFB2275F010EF2FD6
:10036000FFEE33FEED33FDCC33CCC833C810D707D6
:100370009BEC9AE899400AED9BFDEC9AFCE899F811
:0E0380000FD5F0DAE4CDFBE4CCFAE4C8F922A4
:10038E00EB9FF5F0EA9E42F0E99D42F0E89C45F0C5
:01039E00223C
:10039F00E8600FECC313FCED13FDEE13FEEF13FF3C
:0303AF00D8F12260
:1003B200BB010DE58229F582E5833AF5830203EF5D
:1003C2005007E92582F80203E2BBFE07E92582F81D
:1003D2000203FBE58229F582E5833AF583020408EC
:0D03E200E6FB08E6F908E6FA08E6CBF8228B
:0C03EF00E0F8A3E0F9A3E0FAA3E0FB2291
:0D03FB00E2FB08E2F908E2FA08E2CBF82282
:10040800E493F8740193F9740293FA740393FB224A
:00000001FF
