:10167C0073746172742E2E2E0A006164635F76613E
:10168C006C75653D25640A00765F7265733D252E89
:10169C003266760A006F5F7265733D252E32667670
:0F16AC000A006375725F74656D703D25640A00F6
:100E5500616A0000E3F2D8A8CDDAC380B99BB02956
:100E6500A7259E8D965C8E908725801779637304E0
:100E75006CF8673B61CA5CA157BC53194EB44A8BE9
:100E8500469B42E03F583C0138D735D933053058A9
:100E95002DD02B6A2927270224FC231121411F8BE2
:100EA5001DEC1C631AF019911844170A15E114C7B3
:100EB50013BD12C111D210F0101A0F500E900DDA99
:100EC5000D2E0C8B0BF10B5E0AD30A4F09D3095C6F
:100ED50008EC0881081C07BA0761070A06B8066A04
:100EE500062005D905960556051A04E004A90475DA
:100EF5000444041403E803BD0394036D0348032568
:100F0500030302E302C502A7028C027102580240E4
:100F15000228021201FD01E901D601C401B201A1B5
:100F250001910182017301660158014B013E0132B5
:100F35000127011C0112010800FE00F500EC00E488
:100F450000DC00D400CD00C600BF00B800B200AC84
:100F550000A600A0009B00960091008C00870083EE
:100F6500007E007A00760073006F006B00680065F4
:100F75000061005E005B0059005600530051004EB1
:100F8500004C004A0047004500430041003F003D3A
:100F9500003C003A0038003700350034003200319B
:100FA500002F002E002D002B002A002900280027E5
:0E0FB500002600250024002300220021002039
:10111200D2AF1219581218661200037BFF7A1679A1
:101122007C1207F47F0C1213C68E228F237BFF7A68
:101132001679868522318523321207F4AC22AD233B
:10114200E4120342E4FBFA7920784012011EE4FB28
:10115200FA798078451202278F278E268D258C24D6
:101162007BFF7A1679948F348E338D328C3112074D
:10117200F4AB27AA26A925A8247F337E337D537C8E
:1011820040120029C004C005C006C007E4FFFE7D6E
:10119200207C41AB27AA26A925A82412011ED00330
:1011A200D002D001D0001202278F2B8E2A8D298CDB
:1011B200287BFF7A1679A18F348E338D328C3112CF
:1011C20007F4E4FFFE7DC87C42AB2BAA2AA929A81A
:1011D2002812011E12037B12120BEF24C9F52DEE09
:1011E20034FFF52C7BFF7A1679AEF531852D32125C
:1011F20007F47FFA1219697FFA1219697FFA121934
:09120200697FFA12196902112634
:10195800752E01752F107B007A00792EE4FF020C9A
:01196800017D
:10186600752E40752F017533007532C275310175BD
:101876003000753501E4F536FB7A00792E7F0112CA
:0C1886000FC47D017F011217F153A23F37
:011892002233
:10000300752E1FE4F52F753001F531753201FB7A3A
:0B00130000792E12148C7F0102198569
:04120B008E2E8F2F65
:10120F00E4F532F533F537F536F535F534F5387550
:10121F0039B5900000E0FEA3E0FFC3E52F9FFFE587
:10122F002E9EFE121979AC06AD07EC1203428F3DCC
:10123F008E3C8D3B8C3A753000753101C3E531958D
:0D124F0039E5386480F8E530648098505F20
:10125C00E53125E0FFE53033FE74002FF582740094
:10126C003EF583E0FEA3E0FFC3E52F9FFFE52E9E36
:10127C00FE121979AC06AD07EC1203428F418E4079
:10128C008D3F8C3EAB3DAA3CA93BA83A1202C460F0
:10129C0014401285413D85403C853F3B853E3A8557
:0512AC003032853133F2
:0E12B1000531E531709405308090AE32AF33D8
:0112BF00220C
:100C0100EFD3940740037FFF2212059EFED3940386
:100C110040037FFF22EF7041EE700B90000112053F
:100C2100B7F45293529412059EB4010B9000011235
:100C310005B74293F4529412059EFEB4020A900045
:100C4100011205B742934294EEB4030D90000112D4
:100C510005B7FEF45293EE4294EF6401704312051E
:100C61009EFE700B9000011205B7F452915292EE64
:100C7100B4010B9000011205B74291F45292120592
:100C81009EB4020A9000011205B7429142921205E8
:100C91009EB4030D9000011205B7FEF45291EE428D
:100CA10092EF6402704312059EFE700B90000112D8
:100CB10005B7F452955296EEB4010B90000112055E
:100CC100B74295F4529612059EB4020A90000112A1
:100CD10005B74295429612059EB4030D900001128C
:100CE10005B7FEF45295EE4296EF64037043120588
:100CF1009EFE700B9000011205B7F452B152B2EE94
:100D0100B4010B9000011205B742B1F452B21205C1
:100D11009EB4020A9000011205B742B142B2120517
:100D21009EB4030D9000011205B7FEF452B1EE42DC
:100D3100B2EF6404704312059EFE700B9000011225
:100D410005B7F452B352B4EEB4010B900001120591
:100D5100B742B3F452B412059EB4020A90000112D4
:100D610005B742B342B412059EB4030D90000112BF
:100D710005B7FEF452B3EE42B4EF640570431205B9
:100D81009EFE700B9000011205B7F452C952CAEED3
:100D9100B4010B9000011205B742C9F452CA120501
:100DA1009EB4020A9000011205B742C942CA120557
:100DB1009EB4030D9000011205B7FEF452C9EE4234
:100DC100CAEF6406704312059EFE700B900001127B
:100DD10005B7F452CB52CCEEB4010B9000011205D1
:100DE100B742CBF452CC12059EB4020A9000011214
:100DF10005B742CB42CC12059EB4030D90000112FF
:100E010005B7FEF452CBEE42CCEF640770431205F6
:100E11009EFF700B9000011205B7F452E152E2EF10
:100E2100B4010B9000011205B742E1F452E2120540
:100E31009EB4020A9000011205B742E142E2120596
:100E41009EB4030D9000011205B7FFF452E1EF4289
:040E5100E27F00221A
:1016BB00EFD3940140037FFF22EDD3940340037FCC
:1016CB00FF22EF7004C2A98002D2A9ED700553B7B7
:1016DB00FDC2B9BD010553B7FDD2B9BD020543B774
:0E16EB0002C2B9BD030543B702D2B97F002287
:1016F900EFD3940140037FFF22EDD3940340037F8E
:10170900FF22EF7004C2AB8002D2ABED700553B774
:10171900F7C2BBBD010553B7F7D2BBBD020543B73D
:0E17290008C2BBBD030543B708D2BB7F002238
:1018B600EFD3940140037FFF22EDD3940340037FCF
:1018C600FF22EF25E025E0FFE5AF54FB4FF5AFE43F
:0218D600FF22EF
:1018D800EFD3940140037FFF22EDD3940340037FAD
:1018E800FF22EFC43354E0FFE5AF54DF4FF5AFE418
:0218F800FF22CD
:10189300EFD3940140037FFF22EDD3940340037FF2
:1018A300FF22EFC4333354C0FFE5AF54BF4FF5AF4E
:0318B300E4FF222D
:10173700EFD3940140037FFF22EDD3940340037F4F
:10174700FF22EF7004C2A88002D2A8ED700553B73C
:10175700FEC2B8BD010553B7FED2B8BD020543B7F7
:0E17670001C2B8BD030543B701D2B87F00220E
:10177500EFD3940140037FFF22EDD3940340037F11
:10178500FF22EF7004C2AA8002D2AAED700553B7FA
:10179500FBC2BABD010553B7FBD2BABD020543B7BB
:0E17A50004C2BABD030543B704D2BA7F0022C6
:10192D00EFD3940140037FFF22EFC454F0FFE58F06
:08193D0054EF4FF58FE4FF2287
:10191400EFD3940140037FFF22EFC43354E0FFE58B
:091924008F54DF4FF58FE4FF2220
:1018FA00EFD3940140037FFF22EFC4333354C0FF78
:0A190A00E58F54BF4FF58FE4FF2274
:1017B300EFD3940140037FFF22EDD3940340037FD3
:1017C300FF22EF7004C2AD8002D2ADED700553B7B6
:1017D300DFC2BDBD010553B7DFD2BDBD020543B7AF
:0E17E30020C2BDBD030543B720D2BD7F00224A
:1014E100EDD3940340037FFF22EF30E10543E62073
:1014F100800353E6DFEF30E00543E610800353E657
:10150100EFED700653B6DF53B5DFBD010653B6DF0D
:1015110043B520BD020643B62053B5DFBD030643E4
:08152100B62043B5207F002233
:10143300EFD3940140037FFF22EBD3940340037F58
:10144300FF22BF0112ED90FE817006E0547FF08011
:1014530011E04480F0800BEF700890FE83E0548726
:101463004DF0EB700653B6DF53B5DFBB010653B641
:10147300DF43B520BB020643B62053B5DFBB0306EB
:0914830043B62043B5207F00228E
:1017F100EFD3940140037FFF22EDD3940340037F95
:10180100FF22EF7004C2AC8002D2ACED700553B779
:10181100EFC2BCBD010553B7EFD2BCBD020543B752
:0E18210010C2BCBD030543B710D2BC7F00222D
:10163C00EFD3940140037FFF22EDD3940340037F4B
:10164C00FF22E5AF54FE4FF5AFED700653B6FE53D7
:10165C00B5FEBD010653B6FE43B501BD020643B649
:10166C000153B5FEBD030643B60143B5017F00220D
:10152900EFD3940140037FFF22EDD3940340037F5F
:10153900FF22EF33333354F8FFE5AF54F74FF5AFDC
:10154900ED700653EEFE53DFFEBD010653EEFE437A
:10155900DF01BD020643EE0153DFFEBD030643EE84
:071569000143DF017F0022B6
:10157000EFD3940140037FFF22EDD3940340037F18
:10158000FF22EFC454F0FFE5AF54EF4FF5AFED701D
:101590000653EEFD53DFFDBD010653EEFD43DF02B2
:1015A000BD020643EE0253DFFDBD030643EE0243D8
:0515B000DF027F0022B4
:1015B500EFD3940140037FFF22EDD3940340037FD3
:1015C500FF22EF25E0FFE5AF54FD4FF5AFED7006C7
:1015D50053B6FD53B5FDBD010653B6FD43B502BD7A
:1015E500020643B60253B5FDBD030643B60243B535
:0415F500027F00224F
:10134C00EFD3948140037FFF22EBD3940340037FC0
:10135C00FF22EF247F603004705890FEC4EDF0EB58
:10136C00700653B6FB53B5FBBB010653B6FB43B536
:10137C0004BB020643B60453B5FBEB64037038435D
:10138C00B60443B504803090FEE4EDF0EB700653E8
:10139C00B6F753B5F7BB010653B6F743B508BB0216
:1013AC000643B60853B5F7BB030D43B60843B5085F
:0A13BC00800590FEE4EDF07F0022B2
:10182F00EDD394035026ED700653EEFB53DFFBBD53
:10183F00010653EEFB43DF04BD020643EE0453DF04
:10184F00FBBD030B43EE0443DF0480037FFF2290B5
:07185F00FE62EFF07F0022A2
:060FC4008B378A388939E1
:100FCA00EF6401600302110FF508F509F50AF50B44
:100FDA00F50CFF7E809001EAE4F0A3DEFCE4FF7EDC
:100FEA008090016AE4F0A3DEFC7E00AB37AA38A940
:100FFA003912059EFFE598543F4FF598EF64C0609B
:10100A0008EF644060030210C49000021206F67FE3
:10101A00807E8D7D5B7C001206328F3D8E3C8D3B3F
:10102A008C3AE4FFFE7D01FCAB3DAA3CA93BA83A01
:10103A00C31206D240037FFF22C3E4953DF53DE487
:10104A00953CF53C7401953BF53BE4953AF53AAB92
:10105A0037AA38A9399000011205B7FB6401702C30
:10106A00C28E538EFE5389BF5389CF438E40AF3D04
:10107A00AE3CAD3BAC3A78081206E38F8D853D8BCA
:10108A00C2AB5389BF538FFDD28E8062EB6402706C
:10109A0026538EEF438E01538EF7438E04AF3DAE37
:1010AA003CAD3BAC3A78081206E38FD6853DD75360
:1010BA00AFFB438E1080377FFF22AB37AA38A9399E
:1010CA0012059EFF70139000081205B7B40105437C
:1010DA008E20801A538EDF8015EFB480119000089D
:1010EA001205B7B40105438780800353877FAB3766
:1010FA00AA38A9399000071205B77004C29C800269
:07110A00D29C7F00227FFF51
:0111110022BB
:0A1990008F99750A01E50A70FC2228
:1019450012059EFF600C121990740129F9E43AFA08
:0319550080EE22FF
:05001E00AE070219907D
:030023000215F9CA
:1015F900C0E0C083C082C0D075D000C00730982039
:10160900C298E50BC394804003750B00AF0B050B23
:10161900746A2FF582E43401F583E599F0750C05B8
:10162900309905C299750A00D007D0D0D082D083ED
:03163900D0E032CC
:10148C009000011205B7FFE5DE54F04FF5DE900039
:10149C00021205B7C43354E0FFE5DE54DF4FF5DE2E
:1014AC0012059EFFD3941F502B9000031205B7FE1C
:1014BC00D39401501F9000041205B7FDD394035030
:1014CC0013EDC43354E0FDEEC433333354804D4F2D
:0514DC0090FEA8F022C3
:0B198500BF010443BC802253BC7F2242
:1013C600EFD3940F40028060E4F5BDF5BEE5BC5452
:1013D600F044404FF5BC0000000000000000000093
:1013E600E4FDE5BC30E53D53BCDFE5DEAFBD30E5F1
:1013F6000EEFFEACBEECFBEEF52EEBF52F80207566
:101406002E008F2FE5BEC4540FFBE52FC4F8540FF2
:10141600C868FFE52EC454F048F52EEF4BF52FAE05
:0C1426002EAF2F220DBDFABA7E107F0001
:011432002297
:0F1969007D607C09ED1D70011C144C70F7DFF1DF
:01197800224C
:100026000203E7E86480F8E933E83360110460F01E
:10003600ED33EC337009E8FCE9FDEAFEEBFF220440
:1000460060DED3EB9FEA9EE99DE8C2E78CF0C2F73B
:1000560095F0400CE8CCF8E9CDF9EACEFAEBCFFB07
:100066001203B285D0F05804700320D5B3E80470AB
:10007600075002B2D50203F192D5EC0460F7E4CC46
:10008600C0E0C398F8603B94186008400DD0E0FBD0
:100096000203C9E4FBFAC9FC8028E830E406E4C997
:1000A600FBE4CAFCE830E305E4C9CACBFCE8540724
:1000B6006010F8C3E913F9EA13FAEB13FBEC13FC2F
:1000C600D8F130F52FC3E49CFCEF9BFFEE9AFEEDD2
:1000D60099FDD0E0FBEF4E4D4C701222DB0302037C
:1000E600EEEC2CFCEF33FFEE33FEED33FDED30E7A7
:1000F600EB0203C9EF2BFFEE3AFEED39FDD0E0FB34
:1001060050130BBB00030203F1ED13FDEE13FEEFDC
:0801160013FFEC13FC0203C906
:10011E00EC4D6011E8497017ED33EC3304600DE4DB
:10012E00FCFFFEFD22E933E8330470F80203E71208
:10013E0003B258046009E4CC248150062850090209
:10014E0003F12840030203EEC0E0EB4A7044B9808D
:10015E0006D0E0FB0203DDEF4E701CBD8008EBFF06
:10016E00EAFEE9FD80EBE98DF0A4FEE5F002020760
:10017E00E9CDF9EAFEEBFFEF89F0A4FCE5F0CE89BC
:10018E00F0A42EFFE435F0CD89F0A42DFEE435F079
:10019E008067EF4E7005BD80D780C3EF8BF0A4ACA7
:1001AE00F0EE8BF0A42CFCE435F0F8EF8AF0A42CE2
:1001BE00E5F038FCE433CB8DF0A42CFCE5F03BF8F5
:1001CE00EE8AF0A42CFCE5F038F8E433CF89F0A4E5
:1001DE002CFCE5F038CF3400CE89F0A42FFFE5F0EB
:1001EE003EFEE433C98DF0A42EFEE5F039CD8AF043
:1001FE00A42FFFE5F03EFEE43DFD33D0E0FB5007BB
:10020E000BBB000F0203F1EC2CFCEF33FFEE33FEC1
:06021E00ED33FD0203C9EF
:100224000203F1EC5D046005E8590470030203E77E
:100234001203B2580460F6EC4860F2EC7004FDFE60
:10024400FF22C860DB2481C85009C39860025006AD
:100254000203EE9850CAF582E9294B4A7005AB8235
:100264000203DD75F0007C1A7880C3EF9BEE9AEDF3
:1002740099400DC3EF9BFFEE9AFEED99FDE842F025
:10028400DC23ACF0D0E0FFD0E0FED0E0FDAB822078
:10029400E7101BEB60BAEC2CFCEF33FFEE33FEED02
:1002A40033FD0203C9E803F830E705C0F075F00038
:1002B400EF2FFFEE33FEED33FD40B830E7C280AAE6
:1002C40074F8CC6480CCC86480C8F58204604FC3E1
:1002D400EB9FF5F0EA9E42F0E99D42F0E89C45F080
:1002E400603C501DE5825FFFE582D313CB5BCBF40A
:1002F4002B5582FB50280ABA002409B90020088033
:100304001DE5825BFBE582D313CF5FCFF4C3132FCC
:100314005582FF50090EBE00050DBD00010CC3EB54
:100324009FF5F0EA9E42F0E99D42F0E89C45F060BA
:0903340007CC4820E701B3EC22DC
:10033D0075F020800E75F010800575F0087D007E3B
:10034D00007F003392D530D5031206C4EC33401034
:10035D00EF33FFEE33FEED33FDEC33FCD5F0ED2244
:0E036D00E5F0247EA2D513CC92E7CDCEFF2280
:10037B00EDD2E7CD33EC3392D524814006E4FFFE7A
:10038B00FDFC22FCE4CFCECDCC24E0501174FF80D9
:10039B00EDC3CC13CCCD13CDCE13CECF13CF047076
:0703AB00F030D5DE0206C4AC
:10079200E5452431F8E6054522782E300702783106
:1007A200E475F00112072602059E2000EB7F2ED28F
:1007B200008018EF540F2490D43440D4FF30040B3F
:1007C200EF24BFB41A0050032461FFE5466002150E
:1007D200460549E5497002054830070D782EE47553
:1007E200F001120726EF0205E402001E7403D2078D
:1007F2008003E4C207F5458B2E8A2F8930E4F54643
:10080200F548F549E54660077F201207CD80F5756A
:1008120047FFC201C200C202C203C205C206C20829
:1008220012079BFF700D3007057F001207DEAF49EC
:10083200AE4822B4255FC2D5C20412079BFF24D062
:10084200B40A00501A75F00A784630D50508B6FF8A
:100852000106C6A426F620D5047002D20380D9244C
:10086200CFB41A00EF5004C2E5D204020ACBD2017F
:1008720080C6D20080C0D20280BCD2D580BAD20556
:1008820080B47F201207CD2002077401B5460040D4
:10089200F1120792FF1207CD020806D208D2068093
:1008A20095120792FB120792FA120792F94A4B70BD
:1008B2000679C27A0B7BFF20022EE546602A7E0073
:1008C2008E827583001205B760060EEE654770F0E2
:1008D200C2D5EBC0E0EAC0E0E9C0E0EE120B2BD0DB
:1008E200E0F9D0E0FAD0E0FB12059EFF60AAEBC06F
:1008F200E0EAC0E0E9C0E01207CDD0E02401F9D07F
:10090200E03400FAD0E0FBE5470460DCD547D9804B
:1009120087D20280A2120B0E60F7E5477001041223
:1009220003FCA947600DE547600914F547120BB5B2
:10093200EF60F3EA30E702F404C3995077EAF42552
:10094200470430E701E404F547800D120B0E60C145
:10095200EA054725471203FCEA7844F630E701E44A
:10096200254704D5470420050114120B2BE4C0E0EF
:10097200120BB57844E6601320E70714F61207B5A8
:10098200802204F6D0E014C0E07F001207B5E547EC
:1009920060071207AC1547800B3005031207ACD075
:1009A200E0020806D0E00480C5120B0E60A0E54705
:1009B200041203FC7844EAF6E547200502600104CC
:0509C2002404120B2BC0
:1009C70074FF04C0E0120BB51207B5E54720050216
:1009D70060031207ACD0E0B547E87F451207BF7840
:1009E70044E67F2B30E7047F2DF404C0E01207CDE7
:1009F700D0E075F00A84C0F01207B6D0E01207B64F
:100A0700020806791080027908C206C2088008D257
:100A1700D5790A8004790AC2D5E547047002F547FB
:100A2700E4FAFDFEFF120792FC7B08200113120770
:100A370092FD7B1030000A120792FE120792FF7B8D
:100A470020EC3382D592D55013C3E43000069FFFC4
:100A5700E49EFEE42001039DFDE49CFCE4CBF8C288
:100A670001EC700CCFCECDCCE824F8F870F38017EA
:100A7700C3EF33FFEE33FEED33FDEC33FCEB33FB1B
:100A8700994002FB0FD8E9EB300105F8D0E0C448E4
:100A9700B201C0E00AEC4D4E4F78207B0070C2EAED
:100AA700B5470040BCC0E0120B2DD0F0D0E02001CC
:100AB70004C4C0E0C4B201C0F01207B6D0F0D5F04C
:100AC700EB02080612073608A3530A0A5808744CA3
:100AD7000870420A0E4F0A16440A16490889430A43
:100AE7001C55094D4609AB450917470BE2500878D5
:100AF7002D087C2E089F2B088023089D200BCB2ACE
:100B070008384800000897E547B4FF037547061201
:100B17000792FC120792FD120792FE120792FF78C6
:100B27003D02042B790AA2D5200314300509B91018
:100B3700020404B9080104A2D520060250010420CA
:100B470002689202B546005034C0E07F2030031996
:100B57007F30A20272067205500F120B84C202C2C6
:100B670006C205C2087F30800F300503E9C0E012D6
:100B770007CD300503D0E0F9D0E0B546CC300517F6
:100B87007F30B9100C1207CD7F583004077F78806B
:100B970003B908031207CD3002057F2D0207CD7F69
:100BA700202008F87F2B2006F322920280CF7F00B7
:100BB700B407005005243DF8E6FF22286E756C6CDB
:100BC7002900D2011207923001F8C201784630D5C8
:100BD7000108F60208382D5043495812079224039A
:100BE700B405004001E4900BDD931207BE743A127E
:0A0BF70007BED203754604020A0A85
:1003B200E9D2E7C933E833F892D5EDD2E7CD33EC91
:0703C20033FC5002B2D5220A
:1003C900EC30E7100FBF000C0EBE00080DBD000495
:1003D9000BEB6014A2D5EB13FCED92E7FD2274FF41
:1003E900FCFDFEFF22E480F8A2D574FF13FC7D809A
:0303F900E480EFAE
:1003FC00F920E72824F950037907E4F42402FB18C8
:10040C00DBFDE624FB5014E9600DE4F618E604F677
:0F041C00B40A08E4F6D9F57401F60A22C2D52213
:10042B00ED33EC3392D5FA602AB4FF33EDC2E77BA0
:10043B00FF60067A047950E4227A04795920D504B6
:10044B007A047954224E614E002B494E46002D49B9
:10045B004E4600E47A08F608DAFC7B00740722E8C3
:10046B00C0E0ECC0E0EDC0E0EEC0E0EFC0E0EA754C
:10047B00F010A4CAABF075F04DA42BFBE435F0FCE7
:10048B00EA2410FAEB34C5FBEC34D9FCEDC2E7FFE0
:10049B0075F056A4F42411C5F0F434C58FF0A42ADA
:1004AB00E5F03BE43CF620E71412055ED0E0FFD00C
:1004BB00E0FED0E0FDD0E0FC1202278014F4041221
:1004CB00055ED0E0FFD0E0FED0E0FDD0E0FC1201F5
:1004DB001ED0E0F8E6FAEDD2E7CD33EC332482FB05
:1004EB00E4C3CF33CFCE33CECD33CD33DBF37B076A
:1004FB0075F00A846004F6081B0AE5F0F6088FF025
:10050B00740AA4FFACF08EF0740AA42CFEACF0506D
:10051B00010C8DF0740AA42CFDE435F0F608DBDE3B
:03052B0074072230
:10052E003F8000004120000042C80000447A0000D5
:10053E00461C400047C35000497424004B18968057
:10054E004CBEBC205A0E1BCA6753C21C749DC5AE4E
:10055E00FB60065407601C232312058CEB54386095
:10056E000912057812058712011EECF8EDF9EEFA64
:10057E00EFCB22EB12058780F1543803241C900533
:10058E002EFE93FC0EEE93FD0EEE930ECE93FF22F7
:030000000212C029
:0C12C000787FE4F6D8FD75814902130721
:10059E00BB010689828A83E0225002E722BBFE025B
:0905AE00E32289828A83E493228E
:1005B700BB010CE58229F582E5833AF583E02250F9
:1005C70006E92582F8E622BBFE06E92582F8E22243
:0D05D700E58229F582E5833AF583E493225D
:1005E400BB010689828A83F0225002F722BBFE01F6
:0205F400F322F0
:1005F60075F008758200EF2FFFEE33FECD33CDCCBC
:1006060033CCC58233C5829BED9AEC99E58298403E
:100616000CF582EE9BFEED9AFDEC99FC0FD5F0D61B
:10062600E4CEFBE4CDFAE4CCF9A88222B800C1B945
:100636000059BA002DEC8BF084CFCECDFCE5F0CB83
:10064600F97818EF2FFFEE33FEED33FDEC33FCEBBC
:1006560033FB10D703994004EB99FB0FD8E5E4F977
:10066600FA227818EF2FFFEE33FEED33FDEC33FC64
:10067600C933C910D7059BE99A4007EC9BFCE99A58
:10068600F90FD8E0E4C9FAE4CCFB2275F010EF2F9D
:10069600FFEE33FEED33FDCC33CCC833C810D7079D
:1006A6009BEC9AE899400AED9BFDEC9AFCE899F8D8
:0E06B6000FD5F0DAE4CDFBE4CCFAE4C8F9226B
:0E06C400C3E49FFFE49EFEE49DFDE49CFC2247
:1006D200EB9FF5F0EA9E42F0E99D42F0E89C45F07E
:0106E20022F5
:1006E300E8600FECC313FCED13FDEE13FEEF13FFF5
:0306F300D8F12219
:1006F600BB010DE58229F582E5833AF58302076998
:100706005007E92582F802075CBBFE07E92582F857
:10071600020775E58229F582E5833AF583020782A9
:10072600FAE6FB0808E6F925F0F618E6CA3AF622D4
:10073600D083D082F8E4937012740193700DA3A352
:1007460093F8740193F5828883E473740293686066
:06075600EFA3A3A380DF66
:0C197900EE30E707C3E49FFFE49EFE226F
:1012CC00021112E493A3F8E493A34003F68001F215
:1012DC0008DFF48029E493A3F85407240CC8C33323
:1012EC00C4540F4420C8834004F456800146F6DFF2
:1012FC00E4800B0102040810204080900E55E47E1F
:10130C00019360BCA3FF543F30E509541FFEE493E6
:10131C00A360010ECF54C025E060A840B8E493A3AD
:10132C00FAE493A3F8E493A3C8C582C8CAC583CAD8
:10133C00F0A3C8C582C8CAC583CADFE9DEE780BE90
:010FC300002D
:0D075C00E6FB08E6F908E6FA08E6CBF8220D
:0C076900E0F8A3E0F9A3E0FAA3E0FB2213
:0D077500E2FB08E2F908E2FA08E2CBF82204
:10078200E493F8740193F9740293FA740393FB22CD
:00000001FF
