:0415F800021C0001D0
:100EE000E4F52EF52FF530753101D2AF1215A4437C
:100EF000BA8012128FE51D451C6053E531252FF590
:100F00002FE530352EF52EE52F6464452E700874DC
:100F1000FFF530F531800BE52F452E7005F5307566
:100F20003101AE2EAF2FEE3395E0FDFCE47BBF7AAE
:100F30005DF9F8120BECE47B64FAF9F812120B8EEF
:100F4000288F297B007A00791E7F06120D93E50B0E
:100F5000D394004037150CE50C7031900000E0FF91
:100F6000700D1215D01215C5E4F51CF51D801A90F0
:100F70000000E0B4011312128F751C00751D01E40E
:100F8000F52EF52FF530753101E4F50B7F141215B0
:040F9000B5020EF5A3
:1015A4007532037533027B007A007932E4FF020856
:0115B400EF47
:10147900754540754601754A007549C2754801753B
:101489004700754C01E4F54DFB7A0079457F01125F
:0C14990000037D017F0112140453A23FE8
:0114A5002224
:10128F00753260E4F535F536753804FB7A0079323E
:10129F007F061204DD75335D7534BFE4F53775399C
:1012AF0001753A01FB7A0079327F811204DD90FEDD
:0F12BF00B6E054F34408F0E4FBFD7F80021020FA
:0B15C5007B007A0079327F060204DD13
:0F15B5007D607C09ED1D70011C144C70F7DFF197
:0115C4002204
:1008EF00EFD3940740037FFF22120B43FED39403F1
:1008FF0040037FFF22EF7041EE700B900001120B4F
:10090F005CF452935294120B43B4010B90000112FA
:10091F000B5C4293F45294120B43FEB4020A900004
:10092F0001120B5C42934294EEB4030D900001123E
:10093F000B5CFEF45293EE4294EF64017043120B82
:10094F0043FE700B900001120B5CF452915292EE29
:10095F00B4010B900001120B5C4291F45292120BF6
:10096F0043B4020A900001120B5C42914292120BA7
:10097F0043B4030D900001120B5CFEF45291EE4252
:10098F0092EF64027043120B43FE700B9000011242
:10099F000B5CF452955296EEB4010B900001120BC2
:1009AF005C4295F45296120B43B4020A9000011266
:1009BF000B5C42954296120B43B4030D900001124B
:1009CF000B5CFEF45295EE4296EF64037043120BEC
:1009DF0043FE700B900001120B5CF452B152B2EE59
:1009EF00B4010B900001120B5C42B1F452B2120B26
:1009FF0043B4020A900001120B5C42B142B2120BD7
:100A0F0043B4030D900001120B5CFEF452B1EE42A1
:100A1F00B2EF64047043120B43FE700B900001128F
:100A2F000B5CF452B352B4EEB4010B900001120BF5
:100A3F005C42B3F452B4120B43B4020A9000011299
:100A4F000B5C42B342B4120B43B4030D900001127E
:100A5F000B5CFEF452B3EE42B4EF64057043120B1D
:100A6F0043FE700B900001120B5CF452C952CAEE98
:100A7F00B4010B900001120B5C42C9F452CA120B65
:100A8F0043B4020A900001120B5C42C942CA120B16
:100A9F0043B4030D900001120B5CFEF452C9EE42F9
:100AAF00CAEF64067043120B43FE700B90000112E5
:100ABF000B5CF452CB52CCEEB4010B900001120B35
:100ACF005C42CBF452CC120B43B4020A90000112D9
:100ADF000B5C42CB42CC120B43B4030D90000112BE
:100AEF000B5CFEF452CBEE42CCEF64077043120B5B
:100AFF0043FF700B900001120B5CF452E152E2EFD6
:100B0F00B4010B900001120B5C42E1F452E2120BA4
:100B1F0043B4020A900001120B5C42E142E2120B55
:100B2F0043B4030D900001120B5CFFF452E1EF424E
:040B3F00E27F00222F
:1004DD00AD07ED6401707A90FECCE054FEF0E0546F
:1004ED00FBF090FEC8E054FCF0120B43FF90FEC8E9
:1004FD00E0548F4FF0900006120B5CFF90FECC3055
:10050D00E00DE04401F090FEB1E04401F0800BE01D
:10051D0054FEF090FEB1E054FEF0EF90FECC30E1D1
:10052D000DE04404F090FEB1E04402F0800BE05485
:10053D00FBF090FEB1E054FDF0900003120BB4E51A
:10054D00F090FED5F0900003120BB490FED6020889
:10055D0097ED6402707A90FECCE054EFF0E054BF5A
:10056D00F090FEC9E054FCF0120B43FF90FEC9E081
:10057D00548F4FF0900006120B5CFF90FECC30E2D2
:10058D000DE04410F090FEB1E04404F0800BE05417
:10059D00EFF090FEB1E054FBF0EF90FECC30E30DA8
:1005AD00E04440F090FEB1E04408F0800BE054BF11
:1005BD00F090FEB1E054F7F0900003120BB4E5F0AB
:1005CD0090FED7F0900003120BB490FED80208975E
:1005DD00ED6403707A90FECDE054FEF0E054FBF034
:1005ED0090FECAE054FCF0120B43FF90FECAE0549B
:1005FD008F4FF0900006120B5CFF90FECD30E40D96
:10060D00E04401F090FEB1E04410F0800BE054FEA8
:10061D00F090FEB1E054EFF0EF90FECD30E50DE03F
:10062D004404F090FEB1E04420F0800BE054FBF068
:10063D0090FEB1E054DFF0900003120BB4E5F090A2
:10064D00FED9F0900003120BB490FEDA020897ED7C
:10065D006404707A90FECDE054EFF0E054BFF0905A
:10066D00FECBE054FCF0120B43FF90FECBE0548F19
:10067D004FF0900006120B5CFF90FECD30E60DE0C2
:10068D004410F090FEB1E04440F0800BE054EFF0E8
:10069D0090FEB1E054BFF0EF90FECD30E70DE04499
:1006AD0040F090FEB1E04480F0800BE054BFF0903C
:1006BD00FEB1E0547FF0900003120BB4E5F090FE14
:1006CD00DBF0900003120BB490FEDC020897ED6492
:1006DD0080704F900005120B5C90FEDEF0900001D3
:1006ED00120BB4E5F090FED2F0900001120BB49015
:1006FD00FED3F0900008120B5C90FEDDB40106E015
:10070D004480F08004E0547FF0900007120B5C9061
:10071D00FEC0B40106E04401F08004E054FEF07F19
:10072D000022ED6405705690FEECE054FEF090FE54
:10073D00E8E054FCF0120B43FF90FEE8E0548F4FBD
:10074D00F0900006120B5C90FEEC30E00DE04401E1
:10075D00F090FEB5E04401F0800BE054FEF090FE09
:10076D00B5E054FEF0900003120BB4E5F090FEF5E9
:10077D00F0900003120BB490FEF6020897ED64069C
:10078D00705690FEECE054EFF090FEE9E054FCF072
:10079D00120B43FF90FEE9E0548F4FF090000612CC
:1007AD000B5C90FEEC30E20DE04410F090FEB5E0F5
:1007BD004404F0800BE054EFF090FEB5E054FBF0F4
:1007CD00900003120BB4E5F090FEF7F090000312C9
:1007DD000BB490FEF8020897ED6407705590FEED8E
:1007ED00E054FEF090FEEAE054FCF0120B43FF9053
:1007FD00FEEAE0548F4FF0900006120B5C90FEED78
:10080D0030E40DE04401F090FEB5E04410F0800BB3
:10081D00E054FEF090FEB5E054EFF0900003120BA3
:10082D00B4E5F090FEF9F0900003120BB490FEFACF
:10083D008058ED6408705790FEEDE054EFF090FE97
:10084D00EBE054FCF0120B43FF90FEEBE0548F4FA6
:10085D00F0900006120B5C90FEED30E60DE04410BA
:10086D00F090FEB5E04440F0800BE054EFF090FEC8
:10087D00B5E054BFF0900003120BB4E5F090FEFB11
:10088D00F0900003120BB490FEFCF07F0022ED649B
:10089D0081704C900005120B5C90FEFEF0900001F3
:1008AD00120BB4FDACF0EC90FEF2F0AF05A3EFF03F
:1008BD00900008120B5C90FEFDB40106E04480F040
:1008CD008004E0547FF0900007120B5C90FEE0B4C2
:1008DD000106E04401F08004E054FEF07F00227F29
:0208ED00FF22E8
:100D9300EF24807003020E4E147003020E9324801E
:100DA300B408004003020EDF900DB975F003A4C52B
:100DB3008325F0C58373020DD1020DDE020DEE0211
:100DC3000DFE020E0E020E1E020E2E020E3E120B20
:100DD30089FDACF0EC90FED5020ED9900002120B07
:100DE300B4FDACF0EC90FED7020ED9900004120BC8
:100DF300B4FDACF0EC90FED9020ED9900006120BB4
:100E0300B4FDACF0EC90FEDB020ED9900008120B9F
:100E1300B4FDACF0EC90FEF5020ED990000A120B73
:100E2300B4FDACF0EC90FEF7020ED990000C120B5F
:100E3300B4FDACF0EC90FEF9020ED990000E120B4B
:100E4300B4FDACF0EC90FEFB020ED9120B89FDACA5
:100E5300F0EC90FED5F0AF05A3EFF0900002120B7B
:100E6300B4FDACF0EC90FED7F0AF05A3EFF090002B
:100E730004120BB4FDACF0EC90FED9F0AF05A3EF78
:100E8300F0900006120BB4FDACF0EC90FEDB804654
:100E9300900008120BB4FDACF0EC90FEF5F0AF053A
:100EA300A3EFF090000A120BB4FDACF0EC90FEF748
:100EB300F0AF05A3EFF090000C120BB4FDACF0EC17
:100EC30090FEF9F0AF05A3EFF090000E120BB4FD06
:0D0ED300ACF0EC90FEFBF0AF05A3EFF022B9
:1012CE00EFD3940140037FFF22EDD3940340037FBD
:1012DE00FF22EF7004C2A98002D2A9ED700553B7A8
:1012EE00FDC2B9BD010553B7FDD2B9BD020543B765
:0E12FE0002C2B9BD030543B702D2B97F002278
:10130C00EFD3940140037FFF22EDD3940340037F7E
:10131C00FF22EF7004C2AB8002D2ABED700553B765
:10132C00F7C2BBBD010553B7F7D2BBBD020543B72E
:0E133C0008C2BBBD030543B708D2BB7F002229
:1014C900EFD3940140037FFF22EDD3940340037FC0
:1014D900FF22EF25E025E0FFE5AF54FB4FF5AFE430
:0214E900FF22E0
:1014EB00EFD3940140037FFF22EDD3940340037F9E
:1014FB00FF22EFC43354E0FFE5AF54DF4FF5AFE409
:02150B00FF22BD
:1014A600EFD3940140037FFF22EDD3940340037FE3
:1014B600FF22EFC4333354C0FFE5AF54BF4FF5AF3F
:0314C600E4FF221E
:10134A00EFD3940140037FFF22EDD3940340037F40
:10135A00FF22EF7004C2A88002D2A8ED700553B72D
:10136A00FEC2B8BD010553B7FED2B8BD020543B7E8
:0E137A0001C2B8BD030543B701D2B87F0022FF
:10138800EFD3940140037FFF22EDD3940340037F02
:10139800FF22EF7004C2AA8002D2AAED700553B7EB
:1013A800FBC2BABD010553B7FBD2BABD020543B7AC
:0E13B80004C2BABD030543B704D2BA7F0022B7
:10154000EFD3940140037FFF22EFC454F0FFE58FF7
:0815500054EF4FF58FE4FF2278
:10152700EFD3940140037FFF22EFC43354E0FFE57C
:091537008F54DF4FF58FE4FF2211
:10150D00EFD3940140037FFF22EFC4333354C0FF68
:0A151D00E58F54BF4FF58FE4FF2265
:1013C600EFD3940140037FFF22EDD3940340037FC4
:1013D600FF22EF7004C2AD8002D2ADED700553B7A7
:1013E600DFC2BDBD010553B7DFD2BDBD020543B7A0
:0E13F60020C2BDBD030543B720D2BD7F00223B
:1010F300EDD3940340037FFF22EF30E10543E62065
:10110300800353E6DFEF30E00543E610800353E648
:10111300EFED700653B6DF53B5DFBD010653B6DFFF
:1011230043B520BD020643B62053B5DFBD030643D6
:08113300B62043B5207F002225
:10109A00EFD3940140037FFF22EBD3940340037FF5
:1010AA00FF22BF0112ED90FE817006E0547FF080AE
:1010BA0011E04480F0800BEF700890FE83E05487C3
:1010CA004DF0EB700653B6DF53B5DFBB010653B6DE
:1010DA00DF43B520BB020643B62053B5DFBB030688
:0910EA0043B62043B5207F00222B
:10140400EFD3940140037FFF22EDD3940340037F85
:10141400FF22EF7004C2AC8002D2ACED700553B76A
:10142400EFC2BCBD010553B7EFD2BCBD020543B743
:0E14340010C2BCBD030543B710D2BC7F00221E
:10124F00EFD3940140037FFF22EDD3940340037F3C
:10125F00FF22E5AF54FE4FF5AFED700653B6FE53C8
:10126F00B5FEBD010653B6FE43B501BD020643B63A
:10127F000153B5FEBD030643B60143B5017F0022FE
:10113B00EFD3940140037FFF22EDD3940340037F51
:10114B00FF22EF33333354F8FFE5AF54F74FF5AFCE
:10115B00ED700653EEFE53DFFEBD010653EEFE436C
:10116B00DF01BD020643EE0153DFFEBD030643EE76
:07117B000143DF017F0022A8
:10118200EFD3940140037FFF22EDD3940340037F0A
:10119200FF22EFC454F0FFE5AF54EF4FF5AFED700F
:1011A2000653EEFD53DFFDBD010653EEFD43DF02A4
:1011B200BD020643EE0253DFFDBD030643EE0243CA
:0511C200DF027F0022A6
:1011C700EFD3940140037FFF22EDD3940340037FC5
:1011D700FF22EF25E0FFE5AF54FD4FF5AFED7006B9
:1011E70053B6FD53B5FDBD010653B6FD43B502BD6C
:1011F700020643B60253B5FDBD030643B60243B527
:04120700027F002240
:10102000EFD3948140037FFF22EBD3940340037FEF
:10103000FF22EF247F603004705890FEC4EDF0EB87
:10104000700653B6FB53B5FBBB010653B6FB43B565
:1010500004BB020643B60453B5FBEB64037038438C
:10106000B60443B504803090FEE4EDF0EB70065317
:10107000B6F753B5F7BB010653B6F743B508BB0245
:101080000643B60853B5F7BB030D43B60843B5088E
:0A109000800590FEE4EDF07F0022E1
:10144200EDD394035026ED700653EEFB53DFFBBD44
:10145200010653EEFB43DF04BD020643EE0453DFF5
:10146200FBBD030B43EE0443DF0480037FFF2290A6
:07147200FE62EFF07F002293
:080003008F3B8B3C8A3D893ED6
:10000B00E53B64016003020179F508F509F50AF592
:10001B000BF50CF53FF54074402540F58274013526
:10002B003FF583E4F00540E5407002053F648045F1
:10003B003F70E4E4F53FF54074002540F582740011
:10004B00353FF583E4F00540E5407002053F6480E1
:10005B00453F70E4AB3CAA3DA93E120B43FFE5982C
:10006B00543F4FF598EF64C06008EF6440600302A3
:10007B00012E900002120D2D7F807E8D7D5B7C000A
:10008B00120C778F448E438D428C41E4FFFE7D0131
:10009B00FCAB44AA43A942A841C3120D0940037FFC
:1000AB00FF22C3E49544F544E49543F5437401956D
:1000BB0042F542E49541F541AB3CAA3DA93E900087
:1000CB0001120B5CFB6401702CC28E538EFE5389A4
:1000DB00BF5389CF438E40AF44AE43AD42AC417862
:1000EB0008120D1A8F8D85448BC2AB5389BF538F6A
:1000FB00FDD28E8062EB64027026538EEF438E012D
:10010B00538EF7438E04AF44AE43AD42AC417808F7
:10011B00120D1A8FD68544D753AFFB438E10803701
:10012B007FFF22AB3CAA3DA93E120B43FF701390FD
:10013B000008120B5CB40105438E20801A538EDF2E
:10014B008015EFB48011900008120B5CB4010543CD
:10015B008780800353877FAB3CAA3DA93E90000765
:10016B00120B5C7004C29C8002D29C7F0022E53B88
:10017B0064026003020272F50DF50EF50FF510F532
:10018B0011F53FF54074E02540F5827401353FF5DC
:10019B0083E4F00540E5407002053F6480453F7005
:1001AB00E4E4F53FF54074802540F5827400353F5B
:1001BB00F583E4F00540E5407002053F6480453F60
:1001CB0070E4AB3CAA3DA93E120B43FF64C0600533
:1001DB00EF64407075EFB4C005439A808003539A67
:1001EB007F900002120D2D7F807E8D7D5B7C001237
:1001FB000C778F448E438D428C41E4FFFE7D01FCD6
:10020B00AB44AA43A942A841C3120D0940037FFF87
:10021B0022C3E49544F544E49543F54374019542B8
:10022B00F542E49541F541538EEF538EF7438E041F
:10023B00AF44AE43AD42AC417808120D1A8FD68550
:10024B0044D753AFFB438E1080037FFF22AB3CAAF6
:10025B003DA93E900007120B5CC454F0FFE59A5485
:10026B00EF4FF59A7F0022E53B640360030203A680
:10027B00F512F513F514F515F516F53FF540746009
:10028B002540F5827402353FF583E4F00540E540E7
:10029B007002053F6440453F70E4E4F53FF5407460
:1002AB00002540F5827401353FF583E4F00540E508
:1002BB00407002053F6440453F70E4AB3CAA3DA94A
:1002CB003E120B43FF64C06008EF644060030203FF
:1002DB0089EFB4C00543AC80800353AC7F90000220
:1002EB00120D2D7F807E8D7D5B7C00120C778F44F1
:1002FB008E438D428C41E4FFFE7D01FCAB44AA434F
:10030B00A942A841C3120D0940037FFF22C3E49504
:10031B0044F544E49543F54374019542F542E49565
:10032B0041F541AB3CAA3DA93E900001120B5CFB91
:10033B00B4031D43AC40AF44AE43AD42AC4178086F
:10034B00120D1A8FD48544D553D1F043D10A803185
:10035B00EB64027026538EEF53ACBF538EF7438E74
:10036B0004AF44AE43AD42AC417808120D1A8FD6A0
:10037B008544D753AFFB438E1080067FFF227FFF50
:10038B0022AB3CAA3DA93E900007120B5CC454F073
:10039B00FFE5AC54EF4FF5AC7F0022E53B64046006
:1003AB00030204DAF517F518F519F51AF51BF53FE5
:1003BB00F54074A02540F5827402353FF583E4F0D7
:1003CB000540E5407002053F6420453F70E4E4F5CD
:1003DB003FF54074C02540F5827401353FF583E449
:1003EB00F00540E5407002053F6420453F70E4ABEB
:1003FB003CAA3DA93E120B43FF64C06008EF64406A
:10040B0060030204BDEFB4C00543848080035384B2
:10041B007F900002120D2D7F807E8D7D5B7C001204
:10042B000C778F448E438D428C41E4FFFE7D01FCA3
:10043B00AB44AA43A942A841C3120D0940037FFF55
:10044B0022C3E49544F544E49543F5437401954286
:10045B00F542E49541F541AB3CAA3DA93E90000124
:10046B00120B5CFBB4041D438440AF44AE43AD425E
:10047B00AC417808120D1A8FD28544D353D10F4358
:10048B00D1A08031EB64027026538EEF5384BF539F
:10049B008EF7438E04AF44AE43AD42AC41780812A5
:1004AB000D1A8FD68544D753AFFB438E1080067F32
:1004BB00FF227FFF22AB3CAA3DA93E900007120B07
:1004CB005CC454F0FFE58454EF4FF5847F00227F2A
:0104DB00FF21
:0104DC0022FD
:0A15D0008F99750A01E50A70FC22EC
:10155800120B43FF600C1215D0740129F9E43AFA12
:0315680080EE22F0
:0A15DA008F9B750F01E50F70FC22D6
:10156B00120B43FF600C1215DA740129F9E43AFAF5
:03157B0080EE22DD
:0A15E4008FAD751401E51470FC22B0
:10157E00120B43FF600C1215E4740129F9E43AFAD8
:03158E0080EE22CA
:0A15EE008F85751901E51970FC22C4
:10159100120B43FF600C1215EE740129F9E43AFABB
:0315A10080EE22B7
:0515FD00AE070215DA43
:03000000020F9458
:0C0F9400787FE4F6D8FD75814D020FDB7C
:100B4300BB010689828A83E0225002E722BBFE02B0
:090B5300E32289828A83E49322E3
:100B5C00BB010CE58229F582E5833AF583E022504E
:100B6C0006E92582F8E622BBFE06E92582F8E22298
:0D0B7C00E58229F582E5833AF583E49322B2
:100B8900BB010A89828A83E0F5F0A3E02250068737
:100B9900F009E71922BBFE07E3F5F009E3192289F9
:0B0BA900828A83E493F5F0740193222C
:100BB400BB0110E58229F582E5833AF583E0F5F07F
:100BC400A3E0225009E92582F886F008E622BBFE5C
:100BD4000AE92582F8E2F5F008E222E5832AF583A2
:080BE400E993F5F0A3E9932267
:100BEC00E88FF0A4CC8BF0A42CFCE98EF0A42CFCA8
:100BFC008AF0EDA42CFCEA8EF0A4CDA8F08BF0A426
:100C0C002DCC3825F0FDE98FF0A42CCD35F0FCEB84
:100C1C008EF0A4FEA9F0EB8FF0A4CFC5F02ECD3949
:0F0C2C00FEE43CFCEAA42DCE35F0FDE43CFC22B6
:100C3B0075F008758200EF2FFFEE33FECD33CDCC70
:100C4B0033CCC58233C5829BED9AEC99E5829840F3
:100C5B000CF582EE9BFEED9AFDEC99FC0FD5F0D6D0
:100C6B00E4CEFBE4CDFAE4CCF9A88222B800C1B9FA
:100C7B000059BA002DEC8BF084CFCECDFCE5F0CB38
:100C8B00F97818EF2FFFEE33FEED33FDEC33FCEB71
:100C9B0033FB10D703994004EB99FB0FD8E5E4F92C
:100CAB00FA227818EF2FFFEE33FEED33FDEC33FC19
:100CBB00C933C910D7059BE99A4007EC9BFCE99A0D
:100CCB00F90FD8E0E4C9FAE4CCFB2275F010EF2F52
:100CDB00FFEE33FEED33FDCC33CCC833C810D70752
:100CEB009BEC9AE899400AED9BFDEC9AFCE899F88D
:0E0CFB000FD5F0DAE4CDFBE4CCFAE4C8F92220
:10120B00C2D5E830E70FB2D5E4C39BFBE49AFAE40E
:10121B0099F9E498F8EC30E717B2D5121241120C99
:10122B0077E4C39BFBE49AFAE499F9E498F880031A
:10123B00120C7730D50DE4C39FFFE49EFEE49DFDB9
:04124B00E49CFC2201
:100D0900EB9FF5F0EA9E42F0E99D42F0E89C45F040
:010D190022B7
:100D1A00E8600FECC313FCED13FDEE13FEEF13FFB7
:030D2A00D8F122DB
:100D2D00BB010DE58229F582E5833AF583020D6A53
:100D3D005007E92582F8020D5DBBFE07E92582F813
:100D4D00020D76E58229F582E5833AF583020D835E
:100FA000020EE0E493A3F8E493A34003F68001F279
:100FB00008DFF48029E493A3F85407240CC8C33352
:100FC000C4540F4420C8834004F456800146F6DF21
:100FD000E4800B01020408102040809015F8E47EA4
:100FE000019360BCA3FF543F30E509541FFEE49316
:100FF000A360010ECF54C025E060A840B8E493A3DD
:10100000FAE493A3F8E493A3C8C582C8CAC583CA07
:10101000F0A3C8C582C8CAC583CADFE9DEE780BEBF
:0115FC0000EE
:0D0D5D00E6FB08E6F908E6FA08E6CBF82206
:0C0D6A00E0F8A3E0F9A3E0FAA3E0FB220C
:0D0D7600E2FB08E2F908E2FA08E2CBF822FD
:100D8300E493F8740193F9740293FA740393FB22C6
:00000001FF
