:0E1B0B0070657263656E743A202564200A00CE
:081B4100023400000232000032
:1013AE00750870E4F50BF50C750EC0FB7A00790824
:1013BE007F04120570750870E4F50BF50C750E3090
:1013CE00FB7A0079087F03120570750870E4F50B3F
:1013DE00F50C750E0CFB7A0079087F0212057075FC
:1013EE000860E4F50BF50C750E03FB7A0079087FA7
:1013FE000112057075095D750ABFE4F50D750F01D3
:10140E00751001FB7A0079087F8012057090FEB28C
:10141E00E0543F4440F0E054CFF0E054F34404F085
:0E142E00E054FC4401F0E4FBFD7F800214C892
:101A9A001219BB1219EE43BA801213AED2AFC2C5E5
:051AAA0012131780FB80
:1019BB007508037509207B007A0079087F04120FE4
:1019CB00767508037509CF7B007A0079087F0212C0
:1019DB000F767508037509307B007A0079087F0153
:0319EB00020F7672
:1019EE00750840750901750D00750CC2750B0175F2
:1019FE000A00750F01E4F510FB7A0079087F0112D9
:0C1A0E0000967D017F0112194653A23F93
:011A1A0022A9
:10131700E539D3940050030213AD900000E0FF704D
:10132700190535E53570020534D39464E5346480D6
:1013370094804006753400753564EFB40116E535C1
:10134700153570021534C3E534648094805005E484
:10135700F534F535E4F5397BFF7A1B790B85340FC6
:101367008535101209E4AE34AF35EE3395E0FDFC58
:10137700E47BBF7A5DF9F8120D87E47B64FAF9F82C
:101387001217498F0B8E0A8D098C088E288F298E8C
:10139700268F278E248F258E228F237B007A007934
:0613A700227F801211CA32
:0113AD00221D
:0F1AFB007D607C09ED1D70011C144C70F7DFF14C
:011B0A0022B8
:100F7600EFD3940740037FFF22120CDEFED39403C7
:100F860040037FFF22EF7041EE700B900001120CC0
:100F9600F7F452935294120CDEB4010B9000011236
:100FA6000CF74293F45294120CDEFEB4020A90003F
:100FB60001120CF742934294EEB4030D9000011215
:100FC6000CF7FEF45293EE4294EF64017043120C58
:100FD600DEFE700B900001120CF7F452915292EE65
:100FE600B4010B900001120CF74291F45292120CCC
:100FF600DEB4020A900001120CF742914292120CE2
:10100600DEB4030D900001120CF7FEF45291EE428D
:1010160092EF64027043120CDEFE700B9000011218
:101026000CF7F452955296EEB4010B900001120C97
:10103600F74295F45296120CDEB4020A90000112A1
:101046000CF742954296120CDEB4030D9000011285
:101056000CF7FEF45295EE4296EF64037043120CC1
:10106600DEFE700B900001120CF7F452B152B2EE94
:10107600B4010B900001120CF742B1F452B2120CFB
:10108600DEB4020A900001120CF742B142B2120C11
:10109600DEB4030D900001120CF7FEF452B1EE42DD
:1010A600B2EF64047043120CDEFE700B9000011266
:1010B6000CF7F452B352B4EEB4010B900001120CCB
:1010C600F742B3F452B4120CDEB4020A90000112D5
:1010D6000CF742B342B4120CDEB4030D90000112B9
:1010E6000CF7FEF452B3EE42B4EF64057043120CF3
:1010F600DEFE700B900001120CF7F452C952CAEED4
:10110600B4010B900001120CF742C9F452CA120C3A
:10111600DEB4020A900001120CF742C942CA120C50
:10112600DEB4030D900001120CF7FEF452C9EE4234
:10113600CAEF64067043120CDEFE700B90000112BB
:101146000CF7F452CB52CCEEB4010B900001120C0A
:10115600F742CBF452CC120CDEB4020A9000011214
:101166000CF742CB42CC120CDEB4030D90000112F8
:101176000CF7FEF452CBEE42CCEF64077043120C30
:10118600DEFF700B900001120CF7F452E152E2EF11
:10119600B4010B900001120CF742E1F452E2120C7A
:1011A600DEB4020A900001120CF742E142E2120C90
:1011B600DEB4030D900001120CF7FFF452E1EF428A
:0411C600E27F0022A2
:10181000EFD3940140037FFF22EDD3940340037F75
:10182000FF22EF7004C2A98002D2A9ED700553B760
:10183000FDC2B9BD010553B7FDD2B9BD020543B71D
:0E18400002C2B9BD030543B702D2B97F002230
:10184E00EFD3940140037FFF22EDD3940340037F37
:10185E00FF22EF7004C2AB8002D2ABED700553B71E
:10186E00F7C2BBBD010553B7F7D2BBBD020543B7E7
:0E187E0008C2BBBD030543B708D2BB7F0022E2
:101A3E00EFD3940140037FFF22EDD3940340037F45
:101A4E00FF22EF25E025E0FFE5AF54FB4FF5AFE4B5
:021A5E00FF2265
:101A6000EFD3940140037FFF22EDD3940340037F23
:101A7000FF22EFC43354E0FFE5AF54DF4FF5AFE48E
:021A8000FF2243
:101A1B00EFD3940140037FFF22EDD3940340037F68
:101A2B00FF22EFC4333354C0FFE5AF54BF4FF5AFC4
:031A3B00E4FF22A3
:10188C00EFD3940140037FFF22EDD3940340037FF9
:10189C00FF22EF7004C2A88002D2A8ED700553B7E6
:1018AC00FEC2B8BD010553B7FED2B8BD020543B7A1
:0E18BC0001C2B8BD030543B701D2B87F0022B8
:1018CA00EFD3940140037FFF22EDD3940340037FBB
:1018DA00FF22EF7004C2AA8002D2AAED700553B7A4
:1018EA00FBC2BABD010553B7FBD2BABD020543B765
:0E18FA0004C2BABD030543B704D2BA7F002270
:101A8200EFD3940140037FFF22EFC454F0FFE58FB0
:081A920054EF4FF58FE4FF2231
:10002600EFD3940140037FFF22EFC43354E0FFE592
:090036008F54DF4FF58FE4FF2227
:10000300EFD3940140037FFF22EFC4333354C0FF87
:0A001300E58F54BF4FF58FE4FF2284
:10190800EFD3940140037FFF22EDD3940340037F7C
:10191800FF22EF7004C2AD8002D2ADED700553B75F
:10192800DFC2BDBD010553B7DFD2BDBD020543B758
:0E19380020C2BDBD030543B720D2BD7F0022F3
:10167600EDD3940340037FFF22EF30E10543E620DC
:10168600800353E6DFEF30E00543E610800353E6C0
:10169600EFED700653B6DF53B5DFBD010653B6DF77
:1016A60043B520BD020643B62053B5DFBD0306434E
:0816B600B62043B5207F00229D
:10154200EFD3940140037FFF22EBD3940340037F48
:10155200FF22BF0112ED90FE817006E0547FF08001
:1015620011E04480F0800BEF700890FE83E0548716
:101572004DF0EB700653B6DF53B5DFBB010653B631
:10158200DF43B520BB020643B62053B5DFBB0306DB
:0915920043B62043B5207F00227E
:10194600EFD3940140037FFF22EDD3940340037F3E
:10195600FF22EF7004C2AC8002D2ACED700553B723
:10196600EFC2BCBD010553B7EFD2BCBD020543B7FC
:0E19760010C2BCBD030543B710D2BC7F0022D7
:1017D000EFD3940140037FFF22EDD3940340037FB6
:1017E000FF22E5AF54FE4FF5AFED700653B6FE5342
:1017F000B5FEBD010653B6FE43B501BD020643B6B4
:101800000153B5FEBD030643B60143B5017F002277
:1016BE00EFD3940140037FFF22EDD3940340037FC9
:1016CE00FF22EF33333354F8FFE5AF54F74FF5AF46
:1016DE00ED700653EEFE53DFFEBD010653EEFE43E4
:1016EE00DF01BD020643EE0153DFFEBD030643EEEE
:0716FE000143DF017F002220
:10004600EFD3940140037FFF22EDD3940340037F57
:10005600FF22EFC454F0FFE5AF54EF4FF5AFED705C
:100066000653EEFD53DFFDBD010653EEFD43DF02F1
:10007600BD020643EE0253DFFDBD030643EE024317
:05008600DF027F0022F3
:10170500EFD3940140037FFF22EDD3940340037F81
:10171500FF22EF25E0FFE5AF54FD4FF5AFED700675
:1017250053B6FD53B5FDBD010653B6FD43B502BD28
:10173500020643B60253B5FDBD030643B60243B5E3
:04174500027F0022FD
:1014C800EFD3948140037FFF22EBD3940340037F43
:1014D800FF22EF247F603004705890FEC4EDF0EBDB
:1014E800700653B6FB53B5FBBB010653B6FB43B5B9
:1014F80004BB020643B60453B5FBEB6403703843E0
:10150800B60443B504803090FEE4EDF0EB7006536A
:10151800B6F753B5F7BB010653B6F743B508BB0298
:101528000643B60853B5F7BB030D43B60843B508E1
:0A153800800590FEE4EDF07F002234
:10198400EDD394035026ED700653EEFB53DFFBBDFD
:10199400010653EEFB43DF04BD020643EE0453DFAE
:1019A400FBBD030B43EE0443DF0480037FFF22905F
:0719B400FE62EFF07F00224C
:080096008F118B128A138914EB
:10009E00E5116401600302020CF536F537F538F50B
:1000AE0039F53AF515F51674402516F582740135B5
:1000BE0015F583E4F00516E5167002051564804506
:1000CE001570E4E4F515F51674002516F582740026
:1000DE003515F583E4F00516E516700205156480F6
:1000EE00451570E4AB12AA13A914120CDEFFE598A5
:1000FE00543F4FF598EF64C06008EF644060030210
:10010E0001C1900002120EC87F807E8D7D5B7C0047
:10011E00120E128F1A8E198D188C17E4FFFE7D01A8
:10012E00FCAB1AAA19A918A817C3120EA440037F74
:10013E00FF22C3E4951AF51AE49519F51974019581
:10014E0018F518E49517F517AB12AA13A914900019
:10015E0001120CF7FB6401702CC28E538EFE538974
:10016E00BF5389CF438E40AF1AAE19AD18AC177876
:10017E0008120EB58F8D851A8BC2AB5389BF538F64
:10018E00FDD28E8062EB64027026538EEF438E0199
:10019E00538EF7438E04AF1AAE19AD18AC1778080C
:1001AE00120EB58FD6851AD753AFFB438E108037FC
:1001BE007FFF22AB12AA13A914120CDEFF7013904C
:1001CE000008120CF7B40105438E20801A538EDFFF
:1001DE008015EFB48011900008120CF7B40105439E
:1001EE008780800353877FAB12AA13A91490000750
:1001FE00120CF77004C29C8002D29C7F0022E51183
:10020E0064026003020305F53BF53CF53DF53EF552
:10021E003FF515F51674E02516F58274013515F5C2
:10022E0083E4F00516E51670020515648045157019
:10023E00E4E4F515F51674802516F582740035156F
:10024E00F583E4F00516E516700205156480451574
:10025E0070E4AB12AA13A914120CDEFF64C0600581
:10026E00EF64407075EFB4C005439A808003539AD3
:10027E007F900002120EC87F807E8D7D5B7C001207
:10028E000E128F1A8E198D188C17E4FFFE7D01FC4D
:10029E00AB1AAA19A918A817C3120EA440037FFF00
:1002AE0022C3E4951AF51AE49519F51974019518F7
:1002BE00F518E49517F517538EEF538EF7438E040A
:1002CE00AF1AAE19AD18AC177808120EB58FD685C9
:1002DE001AD753AFFB438E1080037FFF22AB12AAB7
:1002EE0013A914900007120CF7C454F0FFE59A54AA
:1002FE00EF4FF59A7F0022E5116403600302043983
:10030E00F540F541F542F543F544F515F5167460E3
:10031E002516F58274023515F583E4F00516E516FB
:10032E00700205156440451570E4E4F515F5167474
:10033E00002516F58274013515F583E4F00516E5F2
:10034E0016700205156440451570E4AB12AA13A988
:10035E0014120CDEFF64C06008EF644060030204F8
:10036E001CEFB4C00543AC80800353AC7F900002F9
:10037E00120EC87F807E8D7D5B7C00120E128F1A4E
:10038E008E198D188C17E4FFFE7D01FCAB1AAA198D
:10039E00A918A817C3120EA440037FFF22C3E49529
:1003AE001AF51AE49519F51974019518F518E495CE
:1003BE0017F517AB12AA13A914900001120CF7FB34
:1003CE00B4031D43AC40AF1AAE19AD18AC17780884
:1003DE00120EB58FD4851AD553D1F043D10A803180
:1003EE00EB64027026538EEF53ACBF538EF7438EE1
:1003FE0004AF1AAE19AD18AC177808120EB58FD619
:10040E00851AD753AFFB438E1080067FFF227FFFE6
:10041E0022AB12AA13A914900007120CF7C454F0C1
:10042E00FFE5AC54EF4FF5AC7F0022E5116404609C
:10043E000302056DF545F546F547F548F549F51501
:10044E00F51674A02516F58274023515F583E4F0C1
:10045E000516E516700205156420451570E4E4F5E1
:10046E0015F51674C02516F58274013515F583E45D
:10047E00F00516E516700205156420451570E4ABFF
:10048E0012AA13A914120CDEFF64C06008EF6440B8
:10049E006003020550EFB4C005438480800353848B
:1004AE007F900002120EC87F807E8D7D5B7C0012D5
:1004BE000E128F1A8E198D188C17E4FFFE7D01FC1B
:1004CE00AB1AAA19A918A817C3120EA440037FFFCE
:1004DE0022C3E4951AF51AE49519F51974019518C5
:1004EE00F518E49517F517AB12AA13A9149000018D
:1004FE00120CF7FBB4041D438440AF1AAE19AD18AD
:10050E00AC177808120EB58FD2851AD353D10F437C
:10051E00D1A08031EB64027026538EEF5384BF530B
:10052E008EF7438E04AF1AAE19AD18AC17780812B9
:10053E000EB58FD6851AD753AFFB438E1080067F2C
:10054E00FF227FFF22AB12AA13A914900007120CF0
:10055E00F7C454F0FFE58454EF4FF5847F00227FFB
:01056E00FF8D
:01056F002269
:0A1B19008F99753801E53870FC2241
:101AAF00120CDEFF600C121B19740129F9E43AFACB
:031ABF0080EE2294
:0A1B23008F9B753D01E53D70FC222B
:101AC200120CDEFF600C121B23740129F9E43AFAAE
:031AD20080EE2281
:0A1B2D008FAD754201E54270FC2205
:101AD500120CDEFF600C121B2D740129F9E43AFA91
:031AE50080EE226E
:0A1B37008F85754701E54770FC2219
:101AE800120CDEFF600C121B37740129F9E43AFA74
:031AF80080EE225B
:05001D00AE07021B23E9
:0300230002178D34
:10178D00C0E0C083C082C0D075D000C007309820A3
:10179D00C298E539C394804003753900AF390539D6
:1017AD0074002FF582E43400F583E599F0753A0560
:1017BD00309905C299753800D007D0D0D082D0832A
:0317CD00D0E03237
:0300430002159B08
:10159B00C0E0C083C082C0D075D000C007E59A30D0
:1015AB00E021539AFEE53EC394804003753E00AFA5
:1015BB003E053E74802FF582E43400F583E59BF005
:1015CB00753F05E59A30E106539AFD753D00D0074E
:0915DB00D0D0D082D083D0E032E0
:03008B000215E477
:1015E400C0E0C083C082C0D075D000C007E5AC3075
:1015F400E02153ACFEE543C394404003754300AF80
:1016040043054374002FF582E43401F583E5ADF01E
:10161400754405E5AC30E10653ACFD754200D007D6
:09162400D0D0D082D083D0E03296
:0300930002162D25
:10162D00C0E0C083C082C0D075D000C007E5843053
:10163D00E0215384FEE548C394204003754800AF74
:10164D0048054874C02FF582E43401F583E585F033
:10165D00754905E58430E1065384FD754700D007D3
:09166D00D0D0D082D083D0E0324D
:10057000AD07ED6401707A90FECCE054FEF0E054DB
:10058000FBF090FEC8E054FCF0120CDEFF90FEC8B9
:10059000E0548F4FF0900006120CF7FF90FECC3025
:1005A000E00DE04401F090FEB1E04401F0800BE08A
:1005B00054FEF090FEB1E054FEF0EF90FECC30E13E
:1005C0000DE04404F090FEB1E04402F0800BE054F2
:1005D000FBF090FEB1E054FDF0900003120D4FE5EA
:1005E000F090FED5F0900003120D4F90FED6020958
:1005F0002AED6402707A90FECCE054EFF0E054BF34
:10060000F090FEC9E054FCF0120CDEFF90FEC9E051
:10061000548F4FF0900006120CF7FF90FECC30E2A2
:100620000DE04410F090FEB1E04404F0800BE05483
:10063000EFF090FEB1E054FBF0EF90FECC30E30D14
:10064000E04440F090FEB1E04408F0800BE054BF7D
:10065000F090FEB1E054F7F0900003120D4FE5F07A
:1006600090FED7F0900003120D4F90FED802092A99
:10067000ED6403707A90FECDE054FEF0E054FBF0A0
:1006800090FECAE054FCF0120CDEFF90FECAE0546B
:100690008F4FF0900006120CF7FF90FECD30E40D66
:1006A000E04401F090FEB1E04410F0800BE054FE15
:1006B000F090FEB1E054EFF0EF90FECD30E50DE0AC
:1006C0004404F090FEB1E04420F0800BE054FBF0D5
:1006D00090FEB1E054DFF0900003120D4FE5F09072
:1006E000FED9F0900003120D4F90FEDA02092AEDB8
:1006F0006404707A90FECDE054EFF0E054BFF090C7
:10070000FECBE054FCF0120CDEFF90FECBE0548FE9
:100710004FF0900006120CF7FF90FECD30E60DE092
:100720004410F090FEB1E04440F0800BE054EFF054
:1007300090FEB1E054BFF0EF90FECD30E70DE04405
:1007400040F090FEB1E04480F0800BE054BFF090A8
:10075000FEB1E0547FF0900003120D4FE5F090FEE3
:10076000DBF0900003120D4F90FEDC02092AED64CD
:1007700080704F900005120CF790FEDEF0900001A3
:10078000120D4FE5F090FED2F0900001120D4F9047
:10079000FED3F0900008120CF790FEDDB40106E0E5
:1007A0004480F08004E0547FF0900007120CF79032
:1007B000FEC0B40106E04401F08004E054FEF07F86
:1007C0000022ED6405705690FEECE054FEF090FEC1
:1007D000E8E054FCF0120CDEFF90FEE8E0548F4F8E
:1007E000F0900006120CF790FEEC30E00DE04401B2
:1007F000F090FEB5E04401F0800BE054FEF090FE76
:10080000B5E054FEF0900003120D4FE5F090FEF5B8
:10081000F0900003120D4F90FEF602092AED6406D7
:10082000705690FEECE054EFF090FEE9E054FCF0DE
:10083000120CDEFF90FEE9E0548F4FF0900006129C
:100840000CF790FEEC30E20DE04410F090FEB5E0C5
:100850004404F0800BE054EFF090FEB5E054FBF060
:10086000900003120D4FE5F090FEF7F09000031298
:100870000D4F90FEF802092AED6407705590FEEDC9
:10088000E054FEF090FEEAE054FCF0120CDEFF9023
:10089000FEEAE0548F4FF0900006120CF790FEED48
:1008A00030E40DE04401F090FEB5E04410F0800B20
:1008B000E054FEF090FEB5E054EFF0900003120D0E
:1008C0004FE5F090FEF9F0900003120D4F90FEFA04
:1008D0008058ED6408705790FEEDE054EFF090FE04
:1008E000EBE054FCF0120CDEFF90FEEBE0548F4F77
:1008F000F0900006120CF790FEED30E60DE044108B
:10090000F090FEB5E04440F0800BE054EFF090FE34
:10091000B5E054BFF0900003120D4FE5F090FEFBE0
:10092000F0900003120D4F90FEFCF07F0022ED646A
:1009300081704C900005120CF790FEFEF0900001C3
:10094000120D4FFDACF0EC90FEF2F0AF05A3EFF00E
:10095000900008120CF790FEFDB40106E04480F010
:100960008004E0547FF0900007120CF790FEE0B492
:100970000106E04401F08004E054FEF07F00227F95
:02098000FF2254
:1011CA00EF248070030212851470030212CA24806D
:1011DA00B4080040030213169011F075F003A4C579
:1011EA008325F0C583730212080212150212250222
:1011FA001235021245021255021265021275120DBB
:10120A0024FDACF0EC90FED5021310900002120DF2
:10121A004FFDACF0EC90FED7021310900004120DB3
:10122A004FFDACF0EC90FED9021310900006120D9F
:10123A004FFDACF0EC90FEDB021310900008120D8B
:10124A004FFDACF0EC90FEF502131090000A120D5F
:10125A004FFDACF0EC90FEF702131090000C120D4B
:10126A004FFDACF0EC90FEF902131090000E120D37
:10127A004FFDACF0EC90FEFB021310120D24FDACF6
:10128A00F0EC90FED5F0AF05A3EFF0900002120D3E
:10129A004FFDACF0EC90FED7F0AF05A3EFF0900055
:1012AA0004120D4FFDACF0EC90FED9F0AF05A3EFA0
:1012BA00F0900006120D4FFDACF0EC90FEDB80467C
:1012CA00900008120D4FFDACF0EC90FEF5F0AF0562
:1012DA00A3EFF090000A120D4FFDACF0EC90FEF770
:1012EA00F0AF05A3EFF090000C120D4FFDACF0EC3F
:1012FA0090FEF9F0AF05A3EFF090000E120D4FFD2E
:0D130A00ACF0EC90FEFBF0AF05A3EFF0227D
:0300000002143CAB
:0C143C00787FE4F6D8FD75814902148326
:100CDE00BB010689828A83E0225002E722BBFE0214
:090CEE00E32289828A83E4932247
:100CF700BB010CE58229F582E5833AF583E02250B2
:100D070006E92582F8E622BBFE06E92582F8E222FB
:0D0D1700E58229F582E5833AF583E4932215
:100D2400BB010A89828A83E0F5F0A3E0225006879A
:100D3400F009E71922BBFE07E3F5F009E31922895C
:0B0D4400828A83E493F5F0740193228F
:100D4F00BB0110E58229F582E5833AF583E0F5F0E2
:100D5F00A3E0225009E92582F886F008E622BBFEBF
:100D6F000AE92582F8E2F5F008E222E5832AF58305
:080D7F00E993F5F0A3E99322CA
:100D8700E88FF0A4CC8BF0A42CFCE98EF0A42CFC0B
:100D97008AF0EDA42CFCEA8EF0A4CDA8F08BF0A489
:100DA7002DCC3825F0FDE98FF0A42CCD35F0FCEBE8
:100DB7008EF0A4FEA9F0EB8FF0A4CFC5F02ECD39AD
:0F0DC700FEE43CFCEAA42DCE35F0FDE43CFC221A
:100DD60075F008758200EF2FFFEE33FECD33CDCCD4
:100DE60033CCC58233C5829BED9AEC99E582984057
:100DF6000CF582EE9BFEED9AFDEC99FC0FD5F0D634
:100E0600E4CEFBE4CDFAE4CCF9A88222B800C1B95D
:100E16000059BA002DEC8BF084CFCECDFCE5F0CB9B
:100E2600F97818EF2FFFEE33FEED33FDEC33FCEBD4
:100E360033FB10D703994004EB99FB0FD8E5E4F98F
:100E4600FA227818EF2FFFEE33FEED33FDEC33FC7C
:100E5600C933C910D7059BE99A4007EC9BFCE99A70
:100E6600F90FD8E0E4C9FAE4CCFB2275F010EF2FB5
:100E7600FFEE33FEED33FDCC33CCC833C810D707B5
:100E86009BEC9AE899400AED9BFDEC9AFCE899F8F0
:0E0E96000FD5F0DAE4CDFBE4CCFAE4C8F92283
:10174900C2D5E830E70FB2D5E4C39BFBE49AFAE4CB
:1017590099F9E498F8EC30E717B2D512177F120E11
:1017690012E4C39BFBE49AFAE499F9E498F880033C
:10177900120E1230D50DE4C39FFFE49EFEE49DFDD9
:04178900E49CFC22BE
:100EA400EB9FF5F0EA9E42F0E99D42F0E89C45F0A4
:010EB400221B
:100EB500E8600FECC313FCED13FDEE13FEEF13FF1B
:030EC500D8F1223F
:100EC800BB010DE58229F582E5833AF583020F1708
:100ED8005007E92582F8020F0ABBFE07E92582F8C8
:100EE800020F23E58229F582E5833AF583020F3064
:10098200E51B240FF8E6051B22780C300702780FCE
:10099200E475F001120F40020CDE2000EB7F2ED234
:1009A200008018EF540F2490D43440D4FF30040B4D
:1009B200EF24BFB41A0050032461FFE51C60021546
:1009C2001C051FE51F7002051E30070D780CE4752B
:1009D200F001120F40EF020EF802001D7403D2075D
:1009E2008003E4C207F51B8B0C8A0D890EE4F51C0B
:1009F200F51EF51FE51C60077F201209BD80F57505
:100A02001DFFC201C200C202C203C205C206C20861
:100A120012098BFF700D3007057F001209CEAF1F40
:100A2200AE1E22B4255FC2D5C20412098BFF24D0A8
:100A3200B40A00501A75F00A781C30D50508B6FFC2
:100A42000106C6A426F620D5047002D20380D9245A
:100A5200CFB41A00EF5004C2E5D204020BCED20189
:100A620080C6D20080C0D20280BCD2D580BAD20564
:100A720080B47F201209BD2002077401B51C00401A
:100A8200F1120982FF1209BD0209F6D208D20680CC
:100A920095120982FB120982FA120982F94A4B70F5
:100AA20006799F7A0C7BFF20022EE51C602A7E00CD
:100AB2008E82758300120CF760060EEE651D70F0D3
:100AC200C2D5EBC0E0EAC0E0E9C0E0EE120C15D0FE
:100AD200E0F9D0E0FAD0E0FB120CDEFF60AAEBC036
:100AE200E0EAC0E0E9C0E01209BDD0E02401F9D09B
:100AF200E03400FAD0E0FBE51D0460DCD51DD980AE
:100B0200877BFF7A0C7911D202809C79108002795E
:100B120008C206C2088008D2D5790A8004790AC2BE
:100B2200D5E51D047002F51DE4FAFDFEFF120982EF
:100B3200FC7B08200113120982FD7B1030000A128F
:100B42000982FE120982FF7B20EC3382D592D550B6
:100B520013C3E43000069FFFE49EFEE42001039DE0
:100B6200FDE49CFCE4CBF8C201EC700CCFCECDCC02
:100B7200E824F8F870F38017C3EF33FFEE33FEED8D
:100B820033FDEC33FCEB33FB994002FB0FD8E9EB6E
:100B9200300105F8D0E0C448B201C0E00AEC4D4E85
:100BA2004F78207B0070C2EAB51D0040BCC0E01245
:100BB2000C17D0F0D0E0200104C4C0E0C4B201C0E0
:100BC200F01209A6D0F0D5F0EB0209F6120F500A86
:100BD20093530B0D580A644C0A60420B114F0B19C8
:0F0BE200440B19490A79430B1F550B03460B03AC
:100BF100450B03470CBF500A682D0A6C2E0A8F2B38
:100C01000A70230A8D200CA82A0A284800000A87A6
:100C11003F3F3F00790AA2D5200314300509B910DE
:100C2100020404B9080104A2D520060250010420DF
:100C310002689202B51C005034C0E07F20300319D5
:100C41007F30A20272067205500F120C6EC202C2F0
:100C510006C205C2087F30800F300503E9C0E012EB
:100C610009BD300503D0E0F9D0E0B51CCC30051743
:100C71007F30B9100C1209BD7F583004077F78808E
:100C810003B908031209BD3002057F2D0209BD7F9A
:100C9100202008F87F2B2006F322920280CF286EB5
:100CA100756C6C2900D2011209823001F8C20178F9
:100CB1001C30D50108F6020A282D50434958120963
:100CC100822403B405004001E4900CBA931209AEEA
:0D0CD100743A1209AED203751C04020B0D1B
:10144800021A9AE493A3F8E493A34003F68001F206
:1014580008DFF48029E493A3F85407240CC8C333A5
:10146800C4540F4420C8834004F456800146F6DF74
:10147800E4800B0102040810204080901B41E47EA8
:10148800019360BCA3FF543F30E509541FFEE49369
:10149800A360010ECF54C025E060A840B8E493A330
:1014A800FAE493A3F8E493A3C8C582C8CAC583CA5B
:1014B800F0A3C8C582C8CAC583CADFE9DEE780BE13
:011B4900009B
:100EF800BB010689828A83F0225002F722BBFE01D9
:020F0800F322D2
:0D0F0A00E6FB08E6F908E6FA08E6CBF82257
:0C0F1700E0F8A3E0F9A3E0FAA3E0FB225D
:0D0F2300E2FB08E2F908E2FA08E2CBF8224E
:100F3000E493F8740193F9740293FA740393FB2217
:100F4000FAE6FB0808E6F925F0F618E6CA3AF622B2
:100F5000D083D082F8E4937012740193700DA3A330
:100F600093F8740193F5828883E473740293686044
:060F7000EFA3A3A380DF44
:00000001FF
