:0C17B5002D2D2D726561642D2D2D0A0074
:1000460043BA8012174B121653120066D2AF7BFFCB
:090056007A1779B512060280FE4A
:10174B0075220275230C7B007A0079227F02020B33
:01175B00632A
:101653007522407523017527007526C2752501750E
:101663002400752901E4F52AFB7A0079227F01120F
:0C16730000C67D017F0112157353A23FD9
:01167F002248
:10006600752401752301E4F52575220DFB7A0079C7
:1000760022121078E4FBFD7F0112116EE5BA54CF0F
:040086004430F5BA53
:01008A002253
:0F175C007D607C09ED1D70011C144C70F7DFF1EE
:01176B00225B
:100B6300EFD3940740037FFF22120DB7FED3940304
:100B730040037FFF22EF7041EE700B900001120DD6
:100B8300D0F452935294120DB7B4010B900001129A
:100B93000DD04293F45294120DB7FEB4020A9000A2
:100BA30001120DD042934294EEB4030D9000011252
:100BB3000DD0FEF45293EE4294EF64017043120D94
:100BC300B7FE700B900001120DD0F452915292EEC9
:100BD300B4010B900001120DD04291F45292120D08
:100BE300B7B4020A900001120DD042914292120D45
:100BF300B7B4030D900001120DD0FEF45291EE42F2
:100C030092EF64027043120DB7FE700B9000011255
:100C13000DD0F452955296EEB4010B900001120DD3
:100C2300D04295F45296120DB7B4020A9000011205
:100C33000DD042954296120DB7B4030D90000112E8
:100C43000DD0FEF45295EE4296EF64037043120DFD
:100C5300B7FE700B900001120DD0F452B152B2EEF8
:100C6300B4010B900001120DD042B1F452B2120D37
:100C7300B7B4020A900001120DD042B142B2120D74
:100C8300B7B4030D900001120DD0FEF452B1EE4241
:100C9300B2EF64047043120DB7FE700B90000112A3
:100CA3000DD0F452B352B4EEB4010B900001120D07
:100CB300D042B3F452B4120DB7B4020A9000011239
:100CC3000DD042B342B4120DB7B4030D900001121C
:100CD3000DD0FEF452B3EE42B4EF64057043120D2F
:100CE300B7FE700B900001120DD0F452C952CAEE38
:100CF300B4010B900001120DD042C9F452CA120D77
:100D0300B7B4020A900001120DD042C942CA120DB3
:100D1300B7B4030D900001120DD0FEF452C9EE4298
:100D2300CAEF64067043120DB7FE700B90000112F8
:100D33000DD0F452CB52CCEEB4010B900001120D46
:100D4300D042CBF452CC120DB7B4020A9000011278
:100D53000DD042CB42CC120DB7B4030D900001125B
:100D63000DD0FEF452CBEE42CCEF64077043120D6C
:100D7300B7FF700B900001120DD0F452E152E2EF75
:100D8300B4010B900001120DD042E1F452E2120DB6
:100D9300B7B4020A900001120DD042E142E2120DF3
:100DA300B7B4030D900001120DD0FFF452E1EF42EE
:040DB300E27F0022B9
:10107800900002120DD06401702A90FE80E0444076
:10108800F090FE82E4F0120DB7543FFF90FE80E02E
:1010980054C04FF0900003120DD090FE88B40102A6
:1010A8008031802990FE80E054BFF090FE84E4F007
:1010B800900004120DD025E0FF90FE85E054014F0A
:1010C800F0900005120DD090FE85B40106E054FEA4
:1010D800F08004E04401F0900001120DD090FE80F1
:0C10E8007005E0547FF022E04480F0220C
:0800030090FE82E05480FF2210
:0C17C10090FE82E030E6F9E054BFF02218
:0918010090FE817401F00217C190
:0E17990090FE86EFF090FE817402F00217C100
:06176C001218011217998A
:0917720090FE817403F00217C11E
:0F177B0090FE817404F01217C190FE87E0FF22E8
:0E17A70090FE82E4F090FE817405F00217C1FE
:0F178A0090FE827401F090FE817405F00217C189
:09180A0090FE817406F00217C182
:0D000E0090FE86EDF090FE81EFF00217C12C
:101622008B388A39893AAE0512176CAF06121799B0
:10163200121772AB38053AE53AAA39700205391425
:10164200F9120DB7FF121799121772D53BE502185E
:011652000A8D
:1015B100AE0712176CAF05121799121772121801A4
:1015C100EE4401FF12179912177212177BEF120DD9
:1015D100FD740129F9E43AFAE54164016003121747
:0A15E100A7D541E612178A02180A86
:0300C300020FD554
:100FD500C0E0C083C082C0D075D000C006C00790F5
:100FE500FE84E030E606E054BFF0807A90FE84E0AF
:100FF50030E535E054DFF0E51D6005751D008066C0
:10100500E51C600D751C0090FE87E0F51E24C08070
:101015003490FE87E0FFAE1E051E74C02EF582E4F7
:101025003402F583EFF0803E90FE84E030E424E066
:1010350054EFF0E030E10890FE8674FFF08027055C
:101045001E74C0251EF582E43402F583E090FE8609
:10105500F0801390FE84E030E30CE054F7F0751D4A
:1010650001751C01D209D007D006D0D0D082D0831B
:03107500D0E03296
:1008FC00AD07ED7079C28C120DB7FED39403400393
:10090C007FFF22E58954FC4EF589900001120DD031
:10091C00FED3940240037FFF22EE7006538E7F536A
:10092C0089FB900001120DD0B40106438E805389CF
:10093C00FB900001120DD0B4020343890490000215
:10094C00120DD0FFE58F54FE4FF58F900003120E61
:10095C000FE5F0F58C900003120E0FF58A9000064F
:10096C00120DD07004C28C8002D28C7F0022ED64F8
:10097C00016003020A02C28E120DB7FED39403402B
:10098C00037FFF22EEC454F0FFE58954CF4FF58965
:10099C00900001120DD0FED3940240037FFF22EE93
:1009AC007006538EBF5389BF900001120DD0B40155
:1009BC0006438E405389BF900001120DD0B4020340
:1009CC00438940900002120DD025E0FFE58F54FDC5
:1009DC004FF58F900003120E0FE5F0F58D9000038C
:1009EC00120E0FF58B900006120DD07004C28E8083
:1009FC0002D28E7F0022ED64027065538EEF900060
:100A0C0001120DD0FF7006538EFB538EF7EFB4011D
:100A1C0006438E04538EF7EFB40203438E08900006
:100A2C0002120DD025E025E0FFE58F54FB4FF58F2A
:100A3C00900003120E0FE5F0F5D6900003120E0F86
:100A4C00F5D7900005120DD090FEA2F09000061282
:100A5C000DD0C454F0FFE58E54EF4FF58E7F00227D
:100A6C00ED6403707253D1F7900001120DD0FED3D8
:100A7C00940240037FFF22EE700653D1FD53D1FB4D
:100A8C00900001120DD0B4010643D10253D1FB905A
:100A9C000001120DD0B4020343D104900002120DD8
:100AAC00D0FFE5D154FE4FF5D1900003120E0FE5A7
:100ABC00F0F5D4900003120E0FF5D5900005120D31
:100ACC00D090FEA3F0900006120DD033333354F8BF
:100ADC00FFE5D154F78077ED6404707853D17F90A3
:100AEC000001120DD0FED3940240037FFF22EE7062
:100AFC000653D1DF53D1BF900001120DD0B40106C3
:100B0C0043D12053D1BF900001120DD0B402034346
:100B1C00D140900002120DD0C454F0FFE5D154EF37
:100B2C004FF5D1900003120E0FFDACF0ECF5D2AFE7
:100B3C00058FD3900005120DD090FEA4F090000606
:100B4C00120DD0C43333335480FFE5D1547F4FF5AD
:070B5C00D17F00227FFF2280
:03000B00020040B0
:03004000B2EF32EA
:03001B0002005F81
:03005F00B2EE32CC
:0300630002008E0A
:03008E00B2ED329E
:03009B00020096CA
:03009600B2EC3297
:0300A30002009EBA
:03009E00B2EB3290
:0800C6008F2B8B2C8A2D892E53
:1000CE00E52B6401600302023CF508F509F50AF51B
:1000DE000BF50CF52FF53074402530F58274013593
:1000EE002FF583E4F00530E5307002052F6480456E
:1000FE002F70E4E4F52FF53074002530F58274008E
:10010E00352FF583E4F00530E5307002052F64805D
:10011E00452F70E4AB2CAA2DA92E120DB7FFE59832
:10012E00543F4FF598EF64C06008EF6440600302DF
:10013E0001F1900002120F397F807E8D7D5B7C0075
:10014E00120E838F348E338D328C31E4FFFE7D019F
:10015E00FCAB34AA33A932A831C3120F1540037F6A
:10016E00FF22C3E49534F534E49533F533740195E9
:10017E0032F532E49531F531AB2CAA2DA92E900033
:10018E0001120DD0FB6401702CC28E538EFE53896A
:10019E00BF5389CF438E40AF34AE33AD32AC3178DE
:1001AE0008120F268F8D85348BC2AB5389BF538FA8
:1001BE00FDD28E8062EB64027026538EEF438E0169
:1001CE00538EF7438E04AF34AE33AD32AC31780874
:1001DE00120F268FD68534D753AFFB438E10803740
:1001EE007FFF22AB2CAA2DA92E120DB7FF701390F4
:1001FE000008120DD0B40105438E20801A538EDFF5
:10020E008015EFB48011900008120DD0B401054393
:10021E008780800353877FAB2CAA2DA92E900007D1
:10022E00120DD07004C29C8002D29C7F0022E52B5E
:10023E0064026003020335F50DF50EF50FF510F5AA
:10024E0011F52FF53074E02530F5827401352FF558
:10025E0083E4F00530E5307002052F6480452F7081
:10026E00E4E4F52FF53074802530F5827400352FD7
:10027E00F583E4F00530E5307002052F6480452FDC
:10028E0070E4AB2CAA2DA92E120DB7FF64C0600529
:10029E00EF64407075EFB4C005439A808003539AA3
:1002AE007F900002120F397F807E8D7D5B7C001265
:1002BE000E838F348E338D328C31E4FFFE7D01FC44
:1002CE00AB34AA33A932A831C3120F1540037FFFF6
:1002DE0022C3E49534F534E49533F5337401953245
:1002EE00F532E49531F531538EEF538EF7438E048C
:1002FE00AF34AE33AD32AC317808120F268FD685BF
:10030E0034D753AFFB438E1080037FFF22AB2CAA52
:10031E002DA92E900007120DD0C454F0FFE59A546B
:10032E00EF4FF59A7F0022E52B6403600302046908
:10033E00F512F513F514F515F516F52FF530746065
:10034E002530F5827402352FF583E4F00530E53063
:10035E007002052F6440452F70E4E4F52FF53074DC
:10036E00002530F5827401352FF583E4F00530E574
:10037E00307002052F6440452F70E4AB2CAA2DA9D6
:10038E002E120DB7FF64C06008EF644060030204D4
:10039E004CEFB4C00543AC80800353AC7F90000299
:1003AE00120F397F807E8D7D5B7C00120E838F3421
:1003BE008E338D328C31E4FFFE7D01FCAB34AA33DB
:1003CE00A932A831C3120F1540037FFF22C3E49553
:1003DE0034F534E49533F53374019532F532E49502
:1003EE0031F531AB2CAA2DA92E900001120DD0FBA8
:1003FE00B4031D43AC40AF34AE33AD32AC317808EC
:10040E00120F268FD48534D553D1F043D10A8031C3
:10041E00EB64027026538EEF53ACBF538EF7438EB0
:10042E0004AF34AE33AD32AC317808120F268FD60E
:10043E008534D753AFFB438E1080067FFF227FFF9C
:10044E0022AB2CAA2DA92E900007120DD0C454F069
:10045E00FFE5AC54EF4FF5AC7F0022E52B64046052
:10046E000302059DF517F518F519F51AF51BF52F6D
:10047E00F53074A02530F5827402352FF583E4F043
:10048E000530E5307002052F6420452F70E4E4F549
:10049E002FF53074C02530F5827401352FF583E4C5
:1004AE00F00530E5307002052F6420452F70E4AB67
:1004BE002CAA2DA92E120DB7FF64C06008EF644060
:1004CE006003020580EFB4C005438480800353842B
:1004DE007F900002120F397F807E8D7D5B7C001233
:1004EE000E838F348E338D328C31E4FFFE7D01FC12
:1004FE00AB34AA33A932A831C3120F1540037FFFC4
:10050E0022C3E49534F534E49533F5337401953212
:10051E00F532E49531F531AB2CAA2DA92E900001C0
:10052E00120DD0FBB4041D438440AF34AE33AD3254
:10053E00AC317808120F268FD28534D353D10F43A6
:10054E00D1A08031EB64027026538EEF5384BF53DB
:10055E008EF7438E04AF34AE33AD32AC3178081221
:10056E000F268FD68534D753AFFB438E1080067F70
:10057E00FF227FFF22AB2CAA2DA92E900007120D71
:10058E00D0C454F0FFE58454EF4FF5847F00227FF2
:01059E00FF5D
:01059F002239
:0A17D9008F99750A01E50A70FC22E1
:1016FF00120DB7FF600C1217D9740129F9E43AFAE9
:03170F0080EE2247
:0A17E3008F9B750F01E50F70FC22CB
:10171200120DB7FF600C1217E3740129F9E43AFACB
:0317220080EE2234
:0A17ED008FAD751401E51470FC22A5
:10172500120DB7FF600C1217ED740129F9E43AFAAE
:0317350080EE2221
:0A17F7008F85751901E51970FC22B9
:10173800120DB7FF600C1217F7740129F9E43AFA91
:0317480080EE220E
:05001E00AE070217D936
:030023000213BA0B
:1013BA00C0E0C083C082C0D075D000C0073098207A
:1013CA00C298E50BC394804003750B00AF0B050B65
:1013DA0074002FF582E43400F583E599F0750C0565
:1013EA00309905C299750A00D007D0D0D082D0832F
:0313FA00D0E0320E
:030043000211C7E0
:1011C700C0E0C083C082C0D075D000C007E59A30A8
:1011D700E021539AFEE510C394804003751000AFD9
:1011E70010051074802FF582E43400F583E59BF039
:1011F700751105E59A30E106539AFD750F00D00782
:09120700D0D0D082D083D0E032B7
:03008B000212104E
:10121000C0E0C083C082C0D075D000C007E5AC304C
:10122000E02153ACFEE515C394404003751500AFB3
:1012300015051574002FF582E43401F583E5ADF052
:10124000751605E5AC30E10653ACFD751400D0070A
:09125000D0D0D082D083D0E0326E
:03009300021259FD
:10125900C0E0C083C082C0D075D000C007E584302B
:10126900E0215384FEE51AC394204003751A00AFA8
:101279001A051A74C02FF582E43401F583E585F067
:10128900751B05E58430E1065384FD751900D00707
:09129900D0D0D082D083D0E03225
:10143D00EFD3940140037FFF22EDD3940340037F4C
:10144D00FF22EF7004C2A98002D2A9ED700553B737
:10145D00FDC2B9BD010553B7FDD2B9BD020543B7F4
:0E146D0002C2B9BD030543B702D2B97F002207
:10147B00EFD3940140037FFF22EDD3940340037F0E
:10148B00FF22EF7004C2AB8002D2ABED700553B7F5
:10149B00F7C2BBBD010553B7F7D2BBBD020543B7BE
:0E14AB0008C2BBBD030543B708D2BB7F0022B9
:1016A300EFD3940140037FFF22EDD3940340037FE4
:1016B300FF22EF25E025E0FFE5AF54FB4FF5AFE454
:0216C300FF2204
:1016C500EFD3940140037FFF22EDD3940340037FC2
:1016D500FF22EFC43354E0FFE5AF54DF4FF5AFE42D
:0216E500FF22E2
:10168000EFD3940140037FFF22EDD3940340037F07
:10169000FF22EFC4333354C0FFE5AF54BF4FF5AF63
:0316A000E4FF2242
:1014B900EFD3940140037FFF22EDD3940340037FD0
:1014C900FF22EF7004C2A88002D2A8ED700553B7BD
:1014D900FEC2B8BD010553B7FED2B8BD020543B778
:0E14E90001C2B8BD030543B701D2B87F00228F
:1014F700EFD3940140037FFF22EDD3940340037F92
:10150700FF22EF7004C2AA8002D2AAED700553B77A
:10151700FBC2BABD010553B7FBD2BABD020543B73B
:0E15270004C2BABD030543B704D2BA7F002246
:1016E700EFD3940140037FFF22EFC454F0FFE58F4F
:0816F70054EF4FF58FE4FF22D0
:1000A600EFD3940140037FFF22EFC43354E0FFE512
:0900B6008F54DF4FF58FE4FF22A7
:10002600EFD3940140037FFF22EFC4333354C0FF64
:0A003600E58F54BF4FF58FE4FF2261
:10153500EFD3940140037FFF22EDD3940340037F53
:10154500FF22EF7004C2AD8002D2ADED700553B736
:10155500DFC2BDBD010553B7DFD2BDBD020543B72F
:0E15650020C2BDBD030543B720D2BD7F0022CA
:1012A200EDD3940340037FFF22EF30E10543E620B4
:1012B200800353E6DFEF30E00543E610800353E698
:1012C200EFED700653B6DF53B5DFBD010653B6DF4F
:1012D20043B520BD020643B62053B5DFBD03064326
:0812E200B62043B5207F002275
:10116E00EFD3940140037FFF22EBD3940340037F20
:10117E00FF22BF0112ED90FE817006E0547FF080D9
:10118E0011E04480F0800BEF700890FE83E05487EE
:10119E004DF0EB700653B6DF53B5DFBB010653B609
:1011AE00DF43B520BB020643B62053B5DFBB0306B3
:0911BE0043B62043B5207F002256
:10157300EFD3940140037FFF22EDD3940340037F15
:10158300FF22EF7004C2AC8002D2ACED700553B7FA
:10159300EFC2BCBD010553B7EFD2BCBD020543B7D3
:0E15A30010C2BCBD030543B710D2BC7F0022AE
:1013FD00EFD3940140037FFF22EDD3940340037F8D
:10140D00FF22E5AF54FE4FF5AFED700653B6FE5318
:10141D00B5FEBD010653B6FE43B501BD020643B68A
:10142D000153B5FEBD030643B60143B5017F00224E
:1012EA00EFD3940140037FFF22EDD3940340037FA1
:1012FA00FF22EF33333354F8FFE5AF54F74FF5AF1E
:10130A00ED700653EEFE53DFFEBD010653EEFE43BB
:10131A00DF01BD020643EE0153DFFEBD030643EEC5
:07132A000143DF017F0022F7
:10133100EFD3940140037FFF22EDD3940340037F59
:10134100FF22EFC454F0FFE5AF54EF4FF5AFED705E
:101351000653EEFD53DFFDBD010653EEFD43DF02F3
:10136100BD020643EE0253DFFDBD030643EE024319
:05137100DF027F0022F5
:10137600EFD3940140037FFF22EDD3940340037F14
:10138600FF22EF25E0FFE5AF54FD4FF5AFED700608
:1013960053B6FD53B5FDBD010653B6FD43B502BDBB
:1013A600020643B60253B5FDBD030643B60243B576
:0413B600027F002290
:1010F400EFD3948140037FFF22EBD3940340037F1B
:10110400FF22EF247F603004705890FEC4EDF0EBB2
:10111400700653B6FB53B5FBBB010653B6FB43B590
:1011240004BB020643B60453B5FBEB6403703843B7
:10113400B60443B504803090FEE4EDF0EB70065342
:10114400B6F753B5F7BB010653B6F743B508BB0270
:101154000643B60853B5F7BB030D43B60843B508B9
:0A116400800590FEE4EDF07F00220C
:1015EB00EDD394035026ED700653EEFB53DFFBBD9A
:1015FB00010653EEFB43DF04BD020643EE0453DF4B
:10160B00FBBD030B43EE0443DF0480037FFF2290FB
:07161B00FE62EFF07F0022E8
:030000000217CD17
:0C17CD00787FE4F6D8FD758141020046EB
:100DB700BB010689828A83E0225002E722BBFE023A
:090DC700E32289828A83E493226D
:100DD000BB010CE58229F582E5833AF583E02250D8
:100DE00006E92582F8E622BBFE06E92582F8E22222
:0D0DF000E58229F582E5833AF583E493223C
:100DFD00BB010689828A83F0225002F722BBFE01D5
:020E0D00F322CE
:100E0F00BB0110E58229F582E5833AF583E0F5F021
:100E1F00A3E0225009E92582F886F008E622BBFEFE
:100E2F000AE92582F8E2F5F008E222E5832AF58344
:080E3F00E993F5F0A3E9932209
:100E470075F008758200EF2FFFEE33FECD33CDCC62
:100E570033CCC58233C5829BED9AEC99E5829840E5
:100E67000CF582EE9BFEED9AFDEC99FC0FD5F0D6C2
:100E7700E4CEFBE4CDFAE4CCF9A88222B800C1B9EC
:100E87000059BA002DEC8BF084CFCECDFCE5F0CB2A
:100E9700F97818EF2FFFEE33FEED33FDEC33FCEB63
:100EA70033FB10D703994004EB99FB0FD8E5E4F91E
:100EB700FA227818EF2FFFEE33FEED33FDEC33FC0B
:100EC700C933C910D7059BE99A4007EC9BFCE99AFF
:100ED700F90FD8E0E4C9FAE4CCFB2275F010EF2F44
:100EE700FFEE33FEED33FDCC33CCC833C810D70744
:100EF7009BEC9AE899400AED9BFDEC9AFCE899F87F
:0E0F07000FD5F0DAE4CDFBE4CCFAE4C8F92211
:100F1500EB9FF5F0EA9E42F0E99D42F0E89C45F032
:010F250022A9
:100F2600E8600FECC313FCED13FDEE13FEEF13FFA9
:030F3600D8F122CD
:100F3900BB010DE58229F582E5833AF583020F7637
:100F49005007E92582F8020F69BBFE07E92582F8F7
:100F5900020F82E58229F582E5833AF583020F8F34
:1005A000E5312425F8E60531227822300702782546
:1005B000E475F001120F9F020DB72000EB7F2ED2E1
:1005C000008018EF540F2490D43440D4FF30040B33
:1005D000EF24BFB41A0050032461FFE53260021516
:1005E000320535E5357002053430070D7822E475A3
:1005F000F001120F9FEF020DFD02001E7403D207DF
:100600008003E4C207F5318B228A238924E4F53282
:10061000F534F535E53260077F201205DB80F5758E
:1006200033FFC201C200C202C203C205C206C20831
:100630001205A9FF700D3007057F001205ECAF35DC
:10064000AE3422B4255FC2D5C2041205A9FF24D05E
:10065000B40A00501A75F00A783230D50508B6FF92
:100660000106C6A426F620D5047002D20380D92440
:10067000CFB41A00EF5004C2E5D2040207ECD20155
:1006800080C6D20080C0D20280BCD2D580BAD2054A
:1006900080B47F201205DB2002077401B5320040D0
:1006A000F11205A0FF1205DB020614D208D2068063
:1006B000951205A0FB1205A0FA1205A0F94A4B708D
:1006C0000679BD7A087BFF20022EE532602A7E0083
:1006D0008E82758300120DD060060EEE653370F0C9
:1006E000C2D5EBC0E0EAC0E0E9C0E0EE120833D0CA
:1006F000E0F9D0E0FAD0E0FB120DB7FF60AAEBC042
:10070000E0EAC0E0E9C0E01205DBD0E02401F9D066
:10071000E03400FAD0E0FBE5330460DCD533D98067
:10072000877BFF7A08792FD202809C79108002792A
:1007300008C206C2088008D2D5790A8004790AC2A4
:10074000D5E533047002F533E4FAFDFEFF1205A08F
:10075000FC7B082001131205A0FD7B1030000A125B
:1007600005A0FE1205A0FF7B20EC3382D592D55068
:1007700013C3E43000069FFFE49EFEE42001039DC6
:10078000FDE49CFCE4CBF8C201EC700CCFCECDCCE8
:10079000E824F8F870F38017C3EF33FFEE33FEED73
:1007A00033FDEC33FCEB33FB994002FB0FD8E9EB54
:1007B000300105F8D0E0C448B201C0E00AEC4D4E6B
:1007C0004F78207B0070C2EAB5330040BCC0E01215
:1007D0000835D0F0D0E0200104C4C0E0C4B201C0AC
:1007E000F01205C4D0F0D5F0EB020614120FAF06DC
:1007F000B153072B5806824C067E42072F4F07370E
:0F08000044073749069743073D5507214607210F
:10080F004507214708DD5006862D068A2E06AD2B9B
:10081F00068E2306AB2008C62A064648000006A50A
:10082F003F3F3F00790AA2D5200314300509B910C4
:10083F00020404B9080104A2D520060250010420C5
:10084F0002689202B532005034C0E07F20300319A5
:10085F007F30A20272067205500F12088CC202C2BC
:10086F0006C205C2087F30800F300503E9C0E012D1
:10087F0005DB300503D0E0F9D0E0B532CC300517F9
:10088F007F30B9100C1205DB7F583004077F78805A
:10089F0003B908031205DB3002057F2D0205DB7F4C
:1008AF00202008F87F2B2006F322920280CF286E9B
:1008BF00756C6C2900D2011205A03001F8C20178C5
:1008CF003230D50108F60206462D5043495812051D
:1008DF00A02403B405004001E49008D8931205CC7E
:0D08EF00743A1205CCD20375320402072BB7
:0D0F6900E6FB08E6F908E6FA08E6CBF822F8
:0C0F7600E0F8A3E0F9A3E0FAA3E0FB22FE
:0D0F8200E2FB08E2F908E2FA08E2CBF822EF
:100F8F00E493F8740193F9740293FA740393FB22B8
:100F9F00FAE6FB0808E6F925F0F618E6CA3AF62253
:100FAF00D083D082F8E4937012740193700DA3A3D1
:100FBF0093F8740193F5828883E4737402936860E5
:060FCF00EFA3A3A380DFE5
:00000001FF
