:1018DF0073746172742E2E2E0A006375725F7465B5
:0718EF006D703D25640A0045
:1017890012194B7BFF7A1879DF1207FC12125B8E54
:10179900228F237BFF7A1879E9852227852328124E
:1017A90007FC7FFA12191A7FFA12191A7FFA12190D
:0817B9001A7FFA12191A80D4FC
:1017F800750840750901750D00750CC2750B0175EA
:101808000A00750F01E4F510FB7A0079087F0112D0
:0C1818000FCC7D017F0112174B53A23F43
:0118240022A1
:10161500EFD3940140037FFF22EDD3940340037F72
:10162500FF22EF7004C2A98002D2A9ED700553B75D
:10163500FDC2B9BD010553B7FDD2B9BD020543B71A
:0E16450002C2B9BD030543B702D2B97F00222D
:10165300EFD3940140037FFF22EDD3940340037F34
:10166300FF22EF7004C2AB8002D2ABED700553B71B
:10167300F7C2BBBD010553B7F7D2BBBD020543B7E4
:0E16830008C2BBBD030543B708D2BB7F0022DF
:10184800EFD3940140037FFF22EDD3940340037F3D
:10185800FF22EF25E025E0FFE5AF54FB4FF5AFE4AD
:02186800FF225D
:10186A00EFD3940140037FFF22EDD3940340037F1B
:10187A00FF22EFC43354E0FFE5AF54DF4FF5AFE486
:02188A00FF223B
:10182500EFD3940140037FFF22EDD3940340037F60
:10183500FF22EFC4333354C0FFE5AF54BF4FF5AFBC
:03184500E4FF229B
:10169100EFD3940140037FFF22EDD3940340037FF6
:1016A100FF22EF7004C2A88002D2A8ED700553B7E3
:1016B100FEC2B8BD010553B7FED2B8BD020543B79E
:0E16C10001C2B8BD030543B701D2B87F0022B5
:1016CF00EFD3940140037FFF22EDD3940340037FB8
:1016DF00FF22EF7004C2AA8002D2AAED700553B7A1
:1016EF00FBC2BABD010553B7FBD2BABD020543B762
:0E16FF0004C2BABD030543B704D2BA7F00226D
:1018C700EFD3940140037FFF22EFC454F0FFE58F6D
:0818D70054EF4FF58FE4FF22EE
:1018AE00EFD3940140037FFF22EFC43354E0FFE5F2
:0918BE008F54DF4FF58FE4FF2287
:10000300EFD3940140037FFF22EFC4333354C0FF87
:0A001300E58F54BF4FF58FE4FF2284
:10170D00EFD3940140037FFF22EDD3940340037F79
:10171D00FF22EF7004C2AD8002D2ADED700553B75C
:10172D00DFC2BDBD010553B7DFD2BDBD020543B755
:0E173D0020C2BDBD030543B720D2BD7F0022F0
:10147A00EDD3940340037FFF22EF30E10543E620DA
:10148A00800353E6DFEF30E00543E610800353E6BE
:10149A00EFED700653B6DF53B5DFBD010653B6DF75
:1014AA0043B520BD020643B62053B5DFBD0306434C
:0814BA00B62043B5207F00229B
:1013CC00EFD3940140037FFF22EBD3940340037FC0
:1013DC00FF22BF0112ED90FE817006E0547FF08079
:1013EC0011E04480F0800BEF700890FE83E054878E
:1013FC004DF0EB700653B6DF53B5DFBB010653B6A9
:10140C00DF43B520BB020643B62053B5DFBB030652
:09141C0043B62043B5207F0022F5
:10174B00EFD3940140037FFF22EDD3940340037F3B
:10175B00FF22EF7004C2AC8002D2ACED700553B720
:10176B00EFC2BCBD010553B7EFD2BCBD020543B7F9
:0E177B0010C2BCBD030543B710D2BC7F0022D4
:1015D500EFD3940140037FFF22EDD3940340037FB3
:1015E500FF22E5AF54FE4FF5AFED700653B6FE533F
:1015F500B5FEBD010653B6FE43B501BD020643B6B1
:101605000153B5FEBD030643B60143B5017F002274
:1014C200EFD3940140037FFF22EDD3940340037FC7
:1014D200FF22EF33333354F8FFE5AF54F74FF5AF44
:1014E200ED700653EEFE53DFFEBD010653EEFE43E2
:1014F200DF01BD020643EE0153DFFEBD030643EEEC
:071502000143DF017F00221D
:10150900EFD3940140037FFF22EDD3940340037F7F
:10151900FF22EFC454F0FFE5AF54EF4FF5AFED7084
:101529000653EEFD53DFFDBD010653EEFD43DF0219
:10153900BD020643EE0253DFFDBD030643EE02433F
:05154900DF027F00221B
:10154E00EFD3940140037FFF22EDD3940340037F3A
:10155E00FF22EF25E0FFE5AF54FD4FF5AFED70062E
:10156E0053B6FD53B5FDBD010653B6FD43B502BDE1
:10157E00020643B60253B5FDBD030643B60243B59C
:04158E00027F0022B6
:1012E500EFD3948140037FFF22EBD3940340037F28
:1012F500FF22EF247F603004705890FEC4EDF0EBC0
:10130500700653B6FB53B5FBBB010653B6FB43B59D
:1013150004BB020643B60453B5FBEB6403703843C4
:10132500B60443B504803090FEE4EDF0EB7006534F
:10133500B6F753B5F7BB010653B6F743B508BB027D
:101345000643B60853B5F7BB030D43B60843B508C6
:0A135500800590FEE4EDF07F002219
:1017C100EDD394035026ED700653EEFB53DFFBBDC2
:1017D100010653EEFB43DF04BD020643EE0453DF73
:1017E100FBBD030B43EE0443DF0480037FFF229024
:0717F100FE62EFF07F002211
:060FCC008B118A1289134B
:100FD200EF64016003021117F518F519F51AF51BF4
:100FE200F51CFF7E809001EAE4F0A3DEFCE4FF7EC4
:100FF2008090016AE4F0A3DEFC7E00AB11AA12A984
:10100200131205A6FFE598543F4FF598EF64C060B0
:1010120008EF644060030210CC9000021206FE7FCB
:10102200807E8D7D5B7C0012063A8F178E168D15A1
:101032008C14E4FFFE7D01FCAB17AA16A915A814B7
:10104200C31206DA40037FFF22C3E49517F517E4C3
:101052009516F51674019515F515E49514F514AB6E
:1010620011AA12A9139000011205BFFB6401702C92
:10107200C28E538EFE5389BF5389CF438E40AF1722
:10108200AE16AD15AC1478081206EB8F8D85178B52
:10109200C2AB5389BF538FFDD28E8062EB64027064
:1010A20026538EEF438E01538EF7438E04AF17AE55
:1010B20016AD15AC1478081206EB8FD68517D753E8
:1010C200AFFB438E1080377FFF22AB11AA12A91308
:1010D2001205A6FF70139000081205BFB401054364
:1010E2008E20801A538EDF8015EFB4801190000895
:1010F2001205BFB40105438780800353877FAB117C
:10110200AA12A9139000071205BF7004C29C8002A4
:07111200D29C7F00227FFF49
:0111190022B3
:0A1941008F99751A01E51A70FC2257
:1018F6001205A6FF600C121941740129F9E43AFA9F
:0319060080EE224E
:05001D00AE07021941CD
:100E5D00616A0000E3F2D8A8CDDAC380B99BB0294E
:100E6D00A7259E8D965C8E908725801779637304D8
:100E7D006CF8673B61CA5CA157BC53194EB44A8BE1
:100E8D00469B42E03F583C0138D735D933053058A1
:100E9D002DD02B6A2927270224FC231121411F8BDA
:100EAD001DEC1C631AF019911844170A15E114C7AB
:100EBD0013BD12C111D210F0101A0F500E900DDA91
:100ECD000D2E0C8B0BF10B5E0AD30A4F09D3095C67
:100EDD0008EC0881081C07BA0761070A06B8066AFC
:100EED00062005D905960556051A04E004A90475D2
:100EFD000444041403E803BD0394036D0348032560
:100F0D00030302E302C502A7028C027102580240DC
:100F1D000228021201FD01E901D601C401B201A1AD
:100F2D0001910182017301660158014B013E0132AD
:100F3D000127011C0112010800FE00F500EC00E480
:100F4D0000DC00D400CD00C600BF00B800B200AC7C
:100F5D0000A600A0009B00960091008C00870083E6
:100F6D00007E007A00760073006F006B00680065EC
:100F7D000061005E005B0059005600530051004EA9
:100F8D00004C004A0047004500430041003F003D32
:100F9D00003C003A00380037003500340032003193
:100FAD00002F002E002D002B002A002900280027DD
:0E0FBD00002600250024002300220021002031
:101909007524017525107B007A007924E4FF020C07
:0119190009C4
:10188C0075241FE4F525752601F527752801FB7ACB
:10189C000079241214257F011219367D01E4FF0210
:0218AC00170D16
:08194B00D2AF12190902188C39
:04111A008E2C8F2D5B
:10111E00E4F530F531F535F534F533F532F5367550
:10112E0037B5900000E0FEA3E0FFC3E52D9FFFE57D
:10113E002C9EFE12192AAC06AD07EC12034A8F3B09
:10114E008E3A8D398C38752E00752F01C3E52F958B
:0D115E0037E5366480F8E52E648098505F18
:10116B00E52F25E0FFE52E33FE74002FF58274008A
:10117B003EF583E0FEA3E0FFC3E52D9FFFE52C9E2C
:10118B00FE12192AAC06AD07EC12034A8F3F8E3EB6
:10119B008D3D8C3CAB3BAA3AA939A8381202CC60E6
:1011AB00144012853F3B853E3A853D39853C388559
:0511BB002E30852F31EC
:0E11C000052FE52F7094052E8090AE30AF31D4
:0111CE0022FE
:10125B007F0C12135FAD07AC06E412034AE4FBFAF2
:10126B0079207840120126E4FBFA79807845120246
:10127B002F8F278E268D258C24AB27AA26A925A850
:10128B00247F337E337D537C40120031C004C00574
:10129B00C006C007E4FFFE7D207C41AB27AA26A930
:1012AB0025A824120126D003D002D001D0001202AF
:1012BB002F8F2B8E2A8D298C28E4FFFE7DC87C4234
:1012CB00AB2BAA2AA929A8281201261203831211D3
:0912DB001AEF24C9FFEE34FFFEF6
:0112E40022E7
:101425009000011205BFFFE5DE54F04FF5DE900098
:10143500021205BFC43354E0FFE5DE54DF4FF5DE8D
:101445001205A6FFD3941F502B9000031205BFFE73
:10145500D39401501F9000041205BFFDD39403508F
:1014650013EDC43354E0FDEEC433333354804D4F94
:0514750090FEA8F0222A
:0B193600BF010443BC802253BC7F2291
:10135F00EFD3940F40028060E4F5BDF5BEE5BC54B9
:10136F00F044404FF5BC00000000000000000000FA
:10137F00E4FDE5BC30E53D53BCDFE5DEAFBD30E558
:10138F000EEFFEACBEECFBEEF52CEBF52D802075D1
:10139F002C008F2DE5BEC4540FFBE52DC4F8540F60
:1013AF00C868FFE52CC454F048F52CEF4BF52DAE73
:0C13BF002CAF2D220DBDFABA7E107F006D
:0113CB0022FF
:03002B00020026AA
:0400260053BCDF32B6
:0F191A007D607C09ED1D70011C144C70F7DFF12E
:01192900229B
:100C0900EFD3940740037FFF221205A6FED3940376
:100C190040037FFF22EF7041EE700B900001120537
:100C2900BFF4529352941205A6B4010B900001121D
:100C390005BF4293F452941205A6FEB4020A90002D
:100C4900011205BF42934294EEB4030D90000112C4
:100C590005BFFEF45293EE4294EF6401704312050E
:100C6900A6FE700B9000011205BFF452915292EE4C
:100C7900B4010B9000011205BF4291F45292120582
:100C8900A6B4020A9000011205BF429142921205D0
:100C9900A6B4030D9000011205BFFEF45291EE4275
:100CA90092EF640270431205A6FE700B90000112C8
:100CB90005BFF452955296EEB4010B90000112054E
:100CC900BF4295F452961205A6B4020A9000011289
:100CD90005BF429542961205A6B4030D9000011274
:100CE90005BFFEF45295EE4296EF64037043120578
:100CF900A6FE700B9000011205BFF452B152B2EE7C
:100D0900B4010B9000011205BF42B1F452B21205B1
:100D1900A6B4020A9000011205BF42B142B21205FF
:100D2900A6B4030D9000011205BFFEF452B1EE42C4
:100D3900B2EF640470431205A6FE700B9000011215
:100D490005BFF452B352B4EEB4010B900001120581
:100D5900BF42B3F452B41205A6B4020A90000112BC
:100D690005BF42B342B41205A6B4030D90000112A7
:100D790005BFFEF452B3EE42B4EF640570431205A9
:100D8900A6FE700B9000011205BFF452C952CAEEBB
:100D9900B4010B9000011205BF42C9F452CA1205F1
:100DA900A6B4020A9000011205BF42C942CA12053F
:100DB900A6B4030D9000011205BFFEF452C9EE421C
:100DC900CAEF640670431205A6FE700B900001126B
:100DD90005BFF452CB52CCEEB4010B9000011205C1
:100DE900BF42CBF452CC1205A6B4020A90000112FC
:100DF90005BF42CB42CC1205A6B4030D90000112E7
:100E090005BFFEF452CBEE42CCEF640770431205E6
:100E1900A6FF700B9000011205BFF452E152E2EFF8
:100E2900B4010B9000011205BF42E1F452E2120530
:100E3900A6B4020A9000011205BF42E142E212057E
:100E4900A6B4030D9000011205BFFFF452E1EF4271
:040E5900E27F002212
:0300230002159231
:10159200C0E0C083C082C0D075D000C007309820A0
:1015A200C298E51BC394804003751B00AF1B051B4B
:1015B200746A2FF582E43401F583E599F0751C0510
:1015C200309905C299751A00D007D0D0D082D08345
:0315D200D0E03234
:10002E000203EFE86480F8E933E83360110460F00E
:10003E00ED33EC337009E8FCE9FDEAFEEBFF220438
:10004E0060DED3EB9FEA9EE99DE8C2E78CF0C2F733
:10005E0095F0400CE8CCF8E9CDF9EACEFAEBCFFBFF
:10006E001203BA85D0F05804700320D5B3E804709B
:10007E00075002B2D50203F992D5EC0460F7E4CC36
:10008E00C0E0C398F8603B94186008400DD0E0FBC8
:10009E000203D1E4FBFAC9FC8028E830E406E4C987
:1000AE00FBE4CAFCE830E305E4C9CACBFCE854071C
:1000BE006010F8C3E913F9EA13FAEB13FBEC13FC27
:1000CE00D8F130F52FC3E49CFCEF9BFFEE9AFEEDCA
:1000DE0099FDD0E0FBEF4E4D4C701222DB03020374
:1000EE00F6EC2CFCEF33FFEE33FEED33FDED30E797
:1000FE00EB0203D1EF2BFFEE3AFEED39FDD0E0FB24
:10010E0050130BBB00030203F9ED13FDEE13FEEFCC
:08011E0013FFEC13FC0203D1F6
:10012600EC4D6011E8497017ED33EC3304600DE4D3
:10013600FCFFFEFD22E933E8330470F80203EF12F8
:1001460003BA58046009E4CC2481500628500902F9
:1001560003F92840030203F6C0E0EB4A7044B98075
:1001660006D0E0FB0203E5EF4E701CBD8008EBFFF6
:10017600EAFEE9FD80EBE98DF0A4FEE5F002020F50
:10018600E9CDF9EAFEEBFFEF89F0A4FCE5F0CE89B4
:10019600F0A42EFFE435F0CD89F0A42DFEE435F071
:1001A6008067EF4E7005BD80D780C3EF8BF0A4AC9F
:1001B600F0EE8BF0A42CFCE435F0F8EF8AF0A42CDA
:1001C600E5F038FCE433CB8DF0A42CFCE5F03BF8ED
:1001D600EE8AF0A42CFCE5F038F8E433CF89F0A4DD
:1001E6002CFCE5F038CF3400CE89F0A42FFFE5F0E3
:1001F6003EFEE433C98DF0A42EFEE5F039CD8AF03B
:10020600A42FFFE5F03EFEE43DFD33D0E0FB5007B2
:100216000BBB000F0203F9EC2CFCEF33FFEE33FEB1
:06022600ED33FD0203D1DF
:10022C000203F9EC5D046005E8590470030203EF66
:10023C001203BA580460F6EC4860F2EC7004FDFE50
:10024C00FF22C860DB2481C85009C39860025006A5
:10025C000203F69850CAF582E9294B4A7005AB8225
:10026C000203E575F0007C1A7880C3EF9BEE9AEDE3
:10027C0099400DC3EF9BFFEE9AFEED99FDE842F01D
:10028C00DC23ACF0D0E0FFD0E0FED0E0FDAB822070
:10029C00E7101BEB60BAEC2CFCEF33FFEE33FEEDFA
:1002AC0033FD0203D1E803F830E705C0F075F00028
:1002BC00EF2FFFEE33FEED33FD40B830E7C280AADE
:1002CC0074F8CC6480CCC86480C8F58204604FC3D9
:1002DC00EB9FF5F0EA9E42F0E99D42F0E89C45F078
:1002EC00603C501DE5825FFFE582D313CB5BCBF402
:1002FC002B5582FB50280ABA002409B9002008802B
:10030C001DE5825BFBE582D313CF5FCFF4C3132FC4
:10031C005582FF50090EBE00050DBD00010CC3EB4C
:10032C009FF5F0EA9E42F0E99D42F0E89C45F060B2
:09033C0007CC4820E701B3EC22D4
:1003450075F020800E75F010800575F0087D007E33
:10035500007F003392D530D5031206CCEC33401024
:10036500EF33FFEE33FEED33FDEC33FCD5F0ED223C
:0E037500E5F0247EA2D513CC92E7CDCEFF2278
:10038300EDD2E7CD33EC3392D524814006E4FFFE72
:10039300FDFC22FCE4CFCECDCC24E0501174FF80D1
:1003A300EDC3CC13CCCD13CDCE13CECF13CF04706E
:0703B300F030D5DE0206CC9C
:10079A00E53B2427F8E6053B227824300702782730
:1007AA00E475F00112072E0205A62000EB7F2ED277
:1007BA00008018EF540F2490D43440D4FF30040B37
:1007CA00EF24BFB41A0050032461FFE53C60021510
:1007DA003C053FE53F7002053E30070D7824E4757D
:1007EA00F00112072EEF0205EC02001D7403D20776
:1007FA008003E4C207F53B8B248A258926E4F53C6D
:10080A00F53EF53FE53C60077F201207D580F57578
:10081A003DFFC201C200C202C203C205C206C2082B
:10082A001207A3FF700D3007057F001207E6AF3FDE
:10083A00AE3E22B4255FC2D5C2041207A3FF24D05C
:10084A00B40A00501A75F00A783C30D50508B6FF8C
:10085A000106C6A426F620D5047002D20380D92444
:10086A00CFB41A00EF5004C2E5D204020AD3D2016F
:10087A0080C6D20080C0D20280BCD2D580BAD2054E
:10088A0080B47F201207D52002077401B53C0040CE
:10089A00F112079AFF1207D502080ED208D2068073
:1008AA009512079AFB12079AFA12079AF94A4B709D
:1008BA000679CA7A0B7BFF20022EE53C602A7E006D
:1008CA008E827583001205BF60060EEE653D70F0DC
:1008DA00C2D5EBC0E0EAC0E0E9C0E0EE120B33D0CB
:1008EA00E0F9D0E0FAD0E0FB1205A6FF60AAEBC05F
:1008FA00E0EAC0E0E9C0E01207D5D0E02401F9D06F
:10090A00E03400FAD0E0FBE53D0460DCD53DD98057
:10091A0087D20280A2120B1660F7E53D700104121D
:10092A000404A93D600DE53D600914F53D120BBDB7
:10093A00EF60F3EA30E702F404C3995077EAF4254A
:10094A003D0430E701E404F53D800D120B1660C149
:10095A00EA053D253D120404EA783AF630E701E457
:10096A00253D04D53D0420050114120B33E4C0E0F3
:10097A00120BBD783AE6601320E70714F61207BD9A
:10098A00802204F6D0E014C0E07F001207BDE53DE6
:10099A0060071207B4153D800B3005031207B4D067
:1009AA00E002080ED0E00480C5120B1660A0E53DF7
:1009BA0004120404783AEAF6E53D200502600104CF
:0509CA002404120B33B0
:1009CF0074FF04C0E0120BBD1207BDE53D20050208
:1009DF0060031207B4D0E0B53DE87F451207C77832
:1009EF003AE67F2B30E7047F2DF404C0E01207D5E1
:1009FF00D0E075F00A84C0F01207BED0E01207BE37
:100A0F0002080E791080027908C206C2088008D247
:100A1F00D5790A8004790AC2D5E53D047002F53D07
:100A2F00E4FAFDFEFF12079AFC7B08200113120760
:100A3F009AFD7B1030000A12079AFE12079AFF7B6D
:100A4F0020EC3382D592D55013C3E43000069FFFBC
:100A5F00E49EFEE42001039DFDE49CFCE4CBF8C280
:100A6F0001EC700CCFCECDCCE824F8F870F38017E2
:100A7F00C3EF33FFEE33FEED33FDEC33FCEB33FB13
:100A8F00994002FB0FD8E9EB300105F8D0E0C448DC
:100A9F00B201C0E00AEC4D4E4F78207B0070C2EAE5
:100AAF00B53D0040BCC0E0120B35D0F0D0E02001C6
:100ABF0004C4C0E0C4B201C0F01207BED0F0D5F03C
:100ACF00EB02080E12073E08AB530A1258087C4C73
:100ADF000878420A164F0A1E440A1E490891430A13
:100AEF00245509554609B345091F470BEA5008809D
:100AFF002D08842E08A72B08882308A5200BD32A9E
:100B0F000840480000089FE53DB4FF03753D0612FD
:100B1F00079AFC12079AFD12079AFE12079AFF789E
:100B2F0033020433790AA2D5200314300509B91012
:100B3F00020404B9080104A2D520060250010420C2
:100B4F0002689202B53C005034C0E07F2030031998
:100B5F007F30A20272067205500F120B8CC202C2B6
:100B6F0006C205C2087F30800F300503E9C0E012CE
:100B7F0007D5300503D0E0F9D0E0B53CCC300517F0
:100B8F007F30B9100C1207D57F583004077F78805B
:100B9F0003B908031207D53002057F2D0207D57F51
:100BAF00202008F87F2B2006F322920280CF7F00AF
:100BBF00B4070050052433F8E6FF22286E756C6CDD
:100BCF002900D20112079A3001F8C201783C30D5C2
:100BDF000108F60208402D5043495812079A240382
:100BEF00B405004001E4900BE5931207C6743A1266
:0A0BFF0007C6D203753C04020A1277
:1003BA00E9D2E7C933E833F892D5EDD2E7CD33EC89
:0703CA0033FC5002B2D52202
:1003D100EC30E7100FBF000C0EBE00080DBD00048D
:1003E1000BEB6014A2D5EB13FCED92E7FD2274FF39
:1003F100FCFDFEFF22E480F8A2D574FF13FC7D8092
:03040100E480EFA5
:10040400F920E72824F950037907E4F42402FB18BF
:10041400DBFDE624FB5014E9600DE4F618E604F66F
:0F042400B40A08E4F6D9F57401F60A22C2D5220B
:10043300ED33EC3392D5FA602AB4FF33EDC2E77B98
:10044300FF60067A047958E4227A04796120D5049E
:100453007A04795C224E614E002B494E46002D49A9
:100463004E4600E47A08F608DAFC7B00740722E8BB
:10047300C0E0ECC0E0EDC0E0EEC0E0EFC0E0EA7544
:10048300F010A4CAABF075F04DA42BFBE435F0FCDF
:10049300EA2410FAEB34C5FBEC34D9FCEDC2E7FFD8
:1004A30075F056A4F42411C5F0F434C58FF0A42AD2
:1004B300E5F03BE43CF620E714120566D0E0FFD0FC
:1004C300E0FED0E0FDD0E0FC12022F8014F4041211
:1004D3000566D0E0FFD0E0FED0E0FDD0E0FC1201E5
:1004E30026D0E0F8E6FAEDD2E7CD33EC332482FBF5
:1004F300E4C3CF33CFCE33CECD33CD33DBF37B0762
:1005030075F00A846004F6081B0AE5F0F6088FF01C
:10051300740AA4FFACF08EF0740AA42CFEACF05065
:10052300010C8DF0740AA42CFDE435F0F608DBDE33
:0305330074072228
:100536003F8000004120000042C80000447A0000CD
:10054600461C400047C35000497424004B1896804F
:100556004CBEBC205A0E1BCA6753C21C749DC5AE46
:10056600FB60065407601C2323120594EB54386085
:100576000912058012058F120126ECF8EDF9EEFA44
:10058600EFCB22EB12058F80F1543803241C900523
:1005960036FE93FC0EEE93FD0EEE930ECE93FF22E7
:030000000211CF1B
:0C11CF00787FE4F6D8FD75813F0212160F
:1005A600BB010689828A83E0225002E722BBFE0253
:0905B600E32289828A83E4932286
:1005BF00BB010CE58229F582E5833AF583E02250F1
:1005CF0006E92582F8E622BBFE06E92582F8E2223B
:0D05DF00E58229F582E5833AF583E4932255
:1005EC00BB010689828A83F0225002F722BBFE01EE
:0205FC00F322E8
:1005FE0075F008758200EF2FFFEE33FECD33CDCCB4
:10060E0033CCC58233C5829BED9AEC99E582984036
:10061E000CF582EE9BFEED9AFDEC99FC0FD5F0D613
:10062E00E4CEFBE4CDFAE4CCF9A88222B800C1B93D
:10063E000059BA002DEC8BF084CFCECDFCE5F0CB7B
:10064E00F97818EF2FFFEE33FEED33FDEC33FCEBB4
:10065E0033FB10D703994004EB99FB0FD8E5E4F96F
:10066E00FA227818EF2FFFEE33FEED33FDEC33FC5C
:10067E00C933C910D7059BE99A4007EC9BFCE99A50
:10068E00F90FD8E0E4C9FAE4CCFB2275F010EF2F95
:10069E00FFEE33FEED33FDCC33CCC833C810D70795
:1006AE009BEC9AE899400AED9BFDEC9AFCE899F8D0
:0E06BE000FD5F0DAE4CDFBE4CCFAE4C8F92263
:0E06CC00C3E49FFFE49EFEE49DFDE49CFC223F
:1006DA00EB9FF5F0EA9E42F0E99D42F0E89C45F076
:0106EA0022ED
:1006EB00E8600FECC313FCED13FDEE13FEEF13FFED
:0306FB00D8F12211
:1006FE00BB010DE58229F582E5833AF58302077188
:10070E005007E92582F8020764BBFE07E92582F847
:10071E0002077DE58229F582E5833AF58302078A91
:10072E00FAE6FB0808E6F925F0F618E6CA3AF622CC
:10073E00D083D082F8E4937012740193700DA3A34A
:10074E0093F8740193F5828883E47374029368605E
:06075E00EFA3A3A380DF5E
:0C192A00EE30E707C3E49FFFE49EFE22BE
:1011DB00021789E493A3F8E493A34003F68001F28A
:1011EB0008DFF48029E493A3F85407240CC8C33315
:1011FB00C4540F4420C8834004F456800146F6DFE4
:10120B00E4800B0102040810204080900E5DE47E08
:10121B00019360BCA3FF543F30E509541FFEE493D8
:10122B00A360010ECF54C025E060A840B8E493A39F
:10123B00FAE493A3F8E493A3C8C582C8CAC583CACA
:10124B00F0A3C8C582C8CAC583CADFE9DEE780BE82
:010FCB000025
:0D076400E6FB08E6F908E6FA08E6CBF82205
:0C077100E0F8A3E0F9A3E0FAA3E0FB220B
:0D077D00E2FB08E2F908E2FA08E2CBF822FC
:10078A00E493F8740193F9740293FA740393FB22C5
:00000001FF
