:101518001212351214EBD2AFC2C5E50BD3940040BA
:1015280011900000E07005120F9E8003121008E46D
:09153800F50B7F1912161F80E16A
:10123500751C03751D207B007A00791C7F0412093B
:1012450082751C03751DC07B007A00791C7F021214
:101255000982751C03751D307B007A00791C7F019E
:10126500120982751C03751D0F7B007A00791C7F9E
:0412750002020982E6
:1014EB00751C40751D017521007520C2751F017596
:1014FB001E00752301E4F524FB7A00791C7F011291
:0C150B0000967D017F0112147653A23F70
:0115170022B1
:1015C000E50BD394004009900000E0FFE4F50B2206
:0215D0007F009A
:0115D20022F6
:100F9E00751C01E51CB40103C38001D392A7E51CA7
:100FAE00B40203C38001D392A6E51CB40303C3802D
:100FBE0001D39295E51CB40403C38001D39294E54A
:100FCE001CB40503C38001D392A3E51CB40603C36E
:100FDE008001D392A2E51CB40703C38001D392A172
:100FEE00E51CB40803C38001D392A07FFA12161F2A
:090FFE00051CE51CC39409409A8E
:0110070022C6
:10100800751C08E51CB40103C38001D392A7E51C35
:10101800B40203C38001D392A6E51CB40303C380C2
:1010280001D39295E51CB40403C38001D39294E5DF
:101038001CB40503C38001D392A3E51CB40603C303
:101048008001D392A2E51CB40703C38001D392A107
:10105800E51CB40803C38001D392A07FFA12161FBF
:09106800151CE51CD39400509AFC
:01107100225C
:10098200EFD3940740037FFF22120BD6FED39403CA
:1009920040037FFF22EF7041EE700B900001120BBB
:1009A200EFF452935294120BD6B4010B9000011241
:1009B2000BEF4293F45294120BD6FEB4020A90004B
:1009C20001120BEF42934294EEB4030D9000011218
:1009D2000BEFFEF45293EE4294EF64017043120B5C
:1009E200D6FE700B900001120BEFF452915292EE70
:1009F200B4010B900001120BEF4291F45292120BD0
:100A0200D6B4020A900001120BEF42914292120BED
:100A1200D6B4030D900001120BEFFEF45291EE4298
:100A220092EF64027043120BD6FE700B900001121B
:100A32000BEFF452955296EEB4010B900001120B9B
:100A4200EF4295F45296120BD6B4020A90000112AC
:100A52000BEF42954296120BD6B4030D9000011291
:100A62000BEFFEF45295EE4296EF64037043120BC5
:100A7200D6FE700B900001120BEFF452B152B2EE9F
:100A8200B4010B900001120BEF42B1F452B2120BFF
:100A9200D6B4020A900001120BEF42B142B2120B1D
:100AA200D6B4030D900001120BEFFEF452B1EE42E8
:100AB200B2EF64047043120BD6FE700B9000011269
:100AC2000BEFF452B352B4EEB4010B900001120BCF
:100AD200EF42B3F452B4120BD6B4020A90000112E0
:100AE2000BEF42B342B4120BD6B4030D90000112C5
:100AF2000BEFFEF452B3EE42B4EF64057043120BF7
:100B0200D6FE700B900001120BEFF452C952CAEEDE
:100B1200B4010B900001120BEF42C9F452CA120B3E
:100B2200D6B4020A900001120BEF42C942CA120B5C
:100B3200D6B4030D900001120BEFFEF452C9EE423F
:100B4200CAEF64067043120BD6FE700B90000112BE
:100B52000BEFF452CB52CCEEB4010B900001120B0E
:100B6200EF42CBF452CC120BD6B4020A900001121F
:100B72000BEF42CB42CC120BD6B4030D9000011204
:100B82000BEFFEF452CBEE42CCEF64077043120B34
:100B9200D6FF700B900001120BEFF452E152E2EF1C
:100BA200B4010B900001120BEF42E1F452E2120B7E
:100BB200D6B4020A900001120BEF42E142E2120B9C
:100BC200D6B4030D900001120BEFFFF452E1EF4295
:040BD200E27F00229C
:10134000EFD3940140037FFF22EDD3940340037F4A
:10135000FF22EF7004C2A98002D2A9ED700553B735
:10136000FDC2B9BD010553B7FDD2B9BD020543B7F2
:0E13700002C2B9BD030543B702D2B97F002205
:10137E00EFD3940140037FFF22EDD3940340037F0C
:10138E00FF22EF7004C2AB8002D2ABED700553B7F3
:10139E00F7C2BBBD010553B7F7D2BBBD020543B7BC
:0E13AE0008C2BBBD030543B708D2BB7F0022B7
:10156400EFD3940140037FFF22EDD3940340037F24
:10157400FF22EF25E025E0FFE5AF54FB4FF5AFE494
:02158400FF2244
:10158600EFD3940140037FFF22EDD3940340037F02
:10159600FF22EFC43354E0FFE5AF54DF4FF5AFE46D
:0215A600FF2222
:10154100EFD3940140037FFF22EDD3940340037F47
:10155100FF22EFC4333354C0FFE5AF54BF4FF5AFA3
:03156100E4FF2282
:1013BC00EFD3940140037FFF22EDD3940340037FCE
:1013CC00FF22EF7004C2A88002D2A8ED700553B7BB
:1013DC00FEC2B8BD010553B7FED2B8BD020543B776
:0E13EC0001C2B8BD030543B701D2B87F00228D
:1013FA00EFD3940140037FFF22EDD3940340037F90
:10140A00FF22EF7004C2AA8002D2AAED700553B778
:10141A00FBC2BABD010553B7FBD2BABD020543B739
:0E142A0004C2BABD030543B704D2BA7F002244
:1015A800EFD3940140037FFF22EFC454F0FFE58F8F
:0815B80054EF4FF58FE4FF2210
:10002600EFD3940140037FFF22EFC43354E0FFE592
:090036008F54DF4FF58FE4FF2227
:10000300EFD3940140037FFF22EFC4333354C0FF87
:0A001300E58F54BF4FF58FE4FF2284
:10143800EFD3940140037FFF22EDD3940340037F51
:10144800FF22EF7004C2AD8002D2ADED700553B734
:10145800DFC2BDBD010553B7DFD2BDBD020543B72D
:0E14680020C2BDBD030543B720D2BD7F0022C8
:1011A600EDD3940340037FFF22EF30E10543E620B1
:1011B600800353E6DFEF30E00543E610800353E695
:1011C600EFED700653B6DF53B5DFBD010653B6DF4C
:1011D60043B520BD020643B62053B5DFBD03064323
:0811E600B62043B5207F002272
:10107200EFD3940140037FFF22EBD3940340037F1D
:10108200FF22BF0112ED90FE817006E0547FF080D6
:1010920011E04480F0800BEF700890FE83E05487EB
:1010A2004DF0EB700653B6DF53B5DFBB010653B606
:1010B200DF43B520BB020643B62053B5DFBB0306B0
:0910C20043B62043B5207F002253
:10147600EFD3940140037FFF22EDD3940340037F13
:10148600FF22EF7004C2AC8002D2ACED700553B7F8
:10149600EFC2BCBD010553B7EFD2BCBD020543B7D1
:0E14A60010C2BCBD030543B710D2BC7F0022AC
:10130000EFD3940140037FFF22EDD3940340037F8A
:10131000FF22E5AF54FE4FF5AFED700653B6FE5316
:10132000B5FEBD010653B6FE43B501BD020643B688
:101330000153B5FEBD030643B60143B5017F00224C
:1011EE00EFD3940140037FFF22EDD3940340037F9E
:1011FE00FF22EF33333354F8FFE5AF54F74FF5AF1B
:10120E00ED700653EEFE53DFFEBD010653EEFE43B8
:10121E00DF01BD020643EE0153DFFEBD030643EEC2
:07122E000143DF017F0022F4
:10004600EFD3940140037FFF22EDD3940340037F57
:10005600FF22EFC454F0FFE5AF54EF4FF5AFED705C
:100066000653EEFD53DFFDBD010653EEFD43DF02F1
:10007600BD020643EE0253DFFDBD030643EE024317
:05008600DF027F0022F3
:10127900EFD3940140037FFF22EDD3940340037F12
:10128900FF22EF25E0FFE5AF54FD4FF5AFED700606
:1012990053B6FD53B5FDBD010653B6FD43B502BDB9
:1012A900020643B60253B5FDBD030643B60243B574
:0412B900027F00228E
:100F2400EFD3948140037FFF22EBD3940340037FEC
:100F3400FF22EF247F603004705890FEC4EDF0EB84
:100F4400700653B6FB53B5FBBB010653B6FB43B562
:100F540004BB020643B60453B5FBEB640370384389
:100F6400B60443B504803090FEE4EDF0EB70065314
:100F7400B6F753B5F7BB010653B6F743B508BB0242
:100F84000643B60853B5F7BB030D43B60843B5088B
:0A0F9400800590FEE4EDF07F0022DE
:1014B400EDD394035026ED700653EEFB53DFFBBDD2
:1014C400010653EEFB43DF04BD020643EE0453DF83
:1014D400FBBD030B43EE0443DF0480037FFF229034
:0714E400FE62EFF07F002221
:10057000AD07ED6401707A90FECCE054FEF0E054DB
:10058000FBF090FEC8E054FCF0120BD6FF90FEC8C2
:10059000E0548F4FF0900006120BEFFF90FECC302E
:1005A000E00DE04401F090FEB1E04401F0800BE08A
:1005B00054FEF090FEB1E054FEF0EF90FECC30E13E
:1005C0000DE04404F090FEB1E04402F0800BE054F2
:1005D000FBF090FEB1E054FDF0900003120C47E5F3
:1005E000F090FED5F0900003120C4790FED6020961
:1005F0002AED6402707A90FECCE054EFF0E054BF34
:10060000F090FEC9E054FCF0120BD6FF90FEC9E05A
:10061000548F4FF0900006120BEFFF90FECC30E2AB
:100620000DE04410F090FEB1E04404F0800BE05483
:10063000EFF090FEB1E054FBF0EF90FECC30E30D14
:10064000E04440F090FEB1E04408F0800BE054BF7D
:10065000F090FEB1E054F7F0900003120C47E5F083
:1006600090FED7F0900003120C4790FED802092AA2
:10067000ED6403707A90FECDE054FEF0E054FBF0A0
:1006800090FECAE054FCF0120BD6FF90FECAE05474
:100690008F4FF0900006120BEFFF90FECD30E40D6F
:1006A000E04401F090FEB1E04410F0800BE054FE15
:1006B000F090FEB1E054EFF0EF90FECD30E50DE0AC
:1006C0004404F090FEB1E04420F0800BE054FBF0D5
:1006D00090FEB1E054DFF0900003120C47E5F0907B
:1006E000FED9F0900003120C4790FEDA02092AEDC1
:1006F0006404707A90FECDE054EFF0E054BFF090C7
:10070000FECBE054FCF0120BD6FF90FECBE0548FF2
:100710004FF0900006120BEFFF90FECD30E60DE09B
:100720004410F090FEB1E04440F0800BE054EFF054
:1007300090FEB1E054BFF0EF90FECD30E70DE04405
:1007400040F090FEB1E04480F0800BE054BFF090A8
:10075000FEB1E0547FF0900003120C47E5F090FEEC
:10076000DBF0900003120C4790FEDC02092AED64D6
:1007700080704F900005120BEF90FEDEF0900001AC
:10078000120C47E5F090FED2F0900001120C479059
:10079000FED3F0900008120BEF90FEDDB40106E0EE
:1007A0004480F08004E0547FF0900007120BEF903B
:1007B000FEC0B40106E04401F08004E054FEF07F86
:1007C0000022ED6405705690FEECE054FEF090FEC1
:1007D000E8E054FCF0120BD6FF90FEE8E0548F4F97
:1007E000F0900006120BEF90FEEC30E00DE04401BB
:1007F000F090FEB5E04401F0800BE054FEF090FE76
:10080000B5E054FEF0900003120C47E5F090FEF5C1
:10081000F0900003120C4790FEF602092AED6406E0
:10082000705690FEECE054EFF090FEE9E054FCF0DE
:10083000120BD6FF90FEE9E0548F4FF090000612A5
:100840000BEF90FEEC30E20DE04410F090FEB5E0CE
:100850004404F0800BE054EFF090FEB5E054FBF060
:10086000900003120C47E5F090FEF7F090000312A1
:100870000C4790FEF802092AED6407705590FEEDD2
:10088000E054FEF090FEEAE054FCF0120BD6FF902C
:10089000FEEAE0548F4FF0900006120BEF90FEED51
:1008A00030E40DE04401F090FEB5E04410F0800B20
:1008B000E054FEF090FEB5E054EFF0900003120C0F
:1008C00047E5F090FEF9F0900003120C4790FEFA15
:1008D0008058ED6408705790FEEDE054EFF090FE04
:1008E000EBE054FCF0120BD6FF90FEEBE0548F4F80
:1008F000F0900006120BEF90FEED30E60DE0441094
:10090000F090FEB5E04440F0800BE054EFF090FE34
:10091000B5E054BFF0900003120C47E5F090FEFBE9
:10092000F0900003120C4790FEFCF07F0022ED6473
:1009300081704C900005120BEF90FEFEF0900001CC
:10094000120C47FDACF0EC90FEF2F0AF05A3EFF017
:10095000900008120BEF90FEFDB40106E04480F019
:100960008004E0547FF0900007120BEF90FEE0B49B
:100970000106E04401F08004E054FEF07F00227F95
:02098000FF2254
:100DD700EF24807003020E92147003020ED7248052
:100DE700B408004003020F23900DFD75F003A4C55E
:100DF7008325F0C58373020E15020E22020E3202FE
:100E07000E42020E52020E62020E72020E82120C85
:100E17001CFDACF0EC90FED5020F1D900002120CE9
:100E270047FDACF0EC90FED7020F1D900004120CAA
:100E370047FDACF0EC90FED9020F1D900006120C96
:100E470047FDACF0EC90FEDB020F1D900008120C82
:100E570047FDACF0EC90FEF5020F1D90000A120C56
:100E670047FDACF0EC90FEF7020F1D90000C120C42
:100E770047FDACF0EC90FEF9020F1D90000E120C2E
:100E870047FDACF0EC90FEFB020F1D120C1CFDACF5
:100E9700F0EC90FED5F0AF05A3EFF0900002120C36
:100EA70047FDACF0EC90FED7F0AF05A3EFF0900054
:100EB70004120C47FDACF0EC90FED9F0AF05A3EFA0
:100EC700F0900006120C47FDACF0EC90FEDB80467C
:100ED700900008120C47FDACF0EC90FEF5F0AF0562
:100EE700A3EFF090000A120C47FDACF0EC90FEF770
:100EF700F0AF05A3EFF090000C120C47FDACF0EC3F
:100F070090FEF9F0AF05A3EFF090000E120C47FD2D
:0D0F1700ACF0EC90FEFBF0AF05A3EFF02274
:0F161F007D607C09ED1D70011C144C70F7DFF12C
:01162E002299
:080096008F258B268A2789289B
:10009E00E5256401600302020CF508F509F50AF581
:1000AE000BF50CF529F52A7440252AF582740135D5
:1000BE0029F583E4F0052AE52A70020529648045B6
:1000CE002970E4E4F529F52A7400252AF5827400D6
:1000DE003529F583E4F0052AE52A700205296480A6
:1000EE00452970E4AB26AA27A928120BD6FFE5985E
:1000FE00543F4FF598EF64C06008EF644060030210
:10010E0001C1900002120D717F807E8D7D5B7C009F
:10011E00120CBB8F2E8E2D8D2C8C2BE4FFFE7D01B1
:10012E00FCAB2EAA2DA92CA82BC3120D4D40037F7C
:10013E00FF22C3E4952EF52EE4952DF52D74019531
:10014E002CF52CE4952BF52BAB26AA27A92890008D
:10015E0001120BEFFB6401702CC28E538EFE53897D
:10016E00BF5389CF438E40AF2EAE2DAD2CAC2B7826
:10017E0008120D5E8F8D852E8BC2AB5389BF538FA8
:10018E00FDD28E8062EB64027026538EEF438E0199
:10019E00538EF7438E04AF2EAE2DAD2CAC2B7808BC
:1001AE00120D5E8FD6852ED753AFFB438E10803740
:1001BE007FFF22AB26AA27A928120BD6FF70139019
:1001CE000008120BEFB40105438E20801A538EDF08
:1001DE008015EFB48011900008120BEFB4010543A7
:1001EE008780800353877FAB26AA27A92890000714
:1001FE00120BEF7004C29C8002D29C7F0022E52578
:10020E0064026003020305F50DF50EF50FF510F50A
:10021E0011F529F52A74E0252AF58274013529F5A0
:10022E0083E4F0052AE52A700205296480452970C9
:10023E00E4E4F529F52A7480252AF582740035291F
:10024E00F583E4F0052AE52A700205296480452924
:10025E0070E4AB26AA27A928120BD6FF64C060054E
:10026E00EF64407075EFB4C005439A808003539AD3
:10027E007F900002120D717F807E8D7D5B7C00125F
:10028E000CBB8F2E8E2D8D2C8C2BE4FFFE7D01FC56
:10029E00AB2EAA2DA92CA82BC3120D4D40037FFF08
:1002AE0022C3E4952EF52EE4952DF52D7401952C93
:1002BE00F52CE4952BF52B538EEF538EF7438E04CE
:1002CE00AF2EAE2DAD2CAC2B7808120D5E8FD685D1
:1002DE002ED753AFFB438E1080037FFF22AB26AA8F
:1002EE0027A928900007120BEFC454F0FFE59A548B
:1002FE00EF4FF59A7F0022E525640360030204396F
:10030E00F512F513F514F515F516F529F52A7460A1
:10031E00252AF58274023529F583E4F0052AE52AAB
:10032E00700205296440452970E4E4F529F52A7424
:10033E0000252AF58274013529F583E4F0052AE5B6
:10034E002A700205296440452970E4AB26AA27A924
:10035E0028120BD6FF64C06008EF644060030204ED
:10036E001CEFB4C00543AC80800353AC7F900002F9
:10037E00120D717F807E8D7D5B7C00120CBB8F2EEB
:10038E008E2D8D2C8C2BE4FFFE7D01FCAB2EAA2D29
:10039E00A92CA82BC3120D4D40037FFF22C3E49559
:1003AE002EF52EE4952DF52D7401952CF52CE49556
:1003BE002BF52BAB26AA27A928900001120BEFFBD9
:1003CE00B4031D43AC40AF2EAE2DAD2CAC2B780834
:1003DE00120D5E8FD4852ED553D1F043D10A8031C4
:1003EE00EB64027026538EEF53ACBF538EF7438EE1
:1003FE0004AF2EAE2DAD2CAC2B7808120D5E8FD621
:10040E00852ED753AFFB438E1080067FFF227FFFD2
:10041E0022AB26AA27A928900007120BEFC454F08E
:10042E00FFE5AC54EF4FF5AC7F0022E52564046088
:10043E000302056DF517F518F519F51AF51BF529D3
:10044E00F52A74A0252AF58274023529F583E4F085
:10045E00052AE52A700205296420452970E4E4F591
:10046E0029F52A74C0252AF58274013529F583E40D
:10047E00F0052AE52A700205296420452970E4ABAF
:10048E0026AA27A928120BD6FF64C06008EF644085
:10049E006003020550EFB4C005438480800353848B
:1004AE007F900002120D717F807E8D7D5B7C00122D
:1004BE000CBB8F2E8E2D8D2C8C2BE4FFFE7D01FC24
:1004CE00AB2EAA2DA92CA82BC3120D4D40037FFFD6
:1004DE0022C3E4952EF52EE4952DF52D7401952C61
:1004EE00F52CE4952BF52BAB26AA27A92890000115
:1004FE00120BEFFBB4041D438440AF2EAE2DAD2C7A
:10050E00AC2B7808120D5E8FD2852ED353D10F43AC
:10051E00D1A08031EB64027026538EEF5384BF530B
:10052E008EF7438E04AF2EAE2DAD2CAC2B78081269
:10053E000D5E8FD6852ED753AFFB438E1080067F70
:10054E00FF227FFF22AB26AA27A928900007120BB5
:10055E00EFC454F0FFE58454EF4FF5847F00227F03
:01056E00FF8D
:01056F002269
:0A163B008F99750A01E50A70FC2280
:1015D300120BD6FF600C12163B740129F9E43AFA98
:0315E30080EE2275
:0A1645008F9B750F01E50F70FC226A
:1015E600120BD6FF600C121645740129F9E43AFA7B
:0315F60080EE2262
:0A164F008FAD751401E51470FC2244
:1015F900120BD6FF600C12164F740129F9E43AFA5E
:0316090080EE224E
:0A1659008F85751901E51970FC2258
:10160C00120BD6FF600C121659740129F9E43AFA40
:03161C0080EE223B
:05001D00AE07021645CC
:030023000212BD09
:1012BD00C0E0C083C082C0D075D000C00730982078
:1012CD00C298E50BC394804003750B00AF0B050B63
:1012DD0074002FF582E43400F583E599F0750C0563
:1012ED00309905C299750A00D007D0D0D082D0832D
:0312FD00D0E0320C
:030043000210CBDD
:1010CB00C0E0C083C082C0D075D000C007E59A30A5
:1010DB00E021539AFEE510C394804003751000AFD6
:1010EB0010051074802FF582E43400F583E59BF036
:1010FB00751105E59A30E106539AFD750F00D0077F
:09110B00D0D0D082D083D0E032B4
:03008B000211144B
:10111400C0E0C083C082C0D075D000C007E5AC3049
:10112400E02153ACFEE515C394404003751500AFB0
:1011340015051574002FF582E43401F583E5ADF04F
:10114400751605E5AC30E10653ACFD751400D00707
:09115400D0D0D082D083D0E0326B
:0300930002115DFA
:10115D00C0E0C083C082C0D075D000C007E5843028
:10116D00E0215384FEE51AC394204003751A00AFA5
:10117D001A051A74C02FF582E43401F583E585F064
:10118D00751B05E58430E1065384FD751900D00704
:09119D00D0D0D082D083D0E03222
:0300000002162FB6
:0C162F00787FE4F6D8FD75812E021518B6
:100BD600BB010689828A83E0225002E722BBFE021D
:090BE600E32289828A83E4932250
:100BEF00BB010CE58229F582E5833AF583E02250BB
:100BFF0006E92582F8E622BBFE06E92582F8E22205
:0D0C0F00E58229F582E5833AF583E493221E
:100C1C00BB010A89828A83E0F5F0A3E022500687A3
:100C2C00F009E71922BBFE07E3F5F009E319228965
:0B0C3C00828A83E493F5F07401932298
:100C4700BB0110E58229F582E5833AF583E0F5F0EB
:100C5700A3E0225009E92582F886F008E622BBFEC8
:100C67000AE92582F8E2F5F008E222E5832AF5830E
:080C7700E993F5F0A3E99322D3
:100C7F0075F008758200EF2FFFEE33FECD33CDCC2C
:100C8F0033CCC58233C5829BED9AEC99E5829840AF
:100C9F000CF582EE9BFEED9AFDEC99FC0FD5F0D68C
:100CAF00E4CEFBE4CDFAE4CCF9A88222B800C1B9B6
:100CBF000059BA002DEC8BF084CFCECDFCE5F0CBF4
:100CCF00F97818EF2FFFEE33FEED33FDEC33FCEB2D
:100CDF0033FB10D703994004EB99FB0FD8E5E4F9E8
:100CEF00FA227818EF2FFFEE33FEED33FDEC33FCD5
:100CFF00C933C910D7059BE99A4007EC9BFCE99AC9
:100D0F00F90FD8E0E4C9FAE4CCFB2275F010EF2F0D
:100D1F00FFEE33FEED33FDCC33CCC833C810D7070D
:100D2F009BEC9AE899400AED9BFDEC9AFCE899F848
:0E0D3F000FD5F0DAE4CDFBE4CCFAE4C8F922DB
:100D4D00EB9FF5F0EA9E42F0E99D42F0E89C45F0FC
:010D5D002273
:100D5E00E8600FECC313FCED13FDEE13FEEF13FF73
:030D6E00D8F12297
:100D7100BB010DE58229F582E5833AF583020DAECB
:100D81005007E92582F8020DA1BBFE07E92582F88B
:100D9100020DBAE58229F582E5833AF583020DC792
:0D0DA100E6FB08E6F908E6FA08E6CBF822C2
:0C0DAE00E0F8A3E0F9A3E0FAA3E0FB22C8
:0D0DBA00E2FB08E2F908E2FA08E2CBF822B9
:100DC700E493F8740193F9740293FA740393FB2282
:00000001FF
