:10132C00753070E4F533F534753680FB7A0079301E
:10133C007F0412057075315D7532BFE4F535753774
:10134C0001753801FB7A0079307F8012057090FEB0
:0F135C00B2E0543F4440F0E4FBFD7F80020F738A
:100FED00E4F52CF52DF52E752F0112153943BA8028
:100FFD0012132CD2AFC2C5E52F252DF52DE52E35BB
:10100D002CF52CE52D6464452C700874FFF52EF538
:10101D002F800BE52D452C7005F52E752F01AE2C6F
:10102D00AF2DEE3395E0FDFCE47BBF7A5DF9F81250
:10103D000C7FE47B64FAF9F81212658E228F237B04
:10104D00007A00791C7F04120E267F32121603805F
:01105D00A6EC
:101539007530037531207B007A0079307F041209F8
:10154900827530037531807B007A0079307F020221
:02155900098205
:0F1603007D607C09ED1D70011C144C70F7DFF148
:0116120022B5
:10098200EFD3940740037FFF22120BD6FED39403CA
:1009920040037FFF22EF7041EE700B900001120BBB
:1009A200EFF452935294120BD6B4010B9000011241
:1009B2000BEF4293F45294120BD6FEB4020A90004B
:1009C20001120BEF42934294EEB4030D9000011218
:1009D2000BEFFEF45293EE4294EF64017043120B5C
:1009E200D6FE700B900001120BEFF452915292EE70
:1009F200B4010B900001120BEF4291F45292120BD0
:100A0200D6B4020A900001120BEF42914292120BED
:100A1200D6B4030D900001120BEFFEF45291EE4298
:100A220092EF64027043120BD6FE700B900001121B
:100A32000BEFF452955296EEB4010B900001120B9B
:100A4200EF4295F45296120BD6B4020A90000112AC
:100A52000BEF42954296120BD6B4030D9000011291
:100A62000BEFFEF45295EE4296EF64037043120BC5
:100A7200D6FE700B900001120BEFF452B152B2EE9F
:100A8200B4010B900001120BEF42B1F452B2120BFF
:100A9200D6B4020A900001120BEF42B142B2120B1D
:100AA200D6B4030D900001120BEFFEF452B1EE42E8
:100AB200B2EF64047043120BD6FE700B9000011269
:100AC2000BEFF452B352B4EEB4010B900001120BCF
:100AD200EF42B3F452B4120BD6B4020A90000112E0
:100AE2000BEF42B342B4120BD6B4030D90000112C5
:100AF2000BEFFEF452B3EE42B4EF64057043120BF7
:100B0200D6FE700B900001120BEFF452C952CAEEDE
:100B1200B4010B900001120BEF42C9F452CA120B3E
:100B2200D6B4020A900001120BEF42C942CA120B5C
:100B3200D6B4030D900001120BEFFEF452C9EE423F
:100B4200CAEF64067043120BD6FE700B90000112BE
:100B52000BEFF452CB52CCEEB4010B900001120B0E
:100B6200EF42CBF452CC120BD6B4020A900001121F
:100B72000BEF42CB42CC120BD6B4030D9000011204
:100B82000BEFFEF452CBEE42CCEF64077043120B34
:100B9200D6FF700B900001120BEFF452E152E2EF1C
:100BA200B4010B900001120BEF42E1F452E2120B7E
:100BB200D6B4020A900001120BEF42E142E2120B9C
:100BC200D6B4030D900001120BEFFFF452E1EF4295
:040BD200E27F00229C
:10136B00EFD3940140037FFF22EDD3940340037F1F
:10137B00FF22EF7004C2A98002D2A9ED700553B70A
:10138B00FDC2B9BD010553B7FDD2B9BD020543B7C7
:0E139B0002C2B9BD030543B702D2B97F0022DA
:1013A900EFD3940140037FFF22EDD3940340037FE1
:1013B900FF22EF7004C2AB8002D2ABED700553B7C8
:1013C900F7C2BBBD010553B7F7D2BBBD020543B791
:0E13D90008C2BBBD030543B708D2BB7F00228C
:10155B00EFD3940140037FFF22EDD3940340037F2D
:10156B00FF22EF25E025E0FFE5AF54FB4FF5AFE49D
:02157B00FF224D
:10157D00EFD3940140037FFF22EDD3940340037F0B
:10158D00FF22EFC43354E0FFE5AF54DF4FF5AFE476
:02159D00FF222B
:10151600EFD3940140037FFF22EDD3940340037F72
:10152600FF22EFC4333354C0FFE5AF54BF4FF5AFCE
:03153600E4FF22AD
:1013E700EFD3940140037FFF22EDD3940340037FA3
:1013F700FF22EF7004C2A88002D2A8ED700553B790
:10140700FEC2B8BD010553B7FED2B8BD020543B74A
:0E14170001C2B8BD030543B701D2B87F002261
:10142500EFD3940140037FFF22EDD3940340037F64
:10143500FF22EF7004C2AA8002D2AAED700553B74D
:10144500FBC2BABD010553B7FBD2BABD020543B70E
:0E14550004C2BABD030543B704D2BA7F002219
:10159F00EFD3940140037FFF22EFC454F0FFE58F98
:0815AF0054EF4FF58FE4FF2219
:10002600EFD3940140037FFF22EFC43354E0FFE592
:090036008F54DF4FF58FE4FF2227
:10000300EFD3940140037FFF22EFC4333354C0FF87
:0A001300E58F54BF4FF58FE4FF2284
:10146300EFD3940140037FFF22EDD3940340037F26
:10147300FF22EF7004C2AD8002D2ADED700553B709
:10148300DFC2BDBD010553B7DFD2BDBD020543B702
:0E14930020C2BDBD030543B720D2BD7F00229D
:10119200EDD3940340037FFF22EF30E10543E620C5
:1011A200800353E6DFEF30E00543E610800353E6A9
:1011B200EFED700653B6DF53B5DFBD010653B6DF60
:1011C20043B520BD020643B62053B5DFBD03064337
:0811D200B62043B5207F002286
:10105E00EFD3940140037FFF22EBD3940340037F31
:10106E00FF22BF0112ED90FE817006E0547FF080EA
:10107E0011E04480F0800BEF700890FE83E05487FF
:10108E004DF0EB700653B6DF53B5DFBB010653B61A
:10109E00DF43B520BB020643B62053B5DFBB0306C4
:0910AE0043B62043B5207F002267
:1014A100EFD3940140037FFF22EDD3940340037FE8
:1014B100FF22EF7004C2AC8002D2ACED700553B7CD
:1014C100EFC2BCBD010553B7EFD2BCBD020543B7A6
:0E14D10010C2BCBD030543B710D2BC7F002281
:1012EC00EFD3940140037FFF22EDD3940340037F9F
:1012FC00FF22E5AF54FE4FF5AFED700653B6FE532B
:10130C00B5FEBD010653B6FE43B501BD020643B69C
:10131C000153B5FEBD030643B60143B5017F002260
:1011DA00EFD3940140037FFF22EDD3940340037FB2
:1011EA00FF22EF33333354F8FFE5AF54F74FF5AF2F
:1011FA00ED700653EEFE53DFFEBD010653EEFE43CD
:10120A00DF01BD020643EE0153DFFEBD030643EED6
:07121A000143DF017F002208
:10004600EFD3940140037FFF22EDD3940340037F57
:10005600FF22EFC454F0FFE5AF54EF4FF5AFED705C
:100066000653EEFD53DFFDBD010653EEFD43DF02F1
:10007600BD020643EE0253DFFDBD030643EE024317
:05008600DF027F0022F3
:10122100EFD3940140037FFF22EDD3940340037F6A
:10123100FF22EF25E0FFE5AF54FD4FF5AFED70065E
:1012410053B6FD53B5FDBD010653B6FD43B502BD11
:10125100020643B60253B5FDBD030643B60243B5CC
:04126100027F0022E6
:100F7300EFD3948140037FFF22EBD3940340037F9D
:100F8300FF22EF247F603004705890FEC4EDF0EB35
:100F9300700653B6FB53B5FBBB010653B6FB43B513
:100FA30004BB020643B60453B5FBEB64037038433A
:100FB300B60443B504803090FEE4EDF0EB700653C5
:100FC300B6F753B5F7BB010653B6F743B508BB02F3
:100FD3000643B60853B5F7BB030D43B60843B5083C
:0A0FE300800590FEE4EDF07F00228F
:1014DF00EDD394035026ED700653EEFB53DFFBBDA7
:1014EF00010653EEFB43DF04BD020643EE0453DF58
:1014FF00FBBD030B43EE0443DF0480037FFF229009
:07150F00FE62EFF07F0022F5
:080096008F398B3A8A3B893C4B
:10009E00E5396401600302020CF508F509F50AF56D
:1000AE000BF50CF53DF53E7440253EF58274013599
:1000BE003DF583E4F0053EE53E7002053D64804566
:1000CE003D70E4E4F53DF53E7400253EF582740086
:1000DE00353DF583E4F0053EE53E7002053D648056
:1000EE00453D70E4AB3AAA3BA93C120BD6FFE5980E
:1000FE00543F4FF598EF64C06008EF644060030210
:10010E0001C1900002120DC07F807E8D7D5B7C0050
:10011E00120D0A8F428E418D408C3FE4FFFE7D0111
:10012E00FCAB42AA41A940A83FC3120D9C40037FDD
:10013E00FF22C3E49542F542E49541F541740195E1
:10014E0040F540E4953FF53FAB3AAA3BA93C900001
:10015E0001120BEFFB6401702CC28E538EFE53897D
:10016E00BF5389CF438E40AF42AE41AD40AC3F78D6
:10017E0008120DAD8F8D85428BC2AB5389BF538F45
:10018E00FDD28E8062EB64027026538EEF438E0199
:10019E00538EF7438E04AF42AE41AD40AC3F78086C
:1001AE00120DAD8FD68542D753AFFB438E108037DD
:1001BE007FFF22AB3AAA3BA93C120BD6FF701390DD
:1001CE000008120BEFB40105438E20801A538EDF08
:1001DE008015EFB48011900008120BEFB4010543A7
:1001EE008780800353877FAB3AAA3BA93C900007D8
:1001FE00120BEF7004C29C8002D29C7F0022E53964
:10020E0064026003020305F50DF50EF50FF510F50A
:10021E0011F53DF53E74E0253EF5827401353DF550
:10022E0083E4F0053EE53E7002053D6480453D7079
:10023E00E4E4F53DF53E7480253EF5827400353DCF
:10024E00F583E4F0053EE53E7002053D6480453DD4
:10025E0070E4AB3AAA3BA93C120BD6FF64C0600512
:10026E00EF64407075EFB4C005439A808003539AD3
:10027E007F900002120DC07F807E8D7D5B7C001210
:10028E000D0A8F428E418D408C3FE4FFFE7D01FCB6
:10029E00AB42AA41A940A83FC3120D9C40037FFF69
:1002AE0022C3E49542F542E49541F541740195402F
:1002BE00F540E4953FF53F538EEF538EF7438E0492
:1002CE00AF42AE41AD40AC3F7808120DAD8FD68532
:1002DE0042D753AFFB438E1080037FFF22AB3AAA67
:1002EE003BA93C900007120BEFC454F0FFE59A5463
:1002FE00EF4FF59A7F0022E539640360030204395B
:10030E00F512F513F514F515F516F53DF53E746079
:10031E00253EF5827402353DF583E4F0053EE53E5B
:10032E007002053D6440453D70E4E4F53DF53E74D4
:10033E0000253EF5827401353DF583E4F0053EE57A
:10034E003E7002053D6440453D70E4AB3AAA3BA9C0
:10035E003C120BD6FF64C06008EF644060030204D9
:10036E001CEFB4C00543AC80800353AC7F900002F9
:10037E00120DC07F807E8D7D5B7C00120D0A8F4238
:10038E008E418D408C3FE4FFFE7D01FCAB42AA41C5
:10039E00A940A83FC3120D9C40037FFF22C3E495E2
:1003AE0042F542E49541F54174019540F540E495DE
:1003BE003FF53FAB3AAA3BA93C900001120BEFFB75
:1003CE00B4031D43AC40AF42AE41AD40AC3F7808E4
:1003DE00120DAD8FD48542D553D1F043D10A803161
:1003EE00EB64027026538EEF53ACBF538EF7438EE1
:1003FE0004AF42AE41AD40AC3F7808120DAD8FD682
:10040E008542D753AFFB438E1080067FFF227FFFBE
:10041E0022AB3AAA3BA93C900007120BEFC454F052
:10042E00FFE5AC54EF4FF5AC7F0022E53964046074
:10043E000302056DF517F518F519F51AF51BF53DBF
:10044E00F53E74A0253EF5827402353DF583E4F049
:10045E00053EE53E7002053D6420453D70E4E4F541
:10046E003DF53E74C0253EF5827401353DF583E4BD
:10047E00F0053EE53E7002053D6420453D70E4AB5F
:10048E003AAA3BA93C120BD6FF64C06008EF644049
:10049E006003020550EFB4C005438480800353848B
:1004AE007F900002120DC07F807E8D7D5B7C0012DE
:1004BE000D0A8F428E418D408C3FE4FFFE7D01FC84
:1004CE00AB42AA41A940A83FC3120D9C40037FFF37
:1004DE0022C3E49542F542E49541F54174019540FD
:1004EE00F540E4953FF53FAB3AAA3BA93C9000019D
:1004FE00120BEFFBB4041D438440AF42AE41AD403E
:10050E00AC3F7808120DAD8FD28542D353D10F4335
:10051E00D1A08031EB64027026538EEF5384BF530B
:10052E008EF7438E04AF42AE41AD40AC3F78081219
:10053E000DAD8FD68542D753AFFB438E1080067F0D
:10054E00FF227FFF22AB3AAA3BA93C900007120B79
:10055E00EFC454F0FFE58454EF4FF5847F00227F03
:01056E00FF8D
:01056F002269
:0A161F008F99750A01E50A70FC229C
:1015B700120BD6FF600C12161F740129F9E43AFAD0
:0315C70080EE2291
:0A1629008F9B750F01E50F70FC2286
:1015CA00120BD6FF600C121629740129F9E43AFAB3
:0315DA0080EE227E
:0A1633008FAD751401E51470FC2260
:1015DD00120BD6FF600C121633740129F9E43AFA96
:0315ED0080EE226B
:0A163D008F85751901E51970FC2274
:1015F000120BD6FF600C12163D740129F9E43AFA79
:0316000080EE2257
:05001D00AE07021629E8
:030023000212A91D
:1012A900C0E0C083C082C0D075D000C0073098208C
:1012B900C298E50BC394804003750B00AF0B050B77
:1012C90074002FF582E43400F583E599F0750C0577
:1012D900309905C299750A00D007D0D0D082D08341
:0312E900D0E03220
:030043000210B7F1
:1010B700C0E0C083C082C0D075D000C007E59A30B9
:1010C700E021539AFEE510C394804003751000AFEA
:1010D70010051074802FF582E43400F583E59BF04A
:1010E700751105E59A30E106539AFD750F00D00793
:0910F700D0D0D082D083D0E032C9
:03008B000211005F
:10110000C0E0C083C082C0D075D000C007E5AC305D
:10111000E02153ACFEE515C394404003751500AFC4
:1011200015051574002FF582E43401F583E5ADF063
:10113000751605E5AC30E10653ACFD751400D0071B
:09114000D0D0D082D083D0E0327F
:030093000211490E
:10114900C0E0C083C082C0D075D000C007E584303C
:10115900E0215384FEE51AC394204003751A00AFB9
:101169001A051A74C02FF582E43401F583E585F078
:10117900751B05E58430E1065384FD751900D00718
:09118900D0D0D082D083D0E03236
:10057000AD07ED6401707A90FECCE054FEF0E054DB
:10058000FBF090FEC8E054FCF0120BD6FF90FEC8C2
:10059000E0548F4FF0900006120BEFFF90FECC302E
:1005A000E00DE04401F090FEB1E04401F0800BE08A
:1005B00054FEF090FEB1E054FEF0EF90FECC30E13E
:1005C0000DE04404F090FEB1E04402F0800BE054F2
:1005D000FBF090FEB1E054FDF0900003120C47E5F3
:1005E000F090FED5F0900003120C4790FED6020961
:1005F0002AED6402707A90FECCE054EFF0E054BF34
:10060000F090FEC9E054FCF0120BD6FF90FEC9E05A
:10061000548F4FF0900006120BEFFF90FECC30E2AB
:100620000DE04410F090FEB1E04404F0800BE05483
:10063000EFF090FEB1E054FBF0EF90FECC30E30D14
:10064000E04440F090FEB1E04408F0800BE054BF7D
:10065000F090FEB1E054F7F0900003120C47E5F083
:1006600090FED7F0900003120C4790FED802092AA2
:10067000ED6403707A90FECDE054FEF0E054FBF0A0
:1006800090FECAE054FCF0120BD6FF90FECAE05474
:100690008F4FF0900006120BEFFF90FECD30E40D6F
:1006A000E04401F090FEB1E04410F0800BE054FE15
:1006B000F090FEB1E054EFF0EF90FECD30E50DE0AC
:1006C0004404F090FEB1E04420F0800BE054FBF0D5
:1006D00090FEB1E054DFF0900003120C47E5F0907B
:1006E000FED9F0900003120C4790FEDA02092AEDC1
:1006F0006404707A90FECDE054EFF0E054BFF090C7
:10070000FECBE054FCF0120BD6FF90FECBE0548FF2
:100710004FF0900006120BEFFF90FECD30E60DE09B
:100720004410F090FEB1E04440F0800BE054EFF054
:1007300090FEB1E054BFF0EF90FECD30E70DE04405
:1007400040F090FEB1E04480F0800BE054BFF090A8
:10075000FEB1E0547FF0900003120C47E5F090FEEC
:10076000DBF0900003120C4790FEDC02092AED64D6
:1007700080704F900005120BEF90FEDEF0900001AC
:10078000120C47E5F090FED2F0900001120C479059
:10079000FED3F0900008120BEF90FEDDB40106E0EE
:1007A0004480F08004E0547FF0900007120BEF903B
:1007B000FEC0B40106E04401F08004E054FEF07F86
:1007C0000022ED6405705690FEECE054FEF090FEC1
:1007D000E8E054FCF0120BD6FF90FEE8E0548F4F97
:1007E000F0900006120BEF90FEEC30E00DE04401BB
:1007F000F090FEB5E04401F0800BE054FEF090FE76
:10080000B5E054FEF0900003120C47E5F090FEF5C1
:10081000F0900003120C4790FEF602092AED6406E0
:10082000705690FEECE054EFF090FEE9E054FCF0DE
:10083000120BD6FF90FEE9E0548F4FF090000612A5
:100840000BEF90FEEC30E20DE04410F090FEB5E0CE
:100850004404F0800BE054EFF090FEB5E054FBF060
:10086000900003120C47E5F090FEF7F090000312A1
:100870000C4790FEF802092AED6407705590FEEDD2
:10088000E054FEF090FEEAE054FCF0120BD6FF902C
:10089000FEEAE0548F4FF0900006120BEF90FEED51
:1008A00030E40DE04401F090FEB5E04410F0800B20
:1008B000E054FEF090FEB5E054EFF0900003120C0F
:1008C00047E5F090FEF9F0900003120C4790FEFA15
:1008D0008058ED6408705790FEEDE054EFF090FE04
:1008E000EBE054FCF0120BD6FF90FEEBE0548F4F80
:1008F000F0900006120BEF90FEED30E60DE0441094
:10090000F090FEB5E04440F0800BE054EFF090FE34
:10091000B5E054BFF0900003120C47E5F090FEFBE9
:10092000F0900003120C4790FEFCF07F0022ED6473
:1009300081704C900005120BEF90FEFEF0900001CC
:10094000120C47FDACF0EC90FEF2F0AF05A3EFF017
:10095000900008120BEF90FEFDB40106E04480F019
:100960008004E0547FF0900007120BEF90FEE0B49B
:100970000106E04401F08004E054FEF07F00227F95
:02098000FF2254
:100E2600EF24807003020EE1147003020F26248063
:100E3600B408004003020F72900E4C75F003A4C56F
:100E46008325F0C58373020E64020E71020E8102C1
:100E56000E91020EA1020EB1020EC1020ED1120CAB
:100E66001CFDACF0EC90FED5020F6C900002120C4B
:100E760047FDACF0EC90FED7020F6C900004120C0C
:100E860047FDACF0EC90FED9020F6C900006120CF8
:100E960047FDACF0EC90FEDB020F6C900008120CE4
:100EA60047FDACF0EC90FEF5020F6C90000A120CB8
:100EB60047FDACF0EC90FEF7020F6C90000C120CA4
:100EC60047FDACF0EC90FEF9020F6C90000E120C90
:100ED60047FDACF0EC90FEFB020F6C120C1CFDAC57
:100EE600F0EC90FED5F0AF05A3EFF0900002120CE7
:100EF60047FDACF0EC90FED7F0AF05A3EFF0900005
:100F060004120C47FDACF0EC90FED9F0AF05A3EF50
:100F1600F0900006120C47FDACF0EC90FEDB80462C
:100F2600900008120C47FDACF0EC90FEF5F0AF0512
:100F3600A3EFF090000A120C47FDACF0EC90FEF720
:100F4600F0AF05A3EFF090000C120C47FDACF0ECEF
:100F560090FEF9F0AF05A3EFF090000E120C47FDDE
:0D0F6600ACF0EC90FEFBF0AF05A3EFF02225
:03000000021613D2
:0C161300787FE4F6D8FD758142020FEDEF
:100BD600BB010689828A83E0225002E722BBFE021D
:090BE600E32289828A83E4932250
:100BEF00BB010CE58229F582E5833AF583E02250BB
:100BFF0006E92582F8E622BBFE06E92582F8E22205
:0D0C0F00E58229F582E5833AF583E493221E
:100C1C00BB010A89828A83E0F5F0A3E022500687A3
:100C2C00F009E71922BBFE07E3F5F009E319228965
:0B0C3C00828A83E493F5F07401932298
:100C4700BB0110E58229F582E5833AF583E0F5F0EB
:100C5700A3E0225009E92582F886F008E622BBFEC8
:100C67000AE92582F8E2F5F008E222E5832AF5830E
:080C7700E993F5F0A3E99322D3
:100C7F00E88FF0A4CC8BF0A42CFCE98EF0A42CFC14
:100C8F008AF0EDA42CFCEA8EF0A4CDA8F08BF0A492
:100C9F002DCC3825F0FDE98FF0A42CCD35F0FCEBF1
:100CAF008EF0A4FEA9F0EB8FF0A4CFC5F02ECD39B6
:0F0CBF00FEE43CFCEAA42DCE35F0FDE43CFC2223
:100CCE0075F008758200EF2FFFEE33FECD33CDCCDD
:100CDE0033CCC58233C5829BED9AEC99E582984060
:100CEE000CF582EE9BFEED9AFDEC99FC0FD5F0D63D
:100CFE00E4CEFBE4CDFAE4CCF9A88222B800C1B967
:100D0E000059BA002DEC8BF084CFCECDFCE5F0CBA4
:100D1E00F97818EF2FFFEE33FEED33FDEC33FCEBDD
:100D2E0033FB10D703994004EB99FB0FD8E5E4F998
:100D3E00FA227818EF2FFFEE33FEED33FDEC33FC85
:100D4E00C933C910D7059BE99A4007EC9BFCE99A79
:100D5E00F90FD8E0E4C9FAE4CCFB2275F010EF2FBE
:100D6E00FFEE33FEED33FDCC33CCC833C810D707BE
:100D7E009BEC9AE899400AED9BFDEC9AFCE899F8F9
:0E0D8E000FD5F0DAE4CDFBE4CCFAE4C8F9228C
:10126500C2D5E830E70FB2D5E4C39BFBE49AFAE4B4
:1012750099F9E498F8EC30E717B2D512129B120DE4
:101285000AE4C39BFBE49AFAE499F9E498F880032D
:10129500120D0A30D50DE4C39FFFE49EFEE49DFDCB
:0412A500E49CFC22A7
:100D9C00EB9FF5F0EA9E42F0E99D42F0E89C45F0AD
:010DAC002224
:100DAD00E8600FECC313FCED13FDEE13FEEF13FF24
:030DBD00D8F12248
:100DC000BB010DE58229F582E5833AF583020DFD2D
:100DD0005007E92582F8020DF0BBFE07E92582F8ED
:100DE000020E09E58229F582E5833AF583020E16A3
:0D0DF000E6FB08E6F908E6FA08E6CBF82273
:0C0DFD00E0F8A3E0F9A3E0FAA3E0FB2279
:0D0E0900E2FB08E2F908E2FA08E2CBF82269
:100E1600E493F8740193F9740293FA740393FB2232
:00000001FF
